:400000000080002011000000411500004115000080B500AF01F0C6FA80B500AF3C4B12221A6004F00DFA3B4B180005F035F8012004F016FA182004F035F8374B374A1A60FF
:40004000374B8022D2051A60364B364A126802210A431A60344B354A1A60354B00221A60344B344A126808218A431A60FA23DB00180004F009F9304B180004F081F92F4BAA
:40008000EF2212021A602E4B2E4A1A602E4B2F4A1A602B4B2E4A1A602E4B2C4A1A60284B2D4A1A602D4B294A1A60254B2C4A1A602C4B264A1A60224B2B4A1A602B4B8822F3
:4000C00092011A601E4B2A4A1A602A4B802212061A60294B00221A60284B41221A60284B43221A60274B45221A60274B42221A60264B44221A60264B40221A60084B80220B
:40010000D2051A60024B11221A60C046BD4680BD30001040001BB70004010B40060000800C020B4078002E407C002E402D3E000064F02E406CF02E40DC05000004030140BD
:400140000000014041FF00800C03014000BF5D0043FF00801403014045FF00800803014042FF00801003014044FF00800003014040FF008008010B4000010B402C010140FF
:400180002801014024010140200101401C0101400401014080B582B000AF72B6494B00221A60FB1D00221A7022E0FB1D1A7813005B009B185B00444A9B183B603B681A78FE
:4001C000597809020A43997809040A43DB781B06134318003B681A795B791B0213439BB2190001F047F9FB1D1A78FB1D01321A70FB1D1B78012BD8D9344A354B1100180047
:4002000001F048F9334BEE2212061A60324B992212041A60314BC02292041A60304BCC2292051A602F4B992212041A602E4B992212041A602D4B992212041A602C4B802257
:4002400092051A602B4B992212041A602A4B9422D2051A60294A294B1B78DBB23C218B43DBB214210B43DBB21370254A244B1B78DBB216210B43DBB21370224BD8221204CE
:400280001A60214B20221A60204BC42292021A601F4B20221A601F4B40221A601E4B8022D2021A601D4BC0221A601D4B902292031A60FFF7B1FE01F02FF9C046BD4602B012
:4002C00080BDC0466CF02E4004A1010024A1010010A101000000024000010240000202400003024000500F4010500F4020500F4028500F4030500F4038500F4001700F408B
:4003000000700F40080004400001044008010440180104400002044008020440000304400803044010B5064C2378002B07D1054B002B02D0044800E000BF0123237010BD28
:400340001811002000000000449A0100084B10B5002B03D00749084800E000BF07480368002B00D110BD064B002BFBD09847F9E7000000001C110020449A0100A80B002078
:400380000000000080B500AF00F012F8074B180003F05AFE202003F073FE05F0D7FE00F031FE00F027FF00F069FFF6E7489A010080B500AF62B63B4B180001F0E1F904F096
:4003C000B9FB394B180004F01BFB384B180004F0DDFC374B180004F0B1FA364B1B68002B05D104F06FFD344B180004F0F1FD03F05DFB03F049FCFF2003F0DEFBFF2003F0A4
:40040000EBFBFF2003F0C6FC062003F0F5FB062003F00AFC062003F01FFC284B180000F037FA274B9B68274A1000190020231A0005F023FA224B9B68DB7F1C2B15D8204B13
:400440009B68DB7F1A001F4B012199541C4B9B68DB7F01331C4A11781A4AD154184B9B68DB7F0233DAB2174BDA77154B154A9A60802003F0B1FB142003F05CFFFF2003F05C
:40048000ABFB03F02FFD114B180003F0DDFD104B180003F0D9FD202003F0F2FDC046BD4680BDC04611090000A10500003D050000E10500003411002001060000CC0C000060
:4004C000380C00205C230020C40B0020589A0100649A010080B500AF144B1B689A00144BD318180000F056FF00F08CFD00F082FE00F0C4FE0D4B1B685A1C0C4B1A600B4BFE
:400500001B68042B02D1094B00221A60094B00221A70094B01221A7004F09CF9002004F0B3F904F085F9C046BD4680BD3C110020AC0B0020C10B0020C00B002080B500AF45
:40054000124B180003F080FD022004F011FC104B180003F079FD0F4B0421180000F074F80D4B1B685A1C0D4B1B689A4202D10B4B00221A60084B1B685A1C074B1A6001209E
:4005800004F0F6FBC046BD4680BDC046B49A0100FC9A0100BC0B0020381100203411002080B500AF0C4B1B68002B0CD10B4B1B78002B08D0FFF78EFF04F096FC002004F0A0
:4005C000ADFC04F07FFC022004F012FB012004F00FFBC046BD4680BD34110020C10B002080B500AF054B01221A70012004F098F9022004F095F9C046BD4680BDC10B0020AD
:4006000080B500AF0E4B1B68002B0DD10D4B1B685A1E0C4B1A600B4B1B68013302D1094B03221A60FFF756FF012004F0C3FC022004F0C0FC012004F0BDFCC046BD4680BDF5
:40064000341100203C11002080B584B000AF78600A00FB1C1A70FB1C1B78052B50D17B681B781A007B6803331B785343FF21180004F0DCFF03001A000F23FB181A707B686A
:4006800001331B781A007B6803331B785343FF21180004F0CBFF03001A000E23FB181A707B6802331B781A007B6803331B785343FF21180004F0BAFF03001A000D23FB18EA
:4006C0001A700F23FB181B78DB43DBB2180003F073FA0E23FB181B78DB43DBB2180003F07BFA0D23FB181B78DB43DBB2180003F051FB054B180003F0A7FC202003F0C0FCAE
:40070000C046BD4604B080BD509B010080B582B000AF0200FB1D1A70FB1D1B78062B27D89A00184BD3181B689F46174B180003F08BFC22E0154B180003F086FC1DE0144BAF
:40074000180003F081FC18E0124B180003F07CFC13E0114B180003F077FC0EE00F4B180003F072FC09E00E4B180003F06DFC04E00C4B180003F068FCC046C046BD4602B06A
:4007800080BDC046889C0100609B0100849B0100AC9B0100D09B0100F89B01001C9C0100449C01006C9C010090B585B000AF0200FB1D1A70FB1D1B780A21180004F032FFEA
:4007C0000B00DAB20C23FB181A70FC1DFB1D1B780A21180004F0A0FE03002370FB1D1B780A21180004F01EFF0B00DAB20C23FB185A70FC1DFB1D1B780A21180004F08CFE40
:4008000003002370FB1D1B780A21180004F00AFF0B00DAB20C23FB189A700C23FB189B78002B1BD10C23FB185B78002B07D10C23FB181B783033180003F074FB23E00C23EC
:40084000FB185B783033180003F06CFB0C23FB181B783033180003F065FB14E00C23FB189B783033180003F05DFB0C23FB185B783033180003F056FB0C23FB181B783033FF
:40088000180003F04FFBC046BD4605B090BDC04680B582B000AF786003F02CFE0121002003F06AFE0121002003F094FE7B681900002003F0F5FE5A2003F062FD012003F081
:4008C000BFFE03F0EDFD044B180003F083FAC046BD4602B080BDC046DD08000080B500AF03F0DAFA03F024FF02000423134009D0042003F02BFF054B1B889BB201339AB28D
:40090000024B1A80C046BD4680BDC0465823002090B599B000AF786039607B682B2B5AD00FD8262B2BD005D8012B1DD0202B00D12CE134E3272B00D148E2282B00D1D9E243
:400940002DE34C2B64D004D8412B51D0422B57D025E34E2B00D1E5E000D2A6E289225200934200D10EE31AE3BA4B180003F06CFB202003F085FB002000F09AFF0FE3B64BF7
:40098000180003F061FBB54B1B781800FFF7BEFE202003F075FBB14B1B78062B00D0F3E2AF4B1B78002B00D0EEE2002000F080FF5C23FB181B88002B00D0E5E2A94B180081
:4009C00003F042FBA54B1B781800FFF79FFE202003F056FBD8E2A44B180003F035FB9F4B1B781800FFF792FE202003F049FBD6E29E4B180003F028FB202003F041FBCEE2B1
:400A00009B4B180003F020FB202003F039FBC6E24C23FB183A6813CA13C312681A604C23FB189B890E2B6ED14C23FB181B89052B60D1904B180003F007FB202003F020FBF5
:400A40004C23FB185B681A788B4B1A704C23FB185B685A78884B5A704C23FB185B689A78854B9A704C23FB185B68DA78824BDA704C23FB185B6804331B781A007F4B1A603F
:400A80007F4B00221A607D4B1A687E497E4B180004F004FF7C4B180003F0D6FA00F0CAFC754B05211800FFF7CFFD784A4C23FB18181D0023002114F099F9754B1B780133F5
:400AC000DAB2734B1A70734B180003F0BDFA704B1B781800FFF768FE202003F0D1FA604B01221A706C4B180003F0AEFA202003F0C7FA08E04C23FB189B890D221900122024
:400B000000F014FC4BE2614B1A785B781B021A4300231204120C1B0C1B041343180012F05DFF3CE21C23FB183A6813CA13C312681A601C23FB189B89112B00D026E21C2312
:400B4000FB181B89012B00D020E21C23FB185B681A784F4B1A704E4B1B78013BDAB24C4B1A704A4A1C23FB18181D0023002114F03DF94A4B180003F067FA454B1B7818000B
:400B8000FFF712FE202003F07BFAFFE1334B1B78022B00D1FCE12C23FB183A6813CA13C303CA03C33E4B180003F04EFA202003F067FA2C23FB181B78002B00D094E02C234E
:400BC000FB181A7A374BDB7F9A4200D08CE02C23FB18DA682C23FB181B7A023BD3181B78012B00D080E02C23FB18DA682C23FB181B7A013BD3181A78254B1B789A420ED196
:400C00002C23FB18DA682C23FB181B7A013BD3181B78FF2B50D11E4B1B78002B4CD1224B01221A702C23FB185B68204A1000190006231A0004F021FE2C23FB185A781C4B0D
:400C40001A701C4B180003F0FFF9202003F018FA4AE0C046A89C0100BC9C0100E623002040110020E89C0100009D0100209D01003C9D01005C9D0100C023002034110020B6
:400C8000381100207C9D010084230020F8230020C40B0020B89D0100F89D0100109E0100489E01005C23002041110020B823002042110020709E0100BA4B00221A70BA4BFA
:400CC00000221A70B94B00221A70B84B00225A70B64B00229A70B54B0022DA70B34B00221A71B24B00225A712C23FB181B78042B00D04DE12C23FB181B7A142B00D047E12B
:400D0000A84B1B78002B00D142E12C23FB185B68A6490622180004F0A1FD031E00D037E12C23FB185A78A04B1B789A4200D02FE12C23FB18D8682C23FB181B7A1A009C4B17
:400D4000190004F08BFD031E00D021E1994B180003F07AF9202003F093F900F0A9FE964B180003F071F9202003F08AF92C23FB185A78924B9A712C23FB185B681A788F4B7A
:400D80001A702C23FB185B685A788C4B5A702C23FB185B689A78894B9A702C23FB185B68DA78864BDA702C23FB185B681A79834B1A712C23FB185B685A79804B5A71804B00
:400DC00001221A70774B00221A70E1E07D4B1B78022B00D0DEE07C4B01221A707B4B180003F032F97A4B1B781800FFF78FFC202003F046F94023FB1811221A814023FB1874
:400E0000744A1A604023FB1801229A804023F918714B1A785B781B021A4300231204120C1B0C1B041343180012F09EFA0823FA186A4B1000190004231A0004F01EFD684BF5
:400E40001B68002B09D1674B1B785A1CD1B2654A11705F22BA18137003E05F23FB18FF221A700823FB185F22BA1812781A711023FB180E221A811023FB180822BA181A6010
:400E80001023FB1805229A801023F918524B1A785B781B021A4300231204120C1B0C1B041343180012F056FA74E04F4B180003F0CBF8474B1B781800FFF728FC202003F048
:400EC000DFF8454B1B78002B66D0434B1B78180010F0A4FF454B01221A70454B180003F0B3F83B4B1B781800FFF710FC202003F0C7F851E0344B00221A703E4B180003F023
:400F0000A3F8334B1B781800FFF700FC202003F0B7F82C4B1B78012B17D1374B1B78012B13D02B4B1B78062B2BD1002000F0C0FC324B180003F088F8254B1B781800FFF7BC
:400F4000E5FB202003F09CF81BE01E4B1B78022B24D1294B1B78012B20D01D4B1B78062B1CD1002000F052FD254B180003F06CF8174B1B781800FFF7C9FB202003F080F8C5
:400F80000CE00BE0C0460AE0C04608E0C04606E0C04604E0C04602E0C04600E0C046BD4619B090BD4111002042110020B8230020C80B0020889E0100989E01007C230020C9
:400FC00043110020DC0B002044110020AC9E0100E6230020C40B0020F8230020C023002034110020C00B0020D49E010045110020F09E01001C9F010040110020E89C0100E6
:40100000409F010090B583B000AF684B1B78012B00D0C6E005F09AF8654B1B78002B12D0634B1B78180010F0F9FE05F08FF8614B180003F009F8604B1B781800FFF766FBB9
:40104000202003F01DF85D4B1B78012B02D0022B4CD0A6E0584B1B78032B0FD100F092FC05F074F8564B180002F0EEFF524B1B781800FFF74BFB202003F002F84E4B1B7888
:40108000062B30D1BC1D002000F0C0FC03002380BB1D1B88002B17D14A4B180002F0D4FF454B1B781800FFF731FB202002F0E8FF454B1B889AB2454B1A80404B02221A705B
:4010C0003A4B00221A700EE03C4B01221A70404B180002F0B9FF384B1B781800FFF716FB202002F0CDFF05F031F85AE0324B1B78042B0AD100F0DCFC05F028F8354B180036
:4011000002F0A2FF202002F0BBFF2B4B1B78062B44D1314BDB7F013B304A11782E4AD1542F4B2D4A9A602F4B180002F08DFF2B4B1B781800FFF738FB202002F0A1FFBC1D3F
:40114000002000F0B5FB03002380BB1D1B88002B15D11A4B01221A70234B00221A70134B00221A70214B180002F06EFF124B1B781800FFF7CBFA202002F082FF0EE00F4BA6
:4011800002221A701A4B180002F05EFF0A4B1B781800FFF7BBFA202002F072FF04F0D6FFC046C046BD4603B090BDC04640110020F8230020549F0100E6230020DC0B0020B9
:4011C000749F0100989F01005823002046110020B09F0100C89F01005C230020C40B0020380C0020E09F010043110020F49F010014A0010090B583B000AF1B4B1B78002B5F
:401200002ED004F0A3FF194B1B78062B28D1164B00221A70BC1D164B180000F05BFC03002380BB1D1B88002B0CD0124B180002F00BFF0E4B1B781800FFF768FA202002F02C
:401240001FFF0BE00C4B180002F0FEFE074B1B781800FFF75BFA202002F012FF04F076FFC046BD4603B090BD43110020E62300207C2300203CA0010054A0010080B500AFF9
:40128000214B1B78022B1CD1204B1B889BB21A001F4B1B889BB2D31A2D2B12DD1D4B1B78062B03D01B4B1B78042B0AD11A4B01221A701A4B180002F0C7FE202002F0E0FEBA
:4012C0001FE0174B1B78002B1BD004F03FFF114B1B78062B15D1124B00221A70114B180002F0B2FE202002F0CBFE002000F08EFB04F02CFF0C4B180002F0A6FE202002F0A3
:40130000BFFEBD4680BDC046DC0B00205823002046110020E6230020401100206CA001004511002094A00100ACA0010090B585B000AF040008001100FB1D221C1A703B1D74
:40134000021C1A80BB1D0A1C1A700C23FB18FA1D12789A700C23FB183A1D12881A800C23FB18BA1D1278DA700C23F918084B1A785B781B021A4300231204120C1B0C1B0477
:401380001343180012F0B2FAC046BD4605B090BDF823002080B586B000AF78607B681A781F4B1A707B685A781D4B9A707B689A781B4B5A707B68DA78194BDA70184B0521B8
:4013C0001800FFF741F90C23FB180E221A810C23FB187A681A600C23FB1805229A80114A0C23F8180023002113F000FD0E4B01221A700E4B1B780133DAB20C4B1A700C4BAF
:40140000180002F021FE094B1B781800FFF7CCF9202002F035FEC046BD4606B080BDC046C0230020F823002040110020C40B0020B89D010080B500AF0B4B1B68002B0FD0A7
:401440000A4B180002F000FE03F02CFC002003F043FC03F015FC064B1B68180003F04CFCC046BD4680BDC04634110020D4A00100E00B002080B582B000AF786039603A681D
:401480007B680021180004F001FAC046BD4602B080BDC04680B586B000AF7860396000233B6100237B612FE07B699B007A68D3181B68BB600F23FB18BA681A70BB68FF22AC
:4014C0009343BB6018E03B695B003A68D3181B781A00BB68D31819003B695B003A68D3185B780B703B6901333B610F23FB181A780F23FB18013A1A700F23FB181B78002B71
:40150000E1D17B6901337B617B69042BCCD9C046BD4606B080BDC04680B500AF054B03221A60054B03221A60044B00221A60C046BD4680BD3000304030003140000E3F408A
:4015400080B500AF04F05EF903001B680C2B00D1FEE7FEE780B584B000AF78600F4B1A687B68D3181A000E4BD31A802B09DC0B4B1B68FB60094B1A687B68D218074B1A60B7
:4015800007E004F03FF903000C221A6001235B42FB60FB681800BD4604B080BDE40B00201824002080B586B000AF224B7B61224B3B61204B7B6135E03B691B68FB603B6989
:4015C0005B68BB603B699B683B6000237B600CE0FB681A68BB681A60BB680433BB60FB680433FB607B6804337B607A683B689A42EED13B69DB683B6000237B6008E0BB6855
:4016000000221A60BB680433BB607B6804337B607A683B689A42F2D13B6910333B617B69013B7B617B69002BC6D104F0F1F8FEF7A9FEFEE70100000034A6010080B582B0BA
:4016400000AF154B144A126801218A431A6000237B600FE07B68032B04D8104B7A689200D35800E00E4B0F4A796889008B507B6801337B607B682F2BECD9FEF78BFD0A4BA9
:4016800000221A60044B044A126801210A431A60C046BD4602B080BD00001040000000004115000000000020C000002080B500AF1B4B00221A701B4B00221A701A4B002261
:4016C0001A701A4B00221A70194B5A88194B1A80174B9A88174B5A80154B9A79154B1A73134BDA79134B1A71124B0822DA81114B0A221A820F4B00225A820E4B64229A82F8
:401700000C4B0022DA820B4B012252421A830A4B1E221A8000F012F8C046BD4680BDC0460D240020F42300200B2400200A2400204C0C0020C8230020E223002080B500AF04
:401740000C4B1B88002B05D10B4B0E220021180004F09CF8074BDB88002B05D1074B06220021180004F092F801F016FEC046BD4680BDC046E40C0020FC230020EC23002071
:40178000B0B594B004AF78603E23FB1800221A802823FA183E4B1000190014231A0004F06CF83C4B1B78002B04D1FFF77FFF394B01221A707B68002B5FD0374B7A681A6033
:4017C0003E23FB181B88002B29D11023FB181C22BA185A601023FB182022BA181A601023FB1800221A812023FB181B221A802023FB181B225A802023FB1804221A711C23E6
:40180000FB1808221A703E23FC180E23FA181023FB181100180004F075FD030023803E23FB181B88002B2CD13E23FC182823FD18AE231A0119491A4800230293002301937B
:40184000052300932B0004F0B3FC030023803E23FB181B88002B14D1124B01221A70124B08221A703E23FC18104B0F221121180013F0A4FA0300238003E03E23FB180122EB
:401880001A803E23FB181B881800BD4610B0B0BD08A2010048110020C4230020C8000020CD210000E6230020E723002054A2010090B585B000AF0200FB1D1A70FB1D1B786C
:4018C000022B04D90E23FB1801221A804AE0294B1B78062B41D1284B1B78DBB21A00042313403AD1FB1D1B78002B0BD1234B08221A82224B5B6820221A80204B5B683022C5
:401900005A8010E0FB1D1B78012B0CD11B4B96221A821A4B5B68C822D2001A80174B5B688022D2015A80164BFA1D12781A700E23FC18124B180010F00FFE030023800E2353
:40194000FB181B88002B0DD10B4B1B78DBB204221343DAB2084B1A7004E00E23FB180422FF321A800E23FB181B881800BD4605B090BDC046E62300200D240020380C00204C
:401980000B24002080B500AF10F07EFE054B1B78DBB208221343DAB2024B1A70C046BD4680BDC0460D24002080B584B000AF78600A00FB1C1A700023BB60BB68002B20D071
:4019C0007B689A79BB681A700F23FB1800221A7012E00F23FB181B780133BA68D3180F22BA18127879688A5C1A700F23FB181A780F23FB1801321A700F23FB181B78052B89
:401A0000E7D9C046BD4604B080BDC04690B585B000AF0200FB1D1A70FB1D1B78022B04D90E23FB1801221A8035E0FB1D1B78002B09D11C4B08221A811A4B30225A80194B7D
:401A400020229A800EE0FB1D1B78012B0AD1154B96221A81134B802212015A80114BE122D2009A80104BFA1D12781A700E23FC180C4B180010F0F6FC030023800E23FB1869
:401A80001B88002B07D1094B1B78DBB204221343DAB2064B1A700E23FB181B881800BD4605B090BD4C0C00200A2400200D24002080B500AF10F000FD054B1B78DBB2082293
:401AC0001343DAB2024B1A70C046BD4680BDC0460D24002090B585B000AF7860294B1B78062B05D00E23FB180422FF321A8041E07B68002B04D10E23FB1801221A8039E02F
:401B00000D23FB1800221A7012E00D23FB181B780D22BA1812787968895C1B4AD3180A1C5A710D23FB181A780D23FB1801321A700D23FB181B78052BE7D97B689A79124B6E
:401B4000DA720E23FC18104B180010F039FC030023800E23FB181B88002B0BD1094B05221A700A4B1B88002B04D0084B1B8818000DF094FB0E23FB181B881800BD4605B04B
:401B800090BDC046E6230020C8230020E223002090B583B000AF104B1B78052B04D0BB1D0422FF321A8011E0BC1D10F0FFFB030023800A4B1B88002B01D00DF089FBBB1DE0
:401BC0001B88002B02D1044B06221A70BB1D1B881800BD4603B090BDE6230020E223002080B582B000AF78607B681B789AB27B6801331B789BB21B029BB213439BB2180093
:401C0000BD4602B080BDC04690B585B000AF78600F23FB1800221A707B689B890B22934232D17B68181D7A680F23FC184023002113F0DCF8030023700F23FB181B78002B7A
:401C40001AD17B685B681800FFF7CAFF03001A00022313409BB2002B07D00F4B1B687968822252001000984706E00B4B1B6879680622FF3210009847084B1B78DBB20122F7
:401C80009343DAB2054B1A700F23FB181B781800BD4605B090BDC046C42300200D24002080B582B000AF78607B68DB880D4A934214D10D4B5B88002B08D17B689A880A4BB7
:401CC0005A807B689A78084B1A7007E0074B1B687A68911D8622520010009847C046BD4602B080BD052A0000EC230020C423002080B582B000AF78607B689B880B4A934288
:401D000010D10B4B9B88002B04D17B685A88084B9A8007E0074B1B687A68111D8622520010009847C046BD4602B080BD02290000EC230020C423002080B582B000AF78601B
:401D40000C4B5A887B689B899A420ED10A4B1B6879688322520010009847084B1B78DBB201229343DAB2054B1A70C046BD4602B080BDC046EC230020C42300200D24002072
:401D800090B585B000AF78600F23FC187B681800FFF73AFF03002370154B1B78DBB21A00012313401FD10F23FB181B78002B16D00823FB1812229A707B689A890823FB1872
:401DC0001A800823FB180F22BA181278DA700823FA187B681100186811F088FD03E07B68186811F0FBFDC046BD4605B090BDC0460D24002080B582B000AF7860C046BD4665
:401E000002B080BD80B582B000AF7860C046BD4602B080BD80B582B000AF7860C046BD4602B080BD80B582B000AF7860C046BD4602B080BD80B588B000AF7860394B1B78F6
:401E4000022B6AD1384B1B88002B66D00823F918354B022208009B180422190003F00DFD7B6859687B681B891A000823FB180433180003F002FD0823FB18180001F000FB96
:401E8000294B1B8801339AB20823FB181A80274B1B781900264A0B005B005B185B00D31802331A880823FB185A800823FB181A880823FB185B889A4221D80823F9181D4B9D
:401EC0001A785B781B021A4300231204120C1B0C1B041343180011F0B9F9031E12D0164B1B6884225200002110009847134B1B78DBB202229343DAB2104B1A7002E001206A
:401F000000F0BCFC0D4B1B78DBB201229343DAB20A4B1A70044B00221A80C046BD4608B080BDC046E72300204C1100200C240020E40C0020F8230020C42300200D24002074
:401F400080B588B000AF7860394B1B78022B6AD1384B1B88002B66D00823F918354B022208009B180422190003F087FC7B6859687B681B891A000823FB180433180003F052
:401F80007CFC0823FB18180001F07AFA294B1B8801339AB20823FB181A80274B1B781900264A0B005B005B185B00D31802331A880823FB185A800823FB181A880823FB18C5
:401FC0005B889A4221D80823F9181D4B1A785B781B021A4300231204120C1B0C1B041343180011F033F9031E12D0164B1B6884225200002110009847134B1B78DBB20222DD
:402000009343DAB2104B1A7002E0012000F036FC0D4B1B78DBB201229343DAB20A4B1A70044B00221A80C046BD4608B080BDC046E72300204C1100200C240020E40C002042
:40204000F8230020C42300200D24002080B500AF094B00225A70084B00221A70074B1B78052B03D1054B07221A7002E0034B08221A70C046BD4680BDF8230020E72300202F
:4020800080B582B000AF78607B681B78032B3ED1264B1B78DBB21A000223134037D0244B1B78022B10D002DC012B05D024E0032B12D0042B18D01FE01E4B1B680822FF32F6
:4020C00000211000984717E01A4B1B68842252000021100098470FE0164B1B680A22FF3200211000984707E0124B1B6885225200002110009847C0460C4B1B78DBB2022238
:402100009343DAB2094B1A70094B00221A707B681B78042B05D1084B1B78052B01D1FFF737FDC046BD4602B080BDC0460D240020E7230020C4230020E623002080B500AF45
:40214000C046BD4680BDC04680B584B000AF78600E23FB1800221A707B689B79002B1CD10F23FB1800221A7012E00F23FB181B787A68D35C002B04D00E23FB1801221A7068
:402180000BE00F23FB181A780F23FB1801321A700F23FB181B78052BE7D90E23FB181B781800BD4604B080BD80B582B000AF0200BB1D1A80C046BD4602B080BD80B582B0C7
:4021C00000AF7860C046BD4602B080BD80B588B000AF02003960FB1D1A70D44B1B78DBB201221343DAB2D14B1A70FB1D1B78712B00D919E29A00CE4BD3181B689F461023C9
:40220000FB1807221A701023FB1800225A701023FB18180005F086FF1023FB1807221A701023FB1801225A701023FB18180005F079FF0023002B01D003F080FFBD4B1B68BB
:402240001800FFF781FF031E11D0BA4B1B68180003F080FFB74B1B6800211800FFF7A4FBB44B1B6801211800FFF79EFB36E0B24B1B781A003F231A40B04B1B789901FC235B
:402280001B010B401A43AE4B1B781903F8235B020B401A43AB4B1B785904FE231B040B401343BB61BB69DAB2A74B1A70BB691B0ADAB2A54B5A70BB691B0CDAB2A24B9A7026
:4022C000A14B180003F046FF9F4B00211800FFF76BFB9D4B01211800FFF766FB03200FF047FF0C23FB183F221A700C23FB1800225A700C23FB1818000FF058FF934B062231
:402300001A709CE13B681800FFF7BAFE97E13B681A788F4B1A7092E13B687B617B691B78002B00D082E17B695B78002B0BD1894B0022DA80874B00229A80864B864A1A601E
:402340007B69844A5A60794B1B78DBB201229343DAB2764B1A7069E1744B1B78DBB21A002023134000D063E17C4B1B78102B02D17A4B0522DA707A4B1B78784A110018006F
:4023800010F0ACF803001A000A23FB181A800A23FB181B88002B06D0724B1B680A22BA18110036209847614B1B78DBB201221343DAB25E4B1A706A4B1B78684A11001800F3
:4023C0000FF078FC34E13B681800FFF7F7FE36E13B681800FFF7F2FE634B1B88002B01D00CF076FF594B02221A7028E1574B06221A7024E1554B1B78022B00D11AE14B4BC3
:402400001B78DBB21A000123134000D112E1474B1B78DBB21A00042313400BD04B4B03221A70424B1B78DBB204229343DAB23F4B1A70FFE03D4B1B78DBB21A000823134059
:402440000BD0424B06221A70384B1B78DBB208229343DAB2354B1A70ECE03C4B1B78032B00D0E7E0394B06221A70E3E0374B1B78022B00D1E0E02D4B1B78DBB21A000123BC
:40248000134000D1D8E0294B1B78DBB21A00042313400BD02D4B04221A70244B1B78DBB204229343DAB2214B1A70C5E01F4B1B78DBB21A00082313400BD0244B06221A7045
:4024C0001A4B1B78DBB208229343DAB2174B1A70B2E01E4B1B78042B00D0ADE01B4B06221A70A9E03B681B881800FFF75DFEA6E01B4A3B681000190002231A0003F0BDF9D6
:40250000134B00221A70194B00221A70FFF716FE95E0FFF79BFD92E03B685B88162B27D81E23FB183A6852881A8025E00D240020B4A30100600C00207CF2FF0F7DF2FF0F9F
:402540007BF2FF0F78F2FF0F580C0020E6230020F423002064110020A80B0020F80C0020F8230020C4230020E2230020E72300201E23FB1817221A801E23FB1819883B68A8
:402580001A8800231204120C1B0C1B041343180011F0B6F953E03B681800FFF7F1FB4EE03B681800FFF726FC49E03B68180000F065F844E03B68180000F098FA3FE000F04C
:4025C00083FE3CE03B68180000F02AFD37E03B68180000F0C9FE32E03B681800FFF71AFC2DE03B681800FFF7A7FB3B681800FFF719FC204B1B78DBB21A00012313401DD1DA
:402600003B68186810F0E8FD18E03B681800FFF711FC14E03B681800FFF792FC0FE03B681800FFF7EFFB0AE0C04608E0C04606E0C04604E0C04602E0C04600E0C0460D4B45
:402640001B78DBB21A00112313400ED0094B1B78DBB201229343DAB2064B1A70064B1B68FA1D1278396810009847C046BD4608B080BDC0460D240020C423002080B586B01B
:4026800000AF78600023FB60774B1B78012B00D0E6E0764B1B78DBB21A000223134000D1DEE00A23FB187A6812891A800A23FB181B88062B05D00A23FB181B88142B00D0CA
:4026C000C7E00823FB187A6852891A801423FB1800221A80ABE07B685A681423FB181B88D318FB601323FB1800221A70FB681A885F4B1B889A4200D27CE0FB681A885C4B38
:402700005B889A4200D975E00A23FB181B88062B00D068E0FB6801221A751623FB1800221A8055E01623FB181A88524913005B009B185B00CB1804331A88FB689B889A420B
:402740003FD11623FB181A884A4913005B009B185B005B5A002B13D11623FB181A88454913005B009B185B00FA68CB1811000422180003F082F81323FB1801221A7020E099
:402780001623FB181B88012B0FD81623FB181B885A1C384913005B009B185B00CB1804331A88FB689B889A420BD0334B1B68FA68111D0C22FF32100098471323FB18012271
:4027C0001A701623FB181A881623FB1801321A801623FB181B88022B0CD81323FB181B78002B9FD006E0FB6802221A75FB68180000F046FE1323FB181B78002B0DD11B4BDC
:402800001B78DBB21A000123134006D01A4B1B68F9681222FF32100098471423FB181422B9180A22BA18098812888A181A801423FA180823FB1812881B889A4200D24AE71B
:402840000A4B1B78DBB201229343DAB2074B1A7006E0094B1B680822FF32002110009847C046BD4606B080BDE72300200D240020E8230020E40C0020C423002080B582B03A
:4028800000AF0200FB1D1A70FB1D1B78002B06D0344B1B780133DAB2324B1A700CE0314B00221A70304B00221A8005E02D4B1B780133DAB22B4B1A702A4B1B78022B19D81F
:4028C000284B1B781900294A0B005B005B185B009A5A274B1B889A42E8D3224B1B781900224A0B005B005B185B009A5A204B5B889A42DBD81B4B1B78022B28D8194B1B78CB
:402900001A0013005B009B185B00184A9918194B1A785B781B021A4300231204120C1B0C1B041343180010F091FC031E15D0124B1B68842252000021100098470F4B1B7838
:40294000DBB202229343DAB20C4B1A7005E00C4B03221A70002000F0ADFAC046BD4602B080BDC0460C2400204C110020E40C0020E8230020F8230020C42300200D24002028
:40298000E723002080B582B000AF78607B68DB884F4A934200D184E04D4A93420BDC4D4A934224D04B4A934200DD68E0A822920193420AD087E0484A93423CD0474A934288
:4029C0004BD0474A934224D07DE0464B1B88002B04D17B689A88434B1A8074E0424B1B687A68911D86225200100098476BE03D4B5B88002B04D17B689A883A4B5A8062E06B
:402A0000394B1B687A68911D862252001000984759E0344B1B89002B04D17B689A88314B1A8150E0304B1B687A68911D862252001000984747E02B4B5B89002B04D17B6893
:402A40009A88284B5A813EE0274B1B687A68911D862252001000984735E0224B9B89002B04D17B689A881F4B9A812CE01E4B1B687A68911D862252001000984723E0194B52
:402A80009B88002B04D17B689A88164B9A801AE0154B1B687A68911D862252001000984711E0104BDB88002B04D17B689A880D4BDA8007E00C4B1B687A68911D862252006C
:402AC00010009847C046C046BD4602B080BDC046032A0000012A0000A62A0000C92A0000042A0000FC230020C423002090B593B000AF7860D44B1B78DBB21A000223134074
:402B000000D1D1E13E23FB187A6812891A803C23FB187A6852891A807B685B683B64CB4B1B78032B00D0C7E04623FB1800221A80B8E03B6C1800FFF753F803001A002423F7
:402B4000FB181A803B6C02333B643B6C1A782423FB189A703B6C01333B643B6C1800FFF73FF803001A002423FB189A803B6C02333B643E23FB181B88152B33D12423FB1869
:402B800002229A752423FB180622396C9B181022180002F072FE3B6C10333B64AC4B1B781900AC4A0B005B005B185B00D31804331B881A00A84B9A425DD0A54B1B78012B7C
:402BC0005BD9A34B1B78022B57D8A14B1B789BB2023B9BB22422BA181100180000F0B8FCC0464AE03E23FB181B88072B48D12423FB1801229A753B6C1800FEF7F1FF0300C4
:402C00001A002423FB18DA803B6C02333B64904B1B7819008F4A0B005B005B185B00D31804331B88C0225201934203D08B4A934206D00BE02423FB181800FFF7A3FE1FE0A2
:402C40002423FB181800FFF72BF819E0804B1B78012B14D97E4B1B78022B10D87C4B1B789BB2023B9BB22422BA181100180000F06FFCC04603E0C04602E0C04600E0C0465E
:402C8000714B1B78DBB201229343DAB26E4B1A704623FB184622B9183E22BA18098812888A181A804623FA183C23FB1812881B889A4200D23DE7F7E0644B1B78022B00D010
:402CC000F2E04623FB1800221A80E4E03B6C1800FEF786FF03001A000C23FB181A803B6C02333B643B6C1800FEF77AFF03001A000C23FB185A803B6C02333B643B6C1800B9
:402D0000FEF76EFF03001A000C23FB189A803B6C02333B643E23FB181B88062B30D10C23FB1802229A7510F00FFB0C23FB1859884B4B1A785B781B021A4300231204120C86
:402D40001B0C1B041343180010F09EFA031E07D1444B0C22BA1813CA13C313CA13C388E0414B1B6884225200002110009847364B1B78DBB202229343DAB2334B1A7078E013
:402D80003E23FB181B88082B00D072E00C23FB1801229A753B6C1800FEF722FF03001A000C23FB18DA803B6C02333B644423FB1800221A8033E04423FB181A882549130044
:402DC0005B009B185B00CB1804331A880C23FB18DB889A421CD14423FB181A881D4913005B009B185B005B5A002B11D14423FB181A88184913005B009B185B000C22BA1887
:402E00000220CB1811180422180002F036FD0BE04423FB181A884423FB1801321A804423FB181B88022BC6D9094B1B781900094A0B005B005B185B00D31804331B881A0064
:402E40000A4B9A4214D014E00D240020E72300200C240020E40C0020FEFF000001180000F82300204C110020C423002012180000C0460F4B1B78DBB201229343DAB20C4B13
:402E80001A704623FB184622B9183E22BA18098812888A181A804623FA183C23FB1812881B889A4200D211E7C046BD4613B090BD0D24002080B582B000AF0200FB1D1A7046
:402EC000FB1D1B78002B06D0354B1B780133DAB2334B1A7009E0324B00221A7005E0304B1B780133DAB22E4B1A702D4B1B78022B19D82B4B1B7819002A4A0B005B005B18EB
:402F00005B009A5A284B1B889A42E8D3244B1B781900244A0B005B005B185B009A5A224B5B889A42DBD81E4B1B78022B2DD81C4B1B781A001B4913005B009B185B001B4A7E
:402F4000585ACB185B881B04034319001378527812021A4300231204120C1B0C1B041343180010F057F9031E15D0114B1B680A22FF320021100098470E4B1B78DBB202224B
:402F80009343DAB20B4B1A7005E00B4B04221A70002000F0E9F8C046BD4602B080BDC0460C240020E40C0020E8230020F8230020C42300200D240020E723002080B582B046
:402FC00000AF3B0000221A803B0000225A80114B1B78002B09D1104B5B8801339AB23B001A800E4B1A893B005A803B1D3A0012681A603A1D002311880904090C1B0C1B045B
:403000000B43528812041B041B0C13431800BD4602B080BD0C240020EC230020E40C002080B58AB000AF78600823FB1800225A804A4B1B78042B00D08BE0494B1B78DBB2A7
:403040001A000223134000D183E01E23FB187A6812891A807B681A7B0823FB181A750823FB187A6812881A800823FB181B7D012B04D12623FB1804221A8003E02623FB1854
:4030800012221A807B685B683B622423FB1800221A804EE03B6A1800FEF7A2FD03001A000823FB185A803B6A02333B620823FB181B7D022B15D10823FB183A6A04331100AB
:4030C0001022180002F0D9FB3B6A10333B62254B1B78012B23D10823FB18180000F0FEFB1DE03B6A1800FEF77BFD03001A000823FB189A803B6A02333B621A4B1B78002BA3
:4031000004D10823FB181800FEF7F2FD154B1B78012B04D10823FB18180000F0DFFB2423FB182422B9182622BA18098812888A181A802423FA181E23FB1812881B889A42B4
:40314000A8D3074B1B78DBB201229343DAB2044B1A70C046BD460AB080BDC046E72300200D2400200C24002080B584B000AF0200FB1D1A700C23FB1800221A800C23FB1837
:4031800000225A804A4B1B78012B17D0FB1D1B78002B0DD0464B1B780133DAB2444B1A70434B1B78012B09D1FB1D00221A7005E03F4B00221A70FB1D01221A703C4B1B7843
:4031C000012B0CD1FB1D1B78180000F0C5FA03001A000C23FB181A60FB1D01221A70344B1B78012B06D0FFF7E9FE03001A000C23FB181A600C23FB181A882E4B1B889A4210
:4032000015D90C23FB181A882A4B5B889A420ED80C23FB185A88274B1B889A4207D30C23FB181A880C23FB185B889A4203D9204B1B78012BA6D91E4B1B78012B21D80C23F9
:40324000F9181D4B1A785B781B021A4300231204120C1B0C1B04134318000FF0C5FF031E21D0164B1B6885225200002110009847134B1B78DBB202229343DAB2104B1A7040
:4032800011E0104B05221A700C4B1B68892252000021100098470A4B1B78DBB202229343DAB2074B1A70C046BD4604B080BDC0460C240020E8230020F8230020C423002096
:4032C0000D240020E723002080B500AF244B1B78DBB21A00022313403FD0224B1B78022B17D002DC012B05D037E0032B1DD0042B27D032E01B4B02221A700020FFF7BEFA00
:40330000174B1B78DBB201229343DAB2144B1A7023E00120FFF7B2FA114B1B78DBB201229343DAB20E4B1A7017E00120FFF7C2FD0B4B1B78DBB201229343DAB2084B1A704E
:403340000BE00120FFF710FF054B1B78DBB201229343DAB2024B1A70C046C046BD4680BD0D240020E723002080B582B000AF7860084B1B78DBB21A000223134005D07B68FE
:403380009B790A2B01D1FFF79FFFC046BD4602B080BDC0460D24002080B582B000AFBB1D00221A8060E0BB1D1B889A1C324913005B009B185B005B5A002B50D13B1D002282
:4033C0001A8040E0BB1D1B882C4A1B01D3180C331A683B1D1B881B01D31800221A80BB1C00221A8019E0BB1D1B88244A1B01D3180C331A683B1D1B881B01D318D968BB1C45
:403400001A8813005B009B189B00CB1800221A80BB1C1A88BB1C01321A80BB1D1B88174A1B01D3180C331A683B1D1B881B01D3189B7A9BB2BA1C12889A42D4D33B1D1A887D
:403440003B1D01321A80BB1D1B880C4A1B01D31809331B789BB23A1D12889A42B2D3BB1D1A88BB1D01321A80BB1D1B88002B9AD0C046BD4602B080BDE40C00201C0D002061
:4034800080B584B000AF78600D23FB1800221A700E23FB1800221A8046E00E23FB181B88284A1B01D31808331B78022B35D10E23FB181B88234A1B01D318043318687B68B1
:4034C00004331022190002F0C9F9031E25D10E23FB181B889A1C1C4913005B009B185B005B5A002B19D10E23FB181B889A1C164913005B009B185B007A68CB1811000422C3
:40350000180002F0BAF9114B1B780133DAB20F4B1A700D23FB1801221A700E23FB181A880E23FB1801321A800E23FB181B88002B04D10D23FB181B78002BAED0C046BD46E5
:4035400004B080BD1C0D0020E40C00200C24002080B584B000AF02003960BB1D1A800D23FB1800221A70774B1B68002B0FD0764B1B88BA1D12889A4206D1724B1B683A68E4
:403580001288013A92B21A806E4B00221A600E23FB1800221A80ABE00C23FB1800221A703B689B7D022B27D1BB1D1B88674A1B01D3180C331A680E23FB181B881B01D318C8
:4035C0001B7A022B18D1BB1D1B88604A1B01D3180C331A680E23FB181B881B01D31858683B6806331022190002F038F9031E03D10C23FB1801221A703B689B7D012B27D178
:40360000BB1D1B88514A1B01D3180C331A680E23FB181B881B01D3181B7A012B18D1BB1D1B884A4A1B01D3180C331A680E23FB181B881B01D31858683B6806330222190076
:4036400002F00CF9031E03D10C23FB1801221A700C23FB181B78012B43D1BB1D1B883B4A1B01D3180C331A680E23FB181B881B01D3181B88002B34D1BB1D1B88334A1B01BD
:40368000D3180C331A680E23FB181B881B01D3183A6892881A80BB1D1B882C4A1B01D3180C331A680E23FB181B881B01D3183A6892785A72BB1D1B88244A1B01D3180C33CC
:4036C0001A680E23FB181B881B01D3189A1C1D4B1A601D4BBA1D12881A800D23FB1801221A700E23FB181A880E23FB1801321A80BB1D1B88154A1B01D31809331B789BB26B
:403700000E22BA1812889A4205D20D23FB181B78002B00D140E70B4B1B68002B0DD0094B1A680B4B1B7818000A4903005B001B185B00CB1802331B881380C046BD4604B03F
:4037400080BDC04670110020741100201C0D00200C240020E40C002080B584B000AF0200FB1D1A700823FB1800221A800823FB1800225A80FB1D1B78002B2DD0524B1B8814
:403780000133524A1288524912018A1809321278934206D24C4B1B8801339AB24A4B1A8023E04A4B1B88013309D1484B1B8801339AB2464B1A80444B00221A8015E0454BFA
:4037C0001B780133DAB2434B1A703F4B1B8801339AB23D4B1A8008E03C4B00221A803A4B00221A80FB1D01221A70384B1B88384A1B01D31809331B789AB2334B1B889A4297
:403800001FD9324B1B88324A1B01D3180C331A682D4B1B881B01D3181B8801339AB20823FB181A80294B1B88294A1B01D3180C331A68254B1B881B01D3185A880823FB1883
:403840005A800823FB181A88234B1B889A4215D90823FB181A88204B5B889A420ED80823FB185A881C4B1B889A4207D30823FB181A880823FB185B889A420CD9134B1B8820
:40388000134A1B01D31809331B789AB20E4B1B889A4200D96EE70C23FB180822BA1812681A600C23FA18002311880904090C1B0C1B040B43528812041B041B0C13431800FA
:4038C000BD4604B080BDC0466E1100206C1100201C0D00200C240020E823002080B584B000AF78600E23FB1800221A700F23FB1800221A70B9E00D23FB1800221A707B6892
:403900001B7D022B37D1664B1B88664A1B01D3180C331A68644B1B881B01D318D9680F23FB181A7813005B009B189B00CB181B7A022B20D15A4B1B885A4A1B01D3180C33F9
:403940001A68594B1B881B01D318D9680F23FB181A7813005B009B189B00CB1858687B6804331022190001F079FF031E03D10D23FB1801221A707B681B7D012B37D1484B0B
:403980001B88484A1B01D3180C331A68464B1B881B01D318D9680F23FB181A7813005B009B189B00CB181B7A012B20D13C4B1B883C4A1B01D3180C331A683B4B1B881B01A9
:4039C000D318D9680F23FB181A7813005B009B189B00CB1858687B6804330222190001F03DFF031E03D10D23FB1801221A700D23FB181B78012B31D1294B1B88294A1B0152
:403A0000D3180C331A68284B1B881B01D318D9680F23FB181A7813005B009B189B00CB181B88002B1AD11E4B1B881E4A1B01D3180C331A681C4B1B881B01D318D9680F238D
:403A4000FB181A7813005B009B189B00CB187A6852881A800E23FB1801221A700F23FB181A780F23FB1801321A700D4B1B880D4A1B01D3180C331A680B4B1B881B01D318C8
:403A80009B7A0F22BA1812789A4205D20E23FB181B78002B00D12EE7C046BD4604B080BD6C1100201C0D00206E11002080B500AF064B1B78002B04D100F00AF8034B01221F
:403AC0001A7000F03FF8C046BD4680BD7611002090B583B000AFFF2000F044F8B82000F05BF8012000F068F8012000F075F8FC1D01F0DBFA03002370104A104B1B78DBB262
:403B000001210B43DBB21370FB1D1B78180001F0D0FA0B4A0A4B1B78DBB202218B43DBB21370074A064B1B78DBB204218B43DBB21370C046BD4603B090BDC04693000F4006
:403B400073000F4080B500AF054A054B1B78DBB201210B43DBB21370C046BD4680BDC04673000F4080B582B000AF0200FB1D1A70FB1D1B78002B07D0054AFB1D1B7813706E
:403B8000044AFB1D1B781370C046BD4602B080BD43000F4003000F4080B582B000AF0200FB1D1A70034AFB1D1B781370C046BD4602B080BD13000F4080B582B000AF020006
:403BC000FB1D1A70034AFB1D1B781370C046BD4602B080BD23000F4080B582B000AF0200FB1D1A70034AFB1D1B781370C046BD4602B080BD33000F4080B582B000AF020077
:403C0000FB1D1A70064B064A126806491140FA1D127892040A431A60C046BD4602B080BD08020440FFFFE3FF80B582B000AF0200FB1D1A70064B064A126806491140FA1D77
:403C4000127892040A431A60C046BD4602B080BD08030440FFFFE3FF80B582B000AF0200FB1D1A70064B064A126806491140FA1D127852050A431A60C046BD4602B080BD0A
:403C800008030440FFFF1FFF80B500AF064B1B78002B04D100F00AF8034B01221A7000F03FF8C046BD4680BD7711002090B583B000AFFF2000F044F8B82000F05BF8012021
:403CC00000F068F8012000F075F8FC1D01F0EDF903002370104A104B1B78DBB201210B43DBB21370FB1D1B78180001F0E2F90B4A0A4B1B78DBB202218B43DBB21370074A70
:403D0000064B1B78DBB204218B43DBB21370C046BD4603B090BDC04692000F4072000F4080B500AF054A054B1B78DBB201210B43DBB21370C046BD4680BDC04672000F402E
:403D400080B582B000AF0200FB1D1A70FB1D1B78002B07D0054AFB1D1B781370044AFB1D1B781370C046BD4602B080BD42000F4002000F4080B582B000AF0200FB1D1A704F
:403D8000034AFB1D1B781370C046BD4602B080BD12000F4080B582B000AF0200FB1D1A70034AFB1D1B781370C046BD4602B080BD22000F4080B582B000AF0200FB1D1A70D7
:403DC000034AFB1D1B781370C046BD4602B080BD32000F4080B582B000AF786000F050F87B68180000F00AF8032000F015F800F03BF8C046BD4602B080BDC04680B582B014
:403E000000AF7860034B7A681A66C046BD4602B080BDC0460000002090B585B000AF0200FB1D1A700623FB600B23FC1801F03DF9030023700B4B0B4A1268C0218A431100F9
:403E4000FA1D1078FA68904002000A431A600B23FB181B78180001F02CF9C046BD4605B090BDC04608E400E080B500AF034B802252001A60C046BD4680BDC04600E100E01C
:403E800080B500AF034B802252001A60C046BD4680BDC04680E100E080B500AF034B802252001A60C046BD4680BDC04680E200E080B500AF00F04CF8C046BD4680BDC04643
:403EC00080B500AF064B064A1268802109060A431A6000F019F800F01DF8C046BD4680BD0000244080B500AF064B1B78002B04D1FFF7DEFF034B01221A70FFF7E1FFC0462A
:403F0000BD4680BD7811002080B500AFC046BD4680BDC04680B500AF00F07CF8C046BD4680BDC04680B582B000AF7860C046064B1B681F221340082BF9D0044B7A681A60D1
:403F4000C046BD4602B080BD080224404002244080B500AF1B4B1C4A1A601C4B00221A601B4B1C4A1A601C4B1C4A1A601C4B07221A601C4B00221A601B4B01221A601B4B05
:403F8000164A1A601A4B00221A601A4B04221A60194B00221A60194B00221A60184B00221A60184B00221A60174B00221A60174B00221A60154B1B689AB2154B1A80C046F8
:403FC000BD4680BD000024400B000002400024404800244001000A000003244007000080040324401003244044002440000224400402244050002440880E2440C80E244085
:40400000480F2440080F2440C80F2440880F24407A11002080B500AF074B074A126807490A40902109040A431A60054B054A12881A60C046BD4680BD00010240FFFF0FFF01
:40404000880F24407A11002080B584B000AF78600023FB6009E07A68FB68D3181B781800FFF760FFFB680133FB607A68FB68D3181B78002BEFD1C046BD4604B080BDC04673
:4040800080B582B000AF78607B681800FFF74AFF0D20FFF747FF0A20FFF744FFC046BD4602B080BD90B585B000AF78600C23FC1800F0FBFF030023707B68022B00D8AFE0D9
:4040C0007B68302B00D9ABE05C4B1B78DBB21A007B689A420AD35A4A0F23FB1812781A70584A0E23FB1812781A703FE0564B1B78DBB21A007B689A420AD3544A0F23FB1831
:4041000012781A70524A0E23FB1812781A702DE0504B1B78DBB21A007B689A420AD34E4A0F23FB1812781A704C4A0E23FB1812781A701BE04A4B1B78DBB21A007B689A4291
:404140000AD3484A0F23FB1812781A70464A0E23FB1812781A7009E0444A0F23FB1812781A70434A0E23FB1812781A707B68DA1E0B23FB183F498A5C1A700B23FB181B78F2
:404180002F2B0DD97B682A2B0AD93B4B19221A60052000F081FF0D23FB1819221A7007E0354B1B68DAB20D23FB183F210A401A700B23FA180D23FB1812781B789A4208D289
:4041C0002D4B7A68033A2B498A5C1A60052000F063FF2A4B7A6826498C4662441278D2B21A60274B0F22BA1812781A60254B0E22BA1812781A60052000F0C2F80B23FA1819
:404200000D23FB1812781B789A420CD91A4B7A68033A18498A5C1A60052000F03DFF02E0002000F07BF80C23FB181B78180000F040FFC046BD4605B090BDC04640F3FF0FF4
:4042400041F3FF0F42F3FF0F43F3FF0F44F3FF0F45F3FF0F46F3FF0F47F3FF0F48F3FF0F49F3FF0F4AF3FF0F4BF3FF0F4CF3FF0F4DF3FF0FACA501002CFF0B4028FF0B405C
:404280001CFF0B4020FF0B4080B584B000AF78600023FB60154B154A126801210A431A60134B144A1A60144B134A1268802109020A431A607B68002B12D01023FB600CE055
:4042C000012000F05DF800F019F8031E02D00023FB6005E07B68013B7B607B68002BEFD1FB681800BD4604B080BDC04660F02E4078002E400220000010002E4080B582B019
:4043000000AF054B1B68012213407B607B681800BD4602B080BDC0460C002E4080B582B000AF0200FB1D1A7001BEC046BD4602B080BDC04680B582B000AF786009E00D4B97
:404340001B68180000F0A8FE7B680B4A944663447B607A6880231B029A42F0D8074B1B687A685343180000F097FEC046BD4602B080BDC046380D00200080FFFF300D00200A
:4043800080B582B000AF0200BB1D1A80BB1D1B88044A12785343180000F07EFEC046BD4602B080BD340D002080B500AF0F4B0F4A126801218A431A600C4B0C4A12680221E9
:4043C0008A431A600A4B0A4A126830218A4310210A431A60064B064A126807218A4301210A431A60C046BD4680BDC04600F02E4000FF2E4080B500AF0F4B0F4A12680221F9
:404400008A431A600D4B0D4A126807218A4302210A431A60094B094A126830218A4320210A431A60044B044A126801210A431A60C046BD4680BDC04600F02E4000FF2E40CF
:4044400080B500AFFFF7B0FF044B044A1268802109060A431A60C046BD4680BD00F02E4080B584B000AF78600C4B1B6801221340FB607B68002B02D0012B03D005E0FFF72C
:4044800093FF06E0FFF7B6FF03E00020FFF746FFC046FB681800BD4604B080BD00F02E4090B583B000AFFC1D00F0FFFD03002370074B074A1268C02109020A431A60FB1D1E
:4044C0001B78180000F0F5FDC046BD4603B090BD00010B4080B500AF054B1A68C0231B02134001D0012300E000231800BD4680BD00010B4090B583B000AFFC1D00F0D5FD33
:40450000030023700D4B0D4A12680D490A408021C9010A431A60094B084A126808490A40802109020A431A60FB1D1B78180000F0C0FDC046BD4603B090BDC04600010B40F1
:40454000FF3FFFFF80B582B000AF78607B68022B02D90020FFF7E2FE064B1A687B68DB000133DA401300012213401800BD4602B080BDC04610020B4080B584B000AF78606B
:4045800039607B68022B02D90020FFF7C7FE7B681800FFF7D7FF031E16D10D4B1B687A68D200032191400A00D2431340FB603B6803221A407B68DB009A401300FA681343F7
:4045C000FB60034BFA681A60C046BD4604B080BD0C020B4080B584B000AF786039607B68002B02D07B68012B01D1012300E00023002B02D10020FFF791FE7B681800FFF7DE
:40460000A1FF031E16D10D4B1B687A68D2000232012191400A00D2431340FB607B68DB0002333A689A401300FA681343FB60034BFA681A60C046BD4604B080BD0C020B403D
:4046400080B582B000AF7860144B144A11687A680A431A607B680122134005D0C0460020FFF770FF031EFAD07A6880235B00134005D0C0460120FFF765FF031EFAD07A6873
:4046800080235B02134005D0C0460220FFF75AFF031EFAD0C046BD4602B080BD10020B4080B584B000AF786039607B68002B02D07B68012B01D1012300E00023002B02D1AC
:4046C0000020FFF72BFE174B1B689B0F9B0701D1C92300E05D231800FFF752FE124B1B68FB607B681B01114A9A401300DA43FB681340FB600C4B7A68120139689140FA68FE
:404700000A431A60074B1B689B0F9B0701D1432300E01F231800FFF733FEC046BD4604B080BDC0460C020B4008020B40FFFF000080B500AF034B1B68034A13401800BD46DC
:4047400080BDC04610020B400404040090B585B000AF78600B23FC1800F0A7FC03002370FFF7B8FE031E04D00123FB60FFF7C2FE01E00023FB607B680D4A13407B600D4B2C
:404780000C4A12680C4911407A680A431A60094B1B68FB68012B01D1FFF782FE0B23FB181B78180000F085FCC046BD4605B090BD0404040010020B40FBFBFBFF80B500AF87
:4047C000094B802292041A60084B0C221A60012000F098F8064B180000F066F8002000F053F8C046BD4680BDC0012040E40120409311000090B583B000AFFC1D00F055FC34
:4048000003002370094B094A126808210A431A60FB1D1B78180000F04CFC1821082000F053F8C046BD4603B090BDC0460000204080B500AF064B1B78002B04D1FFF7BEFF50
:40484000034B01221A70FFF7D5FFC046BD4680BD7C11002090B583B000AFFC1D00F025FC03002370074B074A126808218A431A60FB1D1B78180000F01CFCC046BD4603B085
:4048800090BDC0460000204080B582B000AF7860044B7A681204120C1A60C046BD4602B080BDC046C801204080B582B000AF7860044B7A681204120C1A60C046BD4602B0C9
:4048C00080BDC046D401204090B585B000AF786039600F23FC1800F0E8FB03002370084B79683A6891400A001A600F23FB181B78180000F0DEFBC046BD4605B090BDC04602
:404900000800204080B582B000AF7860034B7A681A60C046BD4602B080BDC046F801204080B582B000AF7860034B7A681A60C046BD4602B080BDC046F001204080B582B0D2
:4049400000AF786000F050F87B68180000F00AF8032000F015F800F03BF8C046BD4602B080BDC04680B582B000AF7860034B90217A685A50C046BD4602B080BD00000020B9
:4049800090B585B000AF0200FB1D1A700623FB600B23FC1800F089FB030023700B4B0B4A1268C0218A431100FA1D1078FA68904002000A431A600B23FB181B78180000F000
:4049C00078FBC046BD4605B090BDC04614E400E080B500AF034B802252031A60C046BD4680BDC04600E100E080B500AF034B802252031A60C046BD4680BDC04680E100E07B
:404A000080B582B000AF786000F04EF87B68180000F00AF8032000F015F800F039F8C046BD4602B080BDC04680B582B000AF7860034B8C217A685A50C046BD4602B080BDB9
:404A40000000002090B585B000AF0200FB1D1A701E23FB600B23FC1800F027FB030023700A4B0A4A126892009108FA1D1078FA68904002000A431A600B23FB181B781800EF
:404A800000F017FBC046BD4605B090BD10E400E080B500AF034B802212031A60C046BD4680BDC04600E100E080B500AF034B802212031A60C046BD4680BDC04680E100E0B5
:404AC00080B500AF094B802292041A60084B0C221A60012000F07EF8064B180000F04CF8002000F039F8C046BD4680BD80012040A4012040DB05000090B583B000AFFC1D20
:404B000000F0D3FA03002370094B094A126804210A431A60FB1D1B78180000F0CAFA1821042000F039F8C046BD4603B090BDC0460000204080B500AF064B1B78002B04D1E9
:404B4000FFF7BEFF034B01221A70FFF7D5FFC046BD4680BD7D11002080B582B000AF7860044B7A681204120C1A60C046BD4602B080BDC0468801204080B582B000AF786027
:404B8000044B7A681204120C1A60C046BD4602B080BDC0469401204090B585B000AF786039600F23FC1800F080FA03002370084B79683A6891400A001A600F23FB181B7840
:404BC000180000F076FAC046BD4605B090BDC0460800204080B582B000AF7860034B7A681A60C046BD4602B080BDC046B801204080B582B000AF7860034B7A681A60C04677
:404C0000BD4602B080BDC046B001204080B500AF094B802292041A60084B0C221A60012000F098F8064B180000F066F8002000F053F8C046BD4680BD400120406401204027
:404C40000F27000090B583B000AFFC1D00F02DFA03002370094B094A126802210A431A60FB1D1B78180000F024FA1821022000F053F8C046BD4603B090BDC0460000204030
:404C800080B500AF064B1B78002B04D1FFF7BEFF034B01221A70FFF7D5FFC046BD4680BD7E11002090B583B000AFFC1D00F0FDF903002370074B074A126802218A431A607C
:404CC000FB1D1B78180000F0F4F9C046BD4603B090BDC0460000204080B582B000AF7860044B7A681204120C1A60C046BD4602B080BDC0464801204080B582B000AF786043
:404D0000044B7A681204120C1A60C046BD4602B080BDC0465401204090B585B000AF786039600F23FC1800F0C0F903002370084B79683A6891400A001A600F23FB181B78BF
:404D4000180000F0B6F9C046BD4605B090BDC0460800204080B582B000AF7860034B7A681A60C046BD4602B080BDC0467801204080B582B000AF7860034B7A681A60C046F6
:404D8000BD4602B080BDC0467001204080B582B000AF786000F050F87B68180000F00AF8032000F015F800F03BF8C046BD4602B080BDC04680B582B000AF7860034B8821F1
:404DC0007A685A50C046BD4602B080BD0000002090B585B000AF0200FB1D1A701623FB600B23FC1800F061F9030023700A4B0A4A12680A491140FA1D1078FA6890400200F2
:404E00000A431A600B23FB181B78180000F051F9C046BD4605B090BD10E400E0FFFF3FFF80B500AF034B8022D2021A60C046BD4680BDC04600E100E080B500AF034B802267
:404E4000D2021A60C046BD4680BDC04680E100E080B500AF094B802292041A60084B0C221A60012000F098F8064B180000F066F8002000F053F8C046BD4680BD0001204018
:404E8000240120406F17000090B583B000AFFC1D00F00BF903002370094B094A126801210A431A60FB1D1B78180000F002F91821012000F053F8C046BD4603B090BDC046C1
:404EC0000000204080B500AF064B1B78002B04D1FFF7BEFF034B01221A70FFF7D5FFC046BD4680BD7F11002090B583B000AFFC1D00F0DBF803002370074B074A1268012144
:404F00008A431A60FB1D1B78180000F0D2F8C046BD4603B090BDC0460000204080B582B000AF7860044B7A681204120C1A60C046BD4602B080BDC0460801204080B582B0A3
:404F400000AF7860044B7A681204120C1A60C046BD4602B080BDC0461401204090B585B000AF786039600F23FC1800F09EF803002370084B79683A6891400A001A600F23FF
:404F8000FB181B78180000F094F8C046BD4605B090BDC0460800204080B582B000AF7860034B7A681A60C046BD4602B080BDC0463801204080B582B000AF7860034B7A68F1
:404FC0001A60C046BD4602B080BDC0463001204080B582B000AF786000F050F87B68180000F00AF8032000F015F800F03BF8C046BD4602B080BDC04680B582B000AF786066
:40500000034B84217A685A50C046BD4602B080BD0000002090B585B000AF0200FB1D1A700E23FB600B23FC1800F03FF8030023700A4B0A4A12680A491140FA1D1078FA68B9
:40504000904002000A431A600B23FB181B78180000F02FF8C046BD4605B090BD10E400E0FF3FFFFF80B500AF034B802292021A60C046BD4680BDC04600E100E080B500AFA6
:40508000034B802292021A60C046BD4680BDC04680E100E0000000000230800803D00138FDD1C046C046C0467047EFF3108072B6704780F31088704780B582B000AF786007
:4050C0000A00BB1C1A80BB1C1A887B681A60C046BD4602B080BDC04680B582B000AF78600A00BB1C1A80BB1C1A887B681A60C046BD4602B080BDC04680B584B000AF494B78
:405100001B78DBB21B02484A1278D2B21343FB60464B1B78DBB21B02454A1278D2B21343BB60BB68434A934207D1FB68072B04D1414BBB600423FB6009E0BA68D4231B01F7
:405140009A4204D1FB68042B01D13B4BBB603B4BBA681A603A4BFA681A603A4B1B78DBB21B02394A1278D2B21343FB60FA6880239B019A4202D0FB68002B01D1334BFB606A
:40518000334BFA681A60334B1B78DBB21B02324A1278D2B21343FB60FB68304A934206D0FB682F4A934202D0FB68052B01D12D4BFB602D4BFA681A602C4B1B681B097B600F
:4051C0002B4B1B68AA2B29D17B68012B26D9214B1B78DBB20E2B21D1264B1B78DBB29BB21B0299B2244B1B78DBB29AB2BB1C0A431A80224BBA1C12881A60214B1B78DBB260
:405200009BB21B0299B21F4B1B78DBB29AB23B000A431A801C4B3A0012881A60C046BD4604B080BD59F1FF0F58F1FF0F5FF1FF0F5EF1FF0F580B0000580D00006C002E4006
:4052400074002E405BF1FF0F5AF1FF0F0220000078002E405DF1FF0F5CF1FF0F0F0F000005050000050F000080002E40EC0F00F0E00F00F06DF2FF0F6CF2FF0F84002E401B
:405280006FF2FF0F6EF2FF0F94002E4080B582B000AF0200BB1D1A80BB1D1B881800FFF76FF8C046BD4602B080BDC04680B582B000AF78607B681800FFF73CF8C046BD467B
:4052C00002B080BD80B500AF00F0ECF8C046BD4680BDC04680B500AF00F0F0F8C046BD4680BDC04680B500AF00F0E8F8044B180000F0A2F8022000F0ADF8C046BD4680BD11
:405300000955000080B500AF034B180000F080F8C046BD4680BDC0460955000080B500AF014B1800BD4680BD0202000080B582B000AF78602B231800BD4602B080BDC046DB
:4053400080B582B000AF78602B231800BD4602B080BDC04680B582B000AF78602B231800BD4602B080BDC04680B582B000AF78602B231800BD4602B080BDC04680B582B0E2
:4053800000AF78602B231800BD4602B080BDC04680B582B000AF78602B231800BD4602B080BDC04680B582B000AF78602B231800BD4602B080BDC04680B582B000AF786082
:4053C0002B231800BD4602B080BDC04680B500AF2B231800BD4680BD80B582B000AF0200FB1D1A702B231800BD4602B080BDC04680B582B000AF786039602B231800BD46BD
:4054000002B080BD80B500AFC046BD4680BDC04680B582B000AF786000F050F87B68180000F00AF8022000F015F800F03BF8C046BD4602B080BDC04680B582B000AF78600C
:40544000034B7A681A67C046BD4602B080BDC0460000002090B585B000AF0200FB1D1A700623FB600B23FC18FFF71FFE030023700B4B0B4A1268C0218A431100FA1D10789E
:40548000FA68904002000A431A600B23FB181B781800FFF70EFEC046BD4605B090BDC0460CE400E080B500AF034B802252011A60C046BD4680BDC04600E100E080B500AF90
:4054C000034B802252011A60C046BD4680BDC04680E100E090B583B000AFFC1DFFF7E5FD03002370074B074A126804218A431A6030BFFB1D1B781800FFF7DBFDC046BD46A2
:4055000003B090BD10ED00E080B500AF14F086FAC046BD4680BDC046002243088B4274D303098B425FD3030A8B4244D3030B8B4228D3030C8B420DD3FF22090212BA030CC4
:405540008B4202D31212090265D0030B8B4219D300E0090AC30B8B4201D3CB03C01A5241830B8B4201D38B03C01A5241430B8B4201D34B03C01A5241030B8B4201D30B0330
:40558000C01A5241C30A8B4201D3CB02C01A5241830A8B4201D38B02C01A5241430A8B4201D34B02C01A5241030A8B4201D30B02C01A5241CDD2C3098B4201D3CB01C01A2C
:4055C000524183098B4201D38B01C01A524143098B4201D34B01C01A524103098B4201D30B01C01A5241C3088B4201D3CB00C01A524183088B4201D38B00C01A5241430813
:405600008B4201D34B00C01A5241411A00D20146524110467047FFE701B5002000F0F0F802BDC0460029F7D076E7704703460B437FD4002243088B4274D303098B425FD32A
:40564000030A8B4244D3030B8B4228D3030C8B420DD3FF22090212BA030C8B4202D31212090265D0030B8B4219D300E0090AC30B8B4201D3CB03C01A5241830B8B4201D307
:405680008B03C01A5241430B8B4201D34B03C01A5241030B8B4201D30B03C01A5241C30A8B4201D3CB02C01A5241830A8B4201D38B02C01A5241430A8B4201D34B02C01A36
:4056C0005241030A8B4201D30B02C01A5241CDD2C3098B4201D3CB01C01A524183098B4201D38B01C01A524143098B4201D34B01C01A524103098B4201D30B01C01A5241B8
:40570000C3088B4201D3CB00C01A524183088B4201D38B00C01A524143088B4201D34B00C01A5241411A00D201465241104670475DE0CA0F00D04942031000D3404253407D
:4057400000229C4603098B422DD3030A8B4212D3FC22890112BA030A8B420CD3890192118B4208D3890192118B4204D389013AD0921100E08909C3098B4201D3CB01C01AFE
:40578000524183098B4201D38B01C01A524143098B4201D34B01C01A524103098B4201D30B01C01A5241C3088B4201D3CB00C01A524183088B4201D38B00C01A5241D9D2F1
:4057C00043088B4201D34B00C01A5241411A00D20146634652415B10104601D34042002B00D54942704763465B1000D3404201B5002000F005F802BD0029F8D016E770476C
:405800007047C046014B18687047C046101100200E4B70B500251E000D4CE41AA410A54204D0AB00F35898470135F8E714F0F0FE084B00251E00084CE41AA410A54204D027
:40584000AB00F35898470135F8E770BD1CA601001CA601001CA6010024A6010030B50024A24208D0035D651C0C5DA34201D0181B02E02C00F4E7002030BD002310B59A424B
:4058800003D0CC5CC4540133F9E710BD03008218934202D019700133FAE770470EB410B59DB002A9029008610B48822488604861012040421FABC881084804CBA400006876
:4058C00001938C8100F06EF80023029A13701DB010BC08BC03B01847FFFFFF7F10110020F0B58E6885B007000C00039201939E4243D890238A89DB001A423ED00325096997
:40590000236801985B1A029363695D43EB0F5D19029B6D1001331B18AB4200D91D00530510D52900380000F037FB061E14D0029A2169FFF7A2FFA289194B1340802213439A
:40594000A38112E02A00380000F086FB061E0CD12169380000F0D4FA0C23402201203B60A38940421343A38117E0029B2661F61826606561019EED1AA560019BB34200D2C5
:405980001E0032000399206800F0A5FA0020A3689B1BA36023689E19266005B0F0BDC0467FFBFFFFF0B59FB0029005938B890F0016001B0610D50B69002B0DD1402100F02D
:4059C000EBFA38603861002804D10C23029A01381360D8E040237B61002306AD6B6120336B761033AB7634002378002B03D1A31B049312D003E0252BF9D00134F4E7A31B1D
:405A0000320039000298FFF76BFF431C00D1B4E06A69049B944663446B612378002B00D1ABE00122002352426A6002A95432521801342B60EB60AB601370AB65534E21783A
:405A40000522300000F03CFA002807D00123801B83402A68013413432B60EFE72B68DA0604D55322202102A8121811701A0704D553222B2102A81218117022782A2A03D082
:405A8000099B00200A210EE0059A111D12680591002A01DB099204E05242EA60022213432B6001340BE02278303A092A04D84B4301349B180120F6E7002800D009932378EE
:405AC0002E2B1ED163782A2B0AD1059B02341A1D1B680592002B01DA01235B42079310E000230A201A0001346B6021783039092904D84243013452180123F6E7002B00D044
:405B00000792234E21780322300000F0D9F9002806D04023801B83402A68013413432B60217806221B48661C297600F0C9F9002812D0194B002B06D10722059B0733934304
:405B40000833059314E005AB00933A00134B2900029800E000BF07E005AB00933A000F4B2900029800F08AF80390039B013304D06B69039A9B186B6135E7BB890B985B06A1
:405B800001D5012040421FB0F0BDC046DCA50100E2A50100E6A5010000000000E1580000F7B5170001938A680B6900900C00934200DA130022003B6043321278002A01D049
:405BC00001333B6023689B0602D53B6802333B60062523681D401ED0230043331B785A1E9341226892061CD53020E1184331087021005A1C45310978A2184332023311702C
:405C00000FE022000123193201990098089EB047431C0ED00135E3683A689B1A9D42F0DBDAE72200019943320098089DA847431C02D10120404220E006232068E1683A68C7
:405C400003400025042B03D18D1AEB43DB171D40A3682269934201DD9B1AED180027BD420AD0220001231A3201990098089EB047431CDED00137F2E70020FEBDF0B58BB058
:405C800006920A0043320793059004920A7E0C00109B6E2A00D1ABE011D8632A22D009D8002A00D1B5E0582A00D0C5E045310A70814A4FE0642A1DD0692A1BD0BCE0732AE9
:405CC00000D1AAE009D86F2A29D0702A00D0B3E0202209680A43226037E0752A1FD0782A33D0A9E00E001A684236111D196013683370A4E021681A68080606D4490604D518
:405D0000111D19600023D55E02E0111D19601568002D3BDA2D23049A6D42137036E021681A68080606D4490604D51568111D1960ADB202E0111D196015685F4B227E039364
:405D400008276F2A1DD00A271BE022007821453211705A4A19680392081D226818600D68100602D4500600D5ADB2D30702D520231A4322601027002D03D1202322689A430E
:405D800022602300002243331A7002E00A274A4B03936368A360002B09DB0422216891432160002D05D1049E002B11D07BE0002D79D0049E28003900FFF734FC039B013E75
:405DC0005B5C280033703900FFF7A6FB051EF1D1082F09D12368DB0706D563682269934202DC3023013E3370049B9B1B23612BE009681A68080607D4490605D5111D196045
:405E00001368A28A1A8004E0111D1960136862691A600023049E236116E01A68111D1960166800216268300000F04AF8002801D0801B6060636803E026004236327001233D
:405E400023610023049A1370079B09AA00932100069B0598FFF7A4FE431C02D10120404227E02369320006990598079DA847431CF4D0236800259B070FD4099BE0689842F4
:405E800017DA180015E022000123193206990598079EB047431CE1D00135E368099A9B1A9D42F0DBE9E72600039B42361B7833708EE70BB0F0BDC046EDA50100FEA501008C
:405EC000C9B28218904204D003788B4202D00130F8E70020704710B5884202D98B18984201D3002305E09B1A013A08D3995C8154FAE7934203D0CC5CC4540133F9E710BDE4
:405F000070B50500002944D00C1F2368002B00DAE418280000F0D8F81E4A13681100002B02D16360146031E0A3420DD92268A018834203D118685B688218226063600C60ED
:405F400024E0A24203D813005A68002AF9D11E689819A0420BD12168711858181960824214D110685268411819605A600EE0A04202D90C232B6009E021686018824203D157
:405F8000106852684118216062605C60280000F09CF870BD54230020032370B5CD1C9D43083506000C2D01D20C2501E0002D01DBA94202D90C23336048E0300000F084F81D
:405FC000234B1C681A002100002913D00B685B1B0DD40B2B02D90B60CC181EE08C4202D1636813601AE04B6863600C0016E00C004968E9E7174C2368002B03D1300000F055
:4060000051F820602900300000F04CF8431C18D00323C41C9C43A0420DD12560300000F054F8200007220B30231D9043C31A0ED05A42E2500BE0211A300000F033F8431C3D
:40604000EBD10C233000336000F03FF8002070BD5423002050230020F8B506000C001500002904D11100FFF797FF040018E0002A03D1FFF745FF2C0012E000F027F885423D
:406080000ED929003000FFF787FF071E07D021002A00FFF7F2FB21003000FFF731FF3C002000F8BD002370B5064C050008002360FBF750FA431C03D12368002B00D02B60C8
:4060C00070BDC04610240020704770470B1F1A68101F002A04DA891804390B68D018043870470000134A1088810703D08107890F401A001D11791030484381B250888207CC
:4061000003D08207920F801A001D800040180A494030098980B2CA0701D0503080B2890706D504495422091F09785143081880B270470000460D00208C11002010B501F09E
:4061400011FF10BD10B501F013FF10BD10B500F05BFA10BD10B50749044609780220002907D1204601F054FF002802D120460CF003F910BDF20E002070B504460120002C27
:4061800012D02368002B0FD0616800290CD0074D06222889208118462968FFF76EFB6968606809780170002070BD00008C110020FFB585B0002768460E9D07734F481C460D
:4061C0000078002802D0082009B0F0BD10990F9801900095029105A807C800F007F90028F2D16946264603AB84460873002C19D0002115E08A00B75A082F09D990198078B1
:40620000002805D0083FB7521878401C187005E0002914D00027B75290198770491CC9B2A942E7D360460028CED10F98002809D0109901F047FA002804D00120C4E701207D
:406240008446EFE701F094FE2D480021416081600599016021888180022D07D3A1798171A17AC171A1890181218A418100211EE0481C19E082008B00A75AE65ABE46BE42F1
:4062800011D26F463E80B4461E190296B678BE7001967646E6521719029EBB78B3706646A652019EBE70401CA842E3D3491CA942DED3134822460C3000906846037B0799E9
:4062C000069800F01BF90028B8D168460B4C007B60700B480C3001F07BFE0028AED1084907480C3108F090FF0028A7D108F0AAFF0028A3D10121217066E70000400D0020AD
:4063000080110020F8B5054636480F460078002802D002242046F8BD002F60D000243249002D16D02A89D0070DD02868002808D003881B3BE12B04D24088FB2801D81B285C
:4063400001D2012409E0900707D56868002804D1F7E70020088108604860002CDAD122482E8906811F481B21801D01804180042101711C490020891C0870F00705D01948FE
:406380000622801D2968FFF778FA1749B00703D56A68144812788270124D0E46AD1D281F0D60486001F05AFE284601F049FE30890FF094FF30890FF02FF828880FF032F8BB
:4063C000308910F00BF903461033FFF78BFE1F21C018890140183880A91F88809AE7012498E70000400D00208C110020FFB58446384F1C460020BB883F78054602460646A4
:40640000002F11D100290ED0029999420BD36146002908D0002C06D00A99002906D02E4B0B99994202D2012004B0F0BD002144E0AB001F19BF78002F3BD0E35A002B38D04D
:406440007B43591889B22B0000F04AF8050410161C253100A7782388BC46FF27233BEB37BB4222D26346032B1FD322E0A388002B1FD0302B19D31CE02389002B19D0282BEB
:4064800013D316E0A289002A13D01346134F233BBB420AD20DE0268A002A0AD033460F4F233BBB4201D2964203D901200EE0002001E000280AD16D1CEDB2099B9D42B7D334
:4064C0001C2463435B1802998B42ACD89642AAD8AAE70000400D002079020000BAFF000030B47446641E2578641CAB4200D21D46635D5B00E31830BC18470000FFB583B024
:40650000002469460C801F4606468C80002806D00598002803D004983043800701D0012466E0002FFBD03449049809888842F6D3FEF7E8FEFEF7CEFE00F016FC002855D1B4
:4065400000F07EFD002851D12C49084601F0EEF805042D0C4AD12A480499066081800021C18007810C98007AC00704D0684601F018FD040007D10C98007A800703D501A8A0
:4065800001F018FD0446BF1DFEB2002C20D13146059800F05DF804001AD110F02DF8040016D16A461088928808368518144AF1B29088D288AEB29319984207D3401B801A25
:4065C00080B201F0A3FB050007D000E0FF25012400F062FA002D04D008E0F8B200F01CF9F6E700F085FA07490120087000F0CEFB204607B0F0BD0000440D00203D67000024
:40660000981100204C0D002010B503480078012801D101F01DFA10BD4C0D002070B5084B0446DA889E8803205518B54206D8186880182060D8884018D880002070BD0000A3
:4066400098110020014800897047000098110020F0B587B007460D4600208900009006916846FFF7DBFF844600285DD1304800990160002117E02E4B88001A680629115474
:4066800006D22C4C0419667882185670628805E0C419203CA67A8218567022891B68C018491C4280C9B2A942E5D300242DE0601CC2B2059025E01E4FA300396896005818EA
:4066C00040887118039604904E88B04217D938466F46FE80B6464F786E4677710297049F4F800168039F5E18767879184E700168764659184E800068029F18184770521CC9
:40670000D2B2AA42D7D30598C4B2AC42CFD36046002809D168460699FFF780FF8446002802D1054900980860604607B0F0BD0000500D002048A60100540D00207047000071
:4067400010B5002809D005494A68002A05D0011F08788000105801F087FA10BD500D002010B50446FFF76EFFC0B2801DA0420CD307484068002808D0A100405801F0E6F9CE
:40678000002801D00470001D10BD002010BD0000500D0020F8B516460D460446FFF752FFC0B2801DA04203D20020C0430090F8BDB2B2E9B2684601F0EFF90099481C03D0A7
:4067C000024AA000526811500098F8BD500D0020F8B50746FFF736FF801DC6B20A49002005460C680DE06178002907D06188B94202D32078FFF7B4FF002804D1241D6D1CD5
:40680000EDB2B542EFD3F8BD500D002010B5002801D0FFF795FF10BD70B506460948002504680BE06178002905D062882078121D0023FFF7AFFF241D6D1CEDB2B542F1D308
:4068400070BD0000500D0020FFB581B00A9F16000C4620D000F0F6F8054604281BD0002F0CD03846FFF7B4FF20492A0151184860002810D03A460499FEF7FFFF1B492801CC
:406880000E504618778101980570200406D47D20C000444304E0FF2005B0F0BD6404640C00F0BEF80746042807D000F053FAA0420BD800F04FFA201A03E0204600F0AEFAAB
:4068C0000020F06035720020E6E700F043FA009000F0BAFA00980121001B009000F0F0F802493A0151180098C860E6E7A4110020F8B5042801D3FF20F8BD06011648341873
:40690000217A042903D0E068002802D017E00020F8BD00F01FFA054600F096FA00F0A0F804280CD001010C480F18F8680021451900F0C6F80020F860284600F06FFA606839
:40694000054D002801D0FFF761FF042020720020A8516081E060DAE7A4110020FEB500266A46304601232549050169180D7A042D02D0C96800291BD000211154401CC0B2B5
:406980000428F0D300246846005D002830D01B48210108184189476805680291002101604160042241810272C160002E02D015E01354E3E700F054F804280ED001010F480E
:4069C00008180190C6680021304600F079F801980021C160304600F021FA0126002D07D038460299A847002F02D03846FFF70EFF641CE4B2042CC6D3FEBD0000A411002040
:406A00000EB5002005216A4600901181508103486946006810F087FC0EBD0000580D0020074A0020010189180B7A042B02D0C968002903D0401CC0B20428F3D37047000037
:406A4000A41100200549002002015218127A042A03D0401CC0B20428F6D37047A411002030B50A4B04200A4C00210A011219157A042D06D0D268002A03D09A4201D80846AF
:406A80001346491CC9B20429EFD330BDFFFF0000A41100207047000030B50020074C05460423020111190B72A5504D60401C4D81C0B2CD600428F4D330BD0000A4110020A3
:406AC00030B5094C00231A011219157A042D04D0D568002906D02D18D5605B1CDBB2042BF1D330BD2D1AF7E7A4110020002070471CB5002469460C70142001902346054A57
:406B0000054810F015FC04480068401C00D1FF2420461CBD6D6B0000580D00203EB5124A0146FF2000230124126800290DD0012914D0042908D104206946009308814B810B
:406B4000104610F0F0FB80B23EBD68460093048143816946104610F0E1FBF4E768460093048143816946EBE7580D002070B545890468416800890300FFF7B2FC082805095B
:406B8000091E22282628002007F04EF81EE0022908D0C8B22A4621460EF092FB2046FFF735FE13E002202A4621460EF089FB2946204600F00DF809E0002010F0B3F805E07C
:406BC0002046FFF7CBFE01E0FEF71CFC002070BD014B0022DB6818475C0D002070B5448905680089022803D0032809D0FF2070BD2246094C0023A46829460120A04708E01C
:406C0000FFF7A0FA241DA2B200232946022008F0AEF9002070BD00005C0D0020704700000248002141600180418070475C0D002070B50C46002186B016460391012802D008
:406C4000022859D116E003A9012008F0E5F901281BD1039D324621462846FEF70EFE0095287801900220694608814E816846FFF7B5FF41E0214D002B686809D0049004A939
:406C8000022008F0C9F901281DD0022006B070BD002812D0298840182146FEF7EEFD28880024801980B228806988091D884206D12C801348FFF792FF03E00320E6E7884259
:406CC0001AD96C6018E004986860E278A378110219430B4A698000231060E3565360032313815181A1788170E178C1706178417021780170042028800020C7E75C0D002001
:406D0000E41100203EB515460C46022803D004280CD000203EBD0091019002206946088107484A81006810F0FEFA07E00EF0C8FA044B0022DB6829462046984701203EBD5D
:406D4000580D00205C0D0020014AD160906070475C0D0020034801688068081A0A21484300097047F011002010B5FEF7BBFA4C2204490548FEF781FD03490120C870002055
:406D800010BD000064A60100F415002010B5FEF799FA10BD70B5134C2368002B08D0207B1149C20705D04008400020738868A08070BD88680B4AA18880B29268814203D982
:406DC0000A4D691A091802E0814202D2411A5118A160A080A0689842EAD310F0C1FA00F013F870BDF0110020C0102E40FFFF000010B508461946FFF7A7FF10BD704710B504
:406E0000FFF780FF10BD000003480021016041608160C16070470000F0110020024610B5FF20002A0CD0FFF7EFFF064C0321207B0843207310010A21FEF7F4FB2060002003
:406E400010BD0000F011002000B504480A21806848430209FFF7D8FF104600BDF01100200248007B8007C00F70470000F011002010B54B490868002802DA4A4B01221A7077
:406E8000022290430860484800694549C00B4031096A0246C907C90F0A4259D0012000F097FA3F480E216C30FEF716F93E4820218430FEF711F93C4814219C30FEF70CF9E7
:406EC0003948FF21C131A430FEF706F93648FF212F31B030FEF700F933483449BC30FEF7FBF831483249AC30FEF7F6F830492E48491CB430FEF7F0F82B482E49B830FEF710
:406F0000EBF829482C49CC30FEF7E6F826482B490830FEF7E1F824482949A830FEF7DCF8214828498830FEF7D7F81F4826498C30FEF7D2F81C481921C9029030FEF7CCF8C9
:406F4000FEF7DAF8FEF7EAF9C0B2022812D01FE000290BD0002101420AD0114801216030FEF7BAF80120FEF7A1F997E70121F2E7FF2010BD15491648FEF7AEF814481549DB
:406F8000001DFEF7A9F8124800210830FEF7A4F854200449C043891C0870002010BD000000F02E406C0D002000002E40320300002F3F00003102000010520000EC1600006D
:406FC000FA12000031D000003AE300009956000080012E40F80F000070B50646581C80B245086D00002408E0304600F0C1F81055000A1119A41C4870A4B2AC42F4D3D8078B
:4070000005D0D0182038D15CC47FD454C17770BD30B50A4C002100195B1E07E0541864782502545C2C430480891C89B29942F5DB994201D1515C018030BD000000102E4086
:4070400010B5FF2000F0C4F90F49FF2048700E481021801D41800121417001700A490020C91C4870FFF704FF04000AD100F010F907210648FEF720F8044807211830FEF712
:407080001BF8204610BD00006C0D0020CC112E4070B5002405465B1E0AE0284600F068F8010A161971702D1D1055A41CADB2A4B29C42F2DB9C4203D1284600F059F8105541
:4070C00070BD000070B500210A4D5B1E0AE0541864782602545C344346193480001D891C80B289B29942F2DB994202D1515C4019018070BD00102E40F0B50599091FCFB216
:4071000000217E1E0BE0541864782502545C2C43164D45192C80001D891C80B289B2B142F1DBFC0712D01C78515C24020F4A0C4381180C809C785D78001D210280B22943DE
:4071400084182180001D80B2D9780CE059781A7809021143054A84182180001DD9789B78090280B2194380180180F0BD00102E40014940180088704700102E4010B50B4922
:407180000020487000F084F8002000F047F9002000F034F907210648FDF78EFF044807211830FDF789FF002010BD00006F0D0020CC112E4010B50B46062812D006DC0128CA
:4071C0000CD0032801D1FFF7D9FF10BD0A28FCD00B28FAD105480078107010BDFFF730FF10BD1146184600F035F910BD720D0020F8B5244DAC6A0127A007234E002816DA50
:40720000307806280ED1286A384328621F480069F903084381B21D481030FDF75DFF042000F0D6F8174802212830FDF745FFE00718D000F01FFF01280FD1002000F06CFF6E
