:400000000080002011000000091700000917000080B500AF01F0AAFB80B500AF3C4B12221A6004F0F1FA3B4B180005F0D9F9012004F0FAFA182004F019F9374B374A1A6034
:40004000374B8022D2051A60364B364A126802210A431A60344B354A1A60354B00221A60344B344A126808218A431A60FA23DB00180004F0EDF9304B180004F065FA2F4BE1
:40008000EF2212021A602E4B2E4A1A602E4B2F4A1A602B4B2E4A1A602E4B2C4A1A60284B2D4A1A602D4B294A1A60254B2C4A1A602C4B264A1A60224B2B4A1A602B4B8822F3
:4000C00092011A601E4B2A4A1A602A4B802212061A60294B00221A60284B41221A60284B43221A60274B45221A60274B42221A60264B44221A60264B40221A60084B80220B
:40010000D2051A60024B11221A60C046BD4680BD30001040001BB70004010B40060000800C020B4078002E407C002E402D3E000064F02E406CF02E40DC05000004030140BD
:400140000000014041FF00800C03014000BF5D0043FF00801403014045FF00800803014042FF00801003014044FF00800003014040FF008008010B4000010B402C010140FF
:400180002801014024010140200101401C0101400401014080B582B000AF72B64B4B00221A60FB1D00221A7022E0FB1D1A7813005B009B185B00464A9B183B603B681A78FA
:4001C000597809020A43997809040A43DB781B06134318003B681A795B791B0213439BB2190001F02BFAFB1D1A78FB1D01321A70FB1D1B78012BD8D9364A374B110018005E
:4002000001F02CFA354BEE2212061A60344B992212041A60334BC02292041A60324BCC2292051A60314B992212041A60304B992212041A602F4B992212041A602E4B802262
:4002400092051A602D4B992212041A602C4BD02252051A602B4A2B4B1B78DBB23C218B43DBB214210B43DBB21370274A264B1B78DBB216210B43DBB21370244BD822120404
:400280001A60234B20221A60224BC42292021A60214B20221A60214BC0221A60204B8822D2031A601F4B802212021A601E4BC0221A601E4B902292031A60FFF7ADFE01F0CA
:4002C0000FFAC046BD4602B080BDC0466CF02E40E8AD010008AE0100F4AD01000000024000010240000202400003024000500F4010500F4020500F4028500F4030500F408D
:4003000038500F4001700F4000700F400800044000010440080104401801044000020440080204400C020440000304400803044010B5064C2378002B07D1054B002B02D0AE
:40034000044800E000BF0123237010BD2011002000000000ACA30100084B10B5002B03D00749084800E000BF07480368002B00D110BD064B002BFBD09847F9E7000000008F
:4003800024110020ACA30100A80B00200000000080B500AF00F012F8074B180003F038FF202003F051FF06F085FB00F017FF01F00DF801F04FF8F6E7B0A30100B0B500AFE1
:4003C00062B6484B180001F0BFFA474B180004F0A9FF04F093FC454B180004F0F5FB444B1B685A00434B1A60424B1B68180005F05DFE0022404B05F0A9FB03000C001800E2
:40040000210005F01DFE02003C4B1A603C4B180004F0BAFD3B4B180004F074FB3A4B1B68002B05D104F04CFE384B180004F0CEFE03F020FC03F00CFDFF2003F0A1FCFF20C2
:4004400003F0AEFCFF2003F089FD062003F0B8FC062003F0CDFC062003F0E2FC2C4B180000F0C0FA2B4B9B682B4A1000190020231A0005F0B6FE274B9B68DB7F1C2B15D848
:40048000244B9B68DB7F1A00234B01219954214B9B68DB7F0133214A11781F4AD1541D4B9B68DB7F0233DAB21B4BDA77194B1A4A9A60802003F074FC142004F01FF8FF20FA
:4004C00003F06EFC03F0F2FD154B180003F0A0FE144B180003F09CFE202003F0B5FEC046BD46B0BD650A00008D050000C9060000C80B002094230020000004405C230020D7
:400500002506000009070000C00B00204D070000CC0C0000440C00209C230020D40B0020C0A30100CCA3010080B500AF134B1B689A00134BD318180001F018F800F046FF51
:4005400000F088FF0D4B1B685A1C0C4B1A600B4B1B68042B02D1094B00221A60094B00221A70094B01221A6004F058FA002004F06FFA04F041FAC046BD4680BD401100207D
:40058000AC0B0020D00B0020CC0B002080B500AF1F4B180003F03CFE04F09EFE03001A001C491D4B180005F02DFE1B4B180003F02FFE04F091FE0300DB43DBB2180004F052
:4005C00067FE164B1B68FF2B03D1144B00221A6018E0124B1B68002B14D104F0A1FB04F081FD0E4BFF221A600D4B01221A7000F0F5FDFF2003F0C4FBFF2003F0D1FBFF2026
:4006000003F0ACFC04F076FEC046BD4680BDC0461CA4010050A4010060230020C00B00204411002080B500AF022004F09FFC1D4B180003F0EDFD1C4B1A681C491C4B1800F3
:4006400005F0E0FD1A4B180003F0E2FD194B0421180000F0A3F8184B180003F04FFF174B1B685A1C104B1B689A420FD10E4B00221A6004F015FC04F023FD114B180004F006
:40068000A5FD104B01221A7000F0A8FD0B4B1B685A1C0A4B1A60012004F068FCC046BD4680BDC04670A40100C00B0020C4A4010060230020BC0B0020881300003C1100201D
:4006C0004D0700004411002080B500AF0C4B1B68002B0CD10B4B1B78002B08D0FFF724FF04F000FD002004F017FD04F0E9FC022004F07CFB012004F079FBC046BD4680BD18
:40070000C00B0020D00B002080B500AF0B4B01221A700B4B1A680B490B4B180005F072FD094B180003F074FD012004F0DDF9022004F0DAF9C046BD4680BDC046D00B002003
:40074000C00B002004A501006023002080B500AF0F4B1B68002B11D10E4B1B78002B0DD00D4B1B685A1E0C4B1A600B4B1B68013302D1094B03221A60FFF7D6FE022004F0A8
:4007800017FD012004F014FDC046BD4680BDC046C00B0020D00B00204011002080B584B000AF78600A00FB1C1A70FB1C1B78042B50D17B681B781A007B6803331B785343F5
:4007C000FF21180005F0D6F803001A000F23FB181A707B6801331B781A007B6803331B785343FF21180005F0C5F803001A000E23FB181A707B6802331B781A007B68033359
:400800001B785343FF21180005F0B4F803001A000D23FB181A700F23FB181B78DB43DBB2180003F0ADFA0E23FB181B78DB43DBB2180003F0B5FA0D23FB181B78DB43DBB2DA
:40084000180003F08BFB054B180003F0E1FC202003F0FAFCC046BD4604B080BD3CA5010080B582B000AF0200FB1D1A70FB1D1B78062B27D89A00184BD3181B689F46174B63
:40088000180003F0C5FC22E0154B180003F0C0FC1DE0144B180003F0BBFC18E0124B180003F0B6FC13E0114B180003F0B1FC0EE00F4B180003F0ACFC09E00E4B180003F0C4
:4008C000A7FC04E00C4B180003F0A2FCC046C046BD4602B080BDC04674A601004CA5010070A5010098A50100BCA50100E4A5010008A6010030A6010058A6010090B585B021
:4009000000AF0200FB1D1A70FB1D1B780A21180005F02CF80B00DAB20C23FB181A70FC1DFB1D1B780A21180004F09AFF03002370FB1D1B780A21180005F018F80B00DAB246
:400940000C23FB185A70FC1DFB1D1B780A21180004F086FF03002370FB1D1B780A21180005F004F80B00DAB20C23FB189A700C23FB189B78002B1BD10C23FB185B78002BE7
:4009800007D10C23FB181B783033180003F0AEFB23E00C23FB185B783033180003F0A6FB0C23FB181B783033180003F09FFB14E00C23FB189B783033180003F097FB0C23F7
:4009C000FB185B783033180003F090FB0C23FB181B783033180003F089FBC046BD4605B090BDC04680B582B000AF786003F066FE0121002003F0A4FE0121002003F0CEFE23
:400A00007B681900002003F02FFF5A2003F09CFD012003F0F9FE03F027FE044B180003F0BDFAC046BD4602B080BDC046310A000080B500AF03F014FB03F05EFF02000423A7
:400A4000134009D0042003F065FF054B1B889BB201339AB2024B1A80C046BD4680BDC0469823002090B599B000AF786039607B682B2B5AD00FD8262B2BD005D8012B1DD0C7
:400A8000202B00D12CE16BE3272B00D180E2282B00D110E364E34C2B64D004D8412B51D0422B57D05CE34E2B00D1E5E000D2DDE289225200934200D145E351E3C64B18002D
:400AC00003F0A6FB202003F0BFFB002000F0D4FF46E3C24B180003F09BFBC14B1B781800FFF7BEFE202003F0AFFBBD4B1B78062B00D02AE3BB4B1B78002B00D025E3002010
:400B000000F0BAFF5C23FB181B88002B00D01CE3B54B180003F07CFBB14B1B781800FFF79FFE202003F090FB0FE3B04B180003F06FFBAB4B1B781800FFF792FE202003F0A7
:400B400083FB0DE3AA4B180003F062FB202003F07BFB05E3A74B180003F05AFB202003F073FBFDE24C23FB183A6813CA13C312681A604C23FB189B890E2B6ED14C23FB18DC
:400B80001B89052B60D19C4B180003F041FB202003F05AFB4C23FB185B681A78974B1A704C23FB185B685A78944B5A704C23FB185B689A78914B9A704C23FB185B68DA78A3
:400BC0008E4BDA704C23FB185B6804331B781A008B4B1A608B4B00221A60894B1A688A498A4B180005F00EFB884B180003F010FB00F00CFD814B04211800FFF7CFFD844A58
:400C00004C23FB18181D0023002114F0A3FD814B1B780133DAB27F4B1A707F4B180003F0F7FA7C4B1B781800FFF768FE202003F00BFB6C4B01221A70784B180003F0E8FAC1
:400C4000202003F001FB08E04C23FB189B890D221900122000F056FC82E26D4B1A785B781B021A4300231204120C1B0C1B041343180013F067FB73E21C23FB183A6813CA6A
:400C800013C312681A601C23FB189B89112B00D05DE21C23FB181B89012B00D057E21C23FB185B681A785B4B1A705A4B1B78013BDAB2584B1A70564A1C23FB18181D002330
:400CC000002114F047FD564B180003F0A1FA514B1B781800FFF712FE202003F0B5FA36E2504B180003F094FA3D4B1B78022B00D12FE22C23FB183A6813CA13C303CA03C355
:400D0000494B180003F084FA202003F09DFA474B180003F07DFA2C23FB181B78002B00D0B0E0434B180003F073FA2C23FB181A7A404BDB7F9A4200D0A4E03F4B180003F092
:400D400067FA2C23FB18DA682C23FB181B7A023BD3181B78012B00D094E0384B180003F057FA2C23FB18DA682C23FB181B7A013BD3181A78274B1B789A420ED12C23FB18F7
:400D8000DA682C23FB181B7A013BD3181B78FF2B60D1204B1B78002B5CD1294B180003F037FA284B01221A702C23FB185B68264A1000190006231A0005F013FA2C23FB185A
:400DC0005A78224B1A70224B180003F021FA202003F03AFA56E0C04694A60100A8A60100F223002044110020D4A60100ECA601000CA7010028A7010048A70100CC2300202F
:400E0000C00B00203C11002068A701006023002004240020D40B0020A4A70100E4A70100FCA7010034A8010088A80100B0A8010014A901009C23002070A90100E0A901003C
:400E400048AA010045110020C42300204611002090AA0100C44B00221A70C44B00221A70C34B00221A70C24B00225A70C04B00229A70BF4B0022DA70BD4B00221A71BC4BBE
:400E800000225A71BB4B180003F0C2F92C23FB181B78042B00D05CE1B74B180003F0B8F92C23FB181B7A142B00D052E1B34B180003F0AEF9AC4B1B78002B00D149E1B04BF6
:400EC000180003F0A5F92C23FB185B68A8490622180005F077F9031E00D03AE12C23FB185A78A24B1B789A4200D032E1A54B180003F08EF92C23FB18D8682C23FB181B7AF4
:400F00001A00A14B190005F05DF9031E00D020E19E4B180003F07CF9202003F095F900F0ABFE9B4B180003F073F9202003F08CF92C23FB185A78974B9A712C23FB185B6837
:400F40001A78944B1A702C23FB185B685A78914B5A702C23FB185B689A788E4B9A702C23FB185B68DA788B4BDA702C23FB185B681A79884B1A712C23FB185B685A79854B4A
:400F80005A71854B01221A70774B00221A70E0E0824B1B78022B00D0DDE0814B01221A70804B180003F034F97F4B1B781800FFF757FC202003F048F94023FB1811221A81AF
:400FC0004023FB18794A1A604023FB1801229A804023F918764B1A785B781B021A4300231204120C1B0C1B041343180012F070FE0823FA186F4B1000190004231A0005F0A6
:40100000F0F86D4B1B68002B08D16C4B1A68511C6A4B19605F23FB181A7003E05F23FB18FF221A700823FB185F22BA1812781A711023FB180E221A811023FB180822BA187A
:401040001A601023FB1805229A801023F918584B1A785B781B021A4300231204120C1B0C1B041343180012F029FE74E0544B180003F0CEF84C4B1B781800FFF7F1FB20204D
:4010800003F0E2F84A4B1B78002B66D0484B1B78180011F077FB4B4B01221A704A4B180003F0B6F8404B1B781800FFF7D9FB202003F0CAF851E03A4B00221A70434B18009B
:4010C00003F0A6F8384B1B781800FFF7C9FB202003F0BAF8314B1B78012B17D13C4B1B78012B13D0304B1B78062B2BD1002000F0C3FC384B180003F08BF82B4B1B7818000A
:40110000FFF7AEFB202003F09FF81BE0234B1B78022B24D12E4B1B78012B20D0224B1B78062B1CD1002000F055FD2B4B180003F06FF81D4B1B781800FFF792FB202003F0CF
:4011400083F80CE00BE0C0460AE0C04608E0C04606E0C04604E0C04602E0C04600E0C046BD4619B090BDC0464511002046110020C4230020A8AA0100D8AA010004AB0100FC
:4011800024AB010040AB0100D80B00206CAB01007CAB0100BC23002047110020EC0B00204811002090AB0100F2230020D40B002004240020CC230020C00B0020CC0B002080
:4011C000B8AB010049110020D4AB010000AC010044110020D4A6010024AC010090B583B000AF684B1B78012B00D0C6E005F062FC654B1B78002B12D0634B1B78180011F017
:40120000C1FA05F057FC614B180003F001F8604B1B781800FFF724FB202003F015F85D4B1B78012B02D0022B4CD0A6E0584B1B78032B0FD100F08AFC05F03CFC564B1800A8
:4012400002F0E6FF524B1B781800FFF709FB202002F0FAFF4E4B1B78062B30D1BC1D002000F0B8FC03002380BB1D1B88002B17D14A4B180002F0CCFF454B1B781800FFF760
:40128000EFFA202002F0E0FF454B1B889AB2454B1A80404B02221A703A4B00221A700EE03C4B01221A70404B180002F0B1FF384B1B781800FFF7D4FA202002F0C5FF05F0DD
:4012C000F9FB5AE0324B1B78042B0AD100F0D4FC05F0F0FB354B180002F09AFF202002F0B3FF2B4B1B78062B44D1314BDB7F013B304A11782E4AD1542F4B2D4A9A602F4B99
:40130000180002F085FF2B4B1B781800FFF7F6FA202002F099FFBC1D002000F0ADFB03002380BB1D1B88002B15D11A4B01221A70234B00221A70134B00221A70214B1800D1
:4013400002F066FF124B1B781800FFF789FA202002F07AFF0EE00F4B02221A701A4B180002F056FF0A4B1B781800FFF779FA202002F06AFF05F09EFBC046C046BD4603B0DC
:4013800090BDC046441100200424002038AC0100F2230020EC0B002058AC01007CAC0100982300204A11002094AC0100ACAC01009C230020D40B0020440C0020C4AC01000F
:4013C00047110020D8AC0100F8AC010090B583B000AF1B4B1B78002B2ED005F06BFB194B1B78062B28D1164B00221A70BC1D164B180000F053FC03002380BB1D1B88002B9C
:401400000CD0124B180002F003FF0E4B1B781800FFF726FA202002F017FF0BE00C4B180002F0F6FE074B1B781800FFF719FA202002F00AFF05F03EFBC046BD4603B090BD4D
:4014400047110020F2230020BC23002020AD010038AD010080B500AF214B1B78022B1CD1204B1B889BB21A001F4B1B889BB2D31A2D2B12DD1D4B1B78062B03D01B4B1B7814
:40148000042B0AD11A4B01221A701A4B180002F0BFFE202002F0D8FE1FE0174B1B78002B1BD005F007FB114B1B78062B15D1124B00221A70114B180002F0AAFE202002F08C
:4014C000C3FE002000F086FB05F0F4FA0C4B180002F09EFE202002F0B7FEBD4680BDC046EC0B0020982300204A110020F22300204411002050AD01004911002078AD0100D8
:4015000090AD010090B585B000AF040008001100FB1D221C1A703B1D021C1A80BB1D0A1C1A700C23FB18FA1D12789A700C23FB183A1D12881A800C23FB18BA1D1278DA7008
:401540000C23F918084B1A785B781B021A4300231204120C1B0C1B041343180012F07AFEC046BD4605B090BD0424002080B586B000AF78607B681A781F4B1A707B685A7811
:401580001D4B9A707B689A781B4B5A707B68DA78194BDA70184B04211800FFF7FFF80C23FB180E221A810C23FB187A681A600C23FB1804229A80114A0C23F8180023002119
:4015C00014F0C8F80E4B01221A700E4B1B780133DAB20C4B1A700C4B180002F019FE094B1B781800FFF78AF9202002F02DFEC046BD4606B080BDC046CC23002004240020EE
:4016000044110020D40B0020A4A7010080B500AF084B1B68002B0AD0074B180002F0F8FD03F03EFC002003F055FC03F027FCC046BD4680BDC00B0020B8AD010080B582B035
:4016400000AF786039603A687B680021180004F0D1FDC046BD4602B080BDC04680B586B000AF7860396000233B6100237B612FE07B699B007A68D3181B68BB600F23FB1845
:40168000BA681A70BB68FF229343BB6018E03B695B003A68D3181B781A00BB68D31819003B695B003A68D3185B780B703B6901333B610F23FB181A780F23FB18013A1A70C2
:4016C0000F23FB181B78002BE1D17B6901337B617B69042BCCD9C046BD4606B080BDC04680B500AF054B03221A60054B03221A60044B00221A60C046BD4680BD30003040F4
:4017000030003140000E3F4080B500AF04F02EFD03001B680C2B00D1FEE7FEE780B584B000AF78600F4B1A687B68D3181A000E4BD31A802B09DC0B4B1B68FB60094B1A688C
:401740007B68D218074B1A6007E004F00FFD03000C221A6001235B42FB60FB681800BD4604B080BDF00B00202024002080B586B000AF224B7B61224B3B61204B7B6135E06C
:401780003B691B68FB603B695B68BB603B699B683B6000237B600CE0FB681A68BB681A60BB680433BB60FB680433FB607B6804337B607A683B689A42EED13B69DB683B6076
:4017C00000237B6008E0BB6800221A60BB680433BB607B6804337B607A683B689A42F2D13B6910333B617B69013B7B617B69002BC6D104F0C1FCFEF7CBFDFEE7010000003D
:4018000060B3010080B582B000AF154B144A126801218A431A6000237B600FE07B68032B04D8104B7A689200D35800E00E4B0F4A796889008B507B6801337B607B682F2B03
:40184000ECD9FEF7A7FC0A4B00221A60044B044A126801210A431A60C046BD4602B080BD00001040000000000917000000000020C000002080B500AF1B4B00221A701B4B56
:4018800000221A701A4B00221A701A4B00221A70194B5A88194B1A80174B9A88174B5A80154B9A79154B1A73134BDA79134B1A71124B0822DA81114B0A221A820F4B0022DA
:4018C0005A820E4B64229A820C4B0022DA820B4B012252421A830A4B1E221A8000F012F8C046BD4680BDC04619240020002400201724002016240020580C0020D42300202C
:40190000EE23002080B500AF0C4B1B88002B05D10B4B0E220021180004F06CFC074BDB88002B05D1074B06220021180004F062FC01F016FEC046BD4680BDC046F00C002054
:4019400008240020F8230020B0B594B004AF78603E23FB1800221A802823FA183E4B1000190014231A0004F03CFC3C4B1B78002B04D1FFF77FFF394B01221A707B68002B23
:401980005FD0374B7A681A603E23FB181B88002B29D11023FB181C22BA185A601023FB182022BA181A601023FB1800221A812023FB181B221A802023FB181B225A8020231A
:4019C000FB1804221A711C23FB1808221A703E23FC180E23FA181023FB181100180005F045F9030023803E23FB181B88002B2CD13E23FC182823FD18AE231A0119491A4859
:401A00000023029300230193052300932B0005F083F8030023803E23FB181B88002B14D1124B01221A70124B08221A703E23FC18104B0F221121180013F074FE0300238093
:401A400003E03E23FB1801221A803E23FB181B881800BD4610B0B0BDF0AE01004C110020D0230020C800002095230000F2230020F32300203CAF010090B585B000AF0200A2
:401A8000FB1D1A70FB1D1B78022B04D90E23FB1801221A804AE0294B1B78062B41D1284B1B78DBB21A00042313403AD1FB1D1B78002B0BD1234B08221A82224B5B682022D0
:401AC0001A80204B5B6830225A8010E0FB1D1B78012B0CD11B4B96221A821A4B5B68C822D2001A80174B5B688022D2015A80164BFA1D12781A700E23FC18124B180011F05B
:401B0000DFF9030023800E23FB181B88002B0DD10B4B1B78DBB204221343DAB2084B1A7004E00E23FB180422FF321A800E23FB181B881800BD4605B090BDC046F223002084
:401B400019240020440C00201724002080B500AF11F04EFA054B1B78DBB208221343DAB2024B1A70C046BD4680BDC0461924002080B584B000AF78600A00FB1C1A70002356
:401B8000BB60BB68002B20D07B689A79BB681A700F23FB1800221A7012E00F23FB181B780133BA68D3180F22BA18127879688A5C1A700F23FB181A780F23FB1801321A7076
:401BC0000F23FB181B78052BE7D9C046BD4604B080BDC04690B585B000AF0200FB1D1A70FB1D1B78022B04D90E23FB1801221A8035E0FB1D1B78002B09D11C4B08221A81A9
:401C00001A4B30225A80194B20229A800EE0FB1D1B78012B0AD1154B96221A81134B802212015A80114BE122D2009A80104BFA1D12781A700E23FC180C4B180011F0C6F8CF
:401C4000030023800E23FB181B88002B07D1094B1B78DBB204221343DAB2064B1A700E23FB181B881800BD4605B090BD580C0020162400201924002080B500AF11F0D0F891
:401C8000054B1B78DBB208221343DAB2024B1A70C046BD4680BDC0461924002090B585B000AF7860294B1B78062B05D00E23FB180422FF321A8041E07B68002B04D10E23B0
:401CC000FB1801221A8039E00D23FB1800221A7012E00D23FB181B780D22BA1812787968895C1B4AD3180A1C5A710D23FB181A780D23FB1801321A700D23FB181B78052BD7
:401D0000E7D97B689A79124BDA720E23FC18104B180011F009F8030023800E23FB181B88002B0BD1094B05221A700A4B1B88002B04D0084B1B8818000DF064FF0E23FB1848
:401D40001B881800BD4605B090BDC046F2230020D4230020EE23002090B583B000AF104B1B78052B04D0BB1D0422FF321A8011E0BC1D10F0CFFF030023800A4B1B88002BDD
:401D800001D00DF059FFBB1D1B88002B02D1044B06221A70BB1D1B881800BD4603B090BDF2230020EE23002080B582B000AF78607B681B789AB27B6801331B789BB21B02C3
:401DC0009BB213439BB21800BD4602B080BDC04690B585B000AF78600F23FB1800221A707B689B890B22934232D17B68181D7A680F23FC184023002113F0ACFC03002370E0
:401E00000F23FB181B78002B1AD17B685B681800FFF7CAFF03001A00022313409BB2002B07D00F4B1B687968822252001000984706E00B4B1B6879680622FF3210009847C8
:401E4000084B1B78DBB201229343DAB2054B1A700F23FB181B781800BD4605B090BDC046D02300201924002080B582B000AF78607B68DB880D4A934214D10D4B5B88002B7A
:401E800008D17B689A880A4B5A807B689A78084B1A7007E0074B1B687A68911D8622520010009847C046BD4602B080BD052A0000F8230020D023002080B582B000AF7860AB
:401EC0007B689B880B4A934210D10B4B9B88002B04D17B685A88084B9A8007E0074B1B687A68111D8622520010009847C046BD4602B080BD02290000F8230020D023002000
:401F000080B582B000AF78600C4B5A887B689B899A420ED10A4B1B6879688322520010009847084B1B78DBB201229343DAB2054B1A70C046BD4602B080BDC046F82300200E
:401F4000D02300201924002090B585B000AF78600F23FC187B681800FFF73AFF03002370154B1B78DBB21A00012313401FD10F23FB181B78002B16D00823FB1812229A7084
:401F80007B689A890823FB181A800823FB180F22BA181278DA700823FA187B681100186812F058F903E07B68186812F0CBF9C046BD4605B090BDC0461924002080B582B049
:401FC00000AF7860C046BD4602B080BD80B582B000AF7860C046BD4602B080BD80B582B000AF7860C046BD4602B080BD80B582B000AF7860C046BD4602B080BD80B588B043
:4020000000AF7860394B1B78022B6AD1384B1B88002B66D00823F918354B022208009B180422190004F0DDF87B6859687B681B891A000823FB180433180004F0D2F80823B5
:40204000FB18180001F000FB294B1B8801339AB20823FB181A80274B1B781900264A0B005B005B185B00D31802331A880823FB185A800823FB181A880823FB185B889A4261
:4020800021D80823F9181D4B1A785B781B021A4300231204120C1B0C1B041343180011F089FD031E12D0164B1B6884225200002110009847134B1B78DBB202229343DAB21F
:4020C000104B1A7002E0012000F0BCFC0D4B1B78DBB201229343DAB20A4B1A70044B00221A80C046BD4608B080BDC046F32300205011002018240020F00C002004240020EE
:40210000D02300201924002080B588B000AF7860394B1B78022B6AD1384B1B88002B66D00823F918354B022208009B180422190004F057F87B6859687B681B891A000823A8
:40214000FB180433180004F04CF80823FB18180001F07AFA294B1B8801339AB20823FB181A80274B1B781900264A0B005B005B185B00D31802331A880823FB185A800823D4
:40218000FB181A880823FB185B889A4221D80823F9181D4B1A785B781B021A4300231204120C1B0C1B041343180011F003FD031E12D0164B1B6884225200002110009847F6
:4021C000134B1B78DBB202229343DAB2104B1A7002E0012000F036FC0D4B1B78DBB201229343DAB20A4B1A70044B00221A80C046BD4608B080BDC046F3230020501100202F
:4022000018240020F00C002004240020D02300201924002080B500AF094B00225A70084B00221A70074B1B78052B03D1054B07221A7002E0034B08221A70C046BD4680BD35
:4022400004240020F323002080B582B000AF78607B681B78032B3ED1264B1B78DBB21A000223134037D0244B1B78022B10D002DC012B05D024E0032B12D0042B18D01FE0FD
:402280001E4B1B680822FF3200211000984717E01A4B1B68842252000021100098470FE0164B1B680A22FF3200211000984707E0124B1B6885225200002110009847C046CA
:4022C0000C4B1B78DBB202229343DAB2094B1A70094B00221A707B681B78042B05D1084B1B78052B01D1FFF737FDC046BD4602B080BDC04619240020F3230020D0230020D2
:40230000F223002080B500AFC046BD4680BDC04680B584B000AF78600E23FB1800221A707B689B79002B1CD10F23FB1800221A7012E00F23FB181B787A68D35C002B04D07E
:402340000E23FB1801221A700BE00F23FB181A780F23FB1801321A700F23FB181B78052BE7D90E23FB181B781800BD4604B080BD80B582B000AF0200BB1D1A80C046BD466A
:4023800002B080BD80B582B000AF7860C046BD4602B080BD80B588B000AF02003960FB1D1A70D44B1B78DBB201221343DAB2D14B1A70FB1D1B78712B00D919E29A00CE4B37
:4023C000D3181B689F461023FB1807221A701023FB1800225A701023FB18180006F056FB1023FB1807221A701023FB1801225A701023FB18180006F049FB0023002B01D0D7
:4024000004F050FBBD4B1B681800FFF781FF031E11D0BA4B1B68180004F050FBB74B1B6800211800FFF7A4FBB44B1B6801211800FFF79EFB36E0B24B1B781A003F231A4049
:40244000B04B1B789901FC231B010B401A43AE4B1B781903F8235B020B401A43AB4B1B785904FE231B040B401343BB61BB69DAB2A74B1A70BB691B0ADAB2A54B5A70BB69C7
:402480001B0CDAB2A24B9A70A14B180004F016FB9F4B00211800FFF76BFB9D4B01211800FFF766FB032010F017FB0C23FB183F221A700C23FB1800225A700C23FB18180087
:4024C00010F028FB934B06221A709CE13B681800FFF7BAFE97E13B681A788F4B1A7092E13B687B617B691B78002B00D082E17B695B78002B0BD1894B0022DA80874B002269
:402500009A80864B864A1A607B69844A5A60794B1B78DBB201229343DAB2764B1A7069E1744B1B78DBB21A002023134000D063E17C4B1B78102B02D17A4B0522DA707A4BF6
:402540001B78784A1100180010F07CFC03001A000A23FB181A800A23FB181B88002B06D0724B1B680A22BA18110036209847614B1B78DBB201221343DAB25E4B1A706A4B4D
:402580001B78684A1100180010F048F834E13B681800FFF7F7FE36E13B681800FFF7F2FE634B1B88002B01D00DF046FB594B02221A7028E1574B06221A7024E1554B1B7888
:4025C000022B00D11AE14B4B1B78DBB21A000123134000D112E1474B1B78DBB21A00042313400BD04B4B03221A70424B1B78DBB204229343DAB23F4B1A70FFE03D4B1B782E
:40260000DBB21A00082313400BD0424B06221A70384B1B78DBB208229343DAB2354B1A70ECE03C4B1B78032B00D0E7E0394B06221A70E3E0374B1B78022B00D1E0E02D4B33
:402640001B78DBB21A000123134000D1D8E0294B1B78DBB21A00042313400BD02D4B04221A70244B1B78DBB204229343DAB2214B1A70C5E01F4B1B78DBB21A000823134021
:402680000BD0244B06221A701A4B1B78DBB208229343DAB2174B1A70B2E01E4B1B78042B00D0ADE01B4B06221A70A9E03B681B881800FFF75DFEA6E01B4A3B681000190000
:4026C00002231A0003F08DFD134B00221A70194B00221A70FFF716FE95E0FFF79BFD92E03B685B88162B27D81E23FB183A6852881A8025E0192400209CB001006C0C00200E
:402700007CF2FF0F7DF2FF0F7BF2FF0F78F2FF0F640C0020F22300200024002068110020A80B0020040D002004240020D0230020EE230020F32300201E23FB1817221A801E
:402740001E23FB1819883B681A8800231204120C1B0C1B041343180011F086FD53E03B681800FFF7F1FB4EE03B681800FFF726FC49E03B68180000F065F844E03B681800AF
:4027800000F098FA3FE000F083FE3CE03B68180000F02AFD37E03B68180000F0C9FE32E03B681800FFF71AFC2DE03B681800FFF7A7FB3B681800FFF719FC204B1B78DBB206
:4027C0001A00012313401DD13B68186811F0B8F918E03B681800FFF711FC14E03B681800FFF792FC0FE03B681800FFF7EFFB0AE0C04608E0C04606E0C04604E0C04602E07C
:40280000C04600E0C0460D4B1B78DBB21A00112313400ED0094B1B78DBB201229343DAB2064B1A70064B1B68FA1D1278396810009847C046BD4608B080BDC046192400207B
:40284000D023002080B586B000AF78600023FB60774B1B78012B00D0E6E0764B1B78DBB21A000223134000D1DEE00A23FB187A6812891A800A23FB181B88062B05D00A234F
:40288000FB181B88142B00D0C7E00823FB187A6852891A801423FB1800221A80ABE07B685A681423FB181B88D318FB601323FB1800221A70FB681A885F4B1B889A4200D2B9
:4028C0007CE0FB681A885C4B5B889A4200D975E00A23FB181B88062B00D068E0FB6801221A751623FB1800221A8055E01623FB181A88524913005B009B185B00CB18043346
:402900001A88FB689B889A423FD11623FB181A884A4913005B009B185B005B5A002B13D11623FB181A88454913005B009B185B00FA68CB1811000422180003F052FC1323BF
:40294000FB1801221A7020E01623FB181B88012B0FD81623FB181B885A1C384913005B009B185B00CB1804331A88FB689B889A420BD0334B1B68FA68111D0C22FF3210003A
:4029800098471323FB1801221A701623FB181A881623FB1801321A801623FB181B88022B0CD81323FB181B78002B9FD006E0FB6802221A75FB68180000F046FE1323FB18D1
:4029C0001B78002B0DD11B4B1B78DBB21A000123134006D01A4B1B68F9681222FF32100098471423FB181422B9180A22BA18098812888A181A801423FA180823FB181288DA
:402A00001B889A4200D24AE70A4B1B78DBB201229343DAB2074B1A7006E0094B1B680822FF32002110009847C046BD4606B080BDF323002019240020F4230020F00C002034
:402A4000D023002080B582B000AF0200FB1D1A70FB1D1B78002B06D0344B1B780133DAB2324B1A700CE0314B00221A70304B00221A8005E02D4B1B780133DAB22B4B1A7009
:402A80002A4B1B78022B19D8284B1B781900294A0B005B005B185B009A5A274B1B889A42E8D3224B1B781900224A0B005B005B185B009A5A204B5B889A42DBD81B4B1B7807
:402AC000022B28D8194B1B781A0013005B009B185B00184A9918194B1A785B781B021A4300231204120C1B0C1B041343180011F061F8031E15D0124B1B6884225200002162
:402B0000100098470F4B1B78DBB202229343DAB20C4B1A7005E00C4B03221A70002000F0ADFAC046BD4602B080BDC0461824002050110020F00C0020F423002004240020AD
:402B4000D023002019240020F323002080B582B000AF78607B68DB884F4A934200D184E04D4A93420BDC4D4A934224D04B4A934200DD68E0A822920193420AD087E0484A91
:402B800093423CD0474A93424BD0474A934224D07DE0464B1B88002B04D17B689A88434B1A8074E0424B1B687A68911D86225200100098476BE03D4B5B88002B04D17B6825
:402BC0009A883A4B5A8062E0394B1B687A68911D862252001000984759E0344B1B89002B04D17B689A88314B1A8150E0304B1B687A68911D862252001000984747E02B4BD6
:402C00005B89002B04D17B689A88284B5A813EE0274B1B687A68911D862252001000984735E0224B9B89002B04D17B689A881F4B9A812CE01E4B1B687A68911D862252001F
:402C40001000984723E0194B9B88002B04D17B689A88164B9A801AE0154B1B687A68911D862252001000984711E0104BDB88002B04D17B689A880D4BDA8007E00C4B1B68DE
:402C80007A68911D8622520010009847C046C046BD4602B080BDC046032A0000012A0000A62A0000C92A0000042A000008240020D023002090B593B000AF7860D44B1B782E
:402CC000DBB21A000223134000D1D1E13E23FB187A6812891A803C23FB187A6852891A807B685B683B64CB4B1B78032B00D0C7E04623FB1800221A80B8E03B6C1800FFF7C6
:402D000053F803001A002423FB181A803B6C02333B643B6C1A782423FB189A703B6C01333B643B6C1800FFF73FF803001A002423FB189A803B6C02333B643E23FB181B8896
:402D4000152B33D12423FB1802229A752423FB180622396C9B181022180003F042FA3B6C10333B64AC4B1B781900AC4A0B005B005B185B00D31804331B881A00A84B9A422B
:402D80005DD0A54B1B78012B5BD9A34B1B78022B57D8A14B1B789BB2023B9BB22422BA181100180000F0B8FCC0464AE03E23FB181B88072B48D12423FB1801229A753B6C26
:402DC0001800FEF7F1FF03001A002423FB18DA803B6C02333B64904B1B7819008F4A0B005B005B185B00D31804331B88C0225201934203D08B4A934206D00BE02423FB188F
:402E00001800FFF7A3FE1FE02423FB181800FFF72BF819E0804B1B78012B14D97E4B1B78022B10D87C4B1B789BB2023B9BB22422BA181100180000F06FFCC04603E0C046BC
:402E400002E0C04600E0C046714B1B78DBB201229343DAB26E4B1A704623FB184622B9183E22BA18098812888A181A804623FA183C23FB1812881B889A4200D23DE7F7E0BF
:402E8000644B1B78022B00D0F2E04623FB1800221A80E4E03B6C1800FEF786FF03001A000C23FB181A803B6C02333B643B6C1800FEF77AFF03001A000C23FB185A803B6C4B
:402EC00002333B643B6C1800FEF76EFF03001A000C23FB189A803B6C02333B643E23FB181B88062B30D10C23FB1802229A7510F0DFFE0C23FB1859884B4B1A785B781B0213
:402F00001A4300231204120C1B0C1B041343180010F06EFE031E07D1444B0C22BA1813CA13C313CA13C388E0414B1B6884225200002110009847364B1B78DBB202229343B5
:402F4000DAB2334B1A7078E03E23FB181B88082B00D072E00C23FB1801229A753B6C1800FEF722FF03001A000C23FB18DA803B6C02333B644423FB1800221A8033E04423CC
:402F8000FB181A88254913005B009B185B00CB1804331A880C23FB18DB889A421CD14423FB181A881D4913005B009B185B005B5A002B11D14423FB181A88184913005B009D
:402FC0009B185B000C22BA180220CB1811180422180003F006F90BE04423FB181A884423FB1801321A804423FB181B88022BC6D9094B1B781900094A0B005B005B185B00A7
:40300000D31804331B881A000A4B9A4214D014E019240020F323002018240020F00C0020FEFF0000011800000424002050110020D023002012180000C0460F4B1B78DBB201
:4030400001229343DAB20C4B1A704623FB184622B9183E22BA18098812888A181A804623FA183C23FB1812881B889A4200D211E7C046BD4613B090BD1924002080B582B0EF
:4030800000AF0200FB1D1A70FB1D1B78002B06D0354B1B780133DAB2334B1A7009E0324B00221A7005E0304B1B780133DAB22E4B1A702D4B1B78022B19D82B4B1B78190023
:4030C0002A4A0B005B005B185B009A5A284B1B889A42E8D3244B1B781900244A0B005B005B185B009A5A224B5B889A42DBD81E4B1B78022B2DD81C4B1B781A001B4913003E
:403100005B009B185B001B4A585ACB185B881B04034319001378527812021A4300231204120C1B0C1B041343180010F027FD031E15D0114B1B680A22FF3200211000984784
:403140000E4B1B78DBB202229343DAB20B4B1A7005E00B4B04221A70002000F0E9F8C046BD4602B080BDC04618240020F00C0020F423002004240020D0230020192400202F
:40318000F323002080B582B000AF3B0000221A803B0000225A80114B1B78002B09D1104B5B8801339AB23B001A800E4B1A893B005A803B1D3A0012681A603A1D0023118864
:4031C0000904090C1B0C1B040B43528812041B041B0C13431800BD4602B080BD18240020F8230020F00C002080B58AB000AF78600823FB1800225A804A4B1B78042B00D079
:403200008BE0494B1B78DBB21A000223134000D183E01E23FB187A6812891A807B681A7B0823FB181A750823FB187A6812881A800823FB181B7D012B04D12623FB1804224C
:403240001A8003E02623FB1812221A807B685B683B622423FB1800221A804EE03B6A1800FEF7A2FD03001A000823FB185A803B6A02333B620823FB181B7D022B15D108230F
:40328000FB183A6A043311001022180002F0A9FF3B6A10333B62254B1B78012B23D10823FB18180000F0FEFB1DE03B6A1800FEF77BFD03001A000823FB189A803B6A0233CE
:4032C0003B621A4B1B78002B04D10823FB181800FEF7F2FD154B1B78012B04D10823FB18180000F0DFFB2423FB182422B9182622BA18098812888A181A802423FA181E235F
:40330000FB1812881B889A42A8D3074B1B78DBB201229343DAB2044B1A70C046BD460AB080BDC046F3230020192400201824002080B584B000AF0200FB1D1A700C23FB1823
:4033400000221A800C23FB1800225A804A4B1B78012B17D0FB1D1B78002B0DD0464B1B780133DAB2444B1A70434B1B78012B09D1FB1D00221A7005E03F4B00221A70FB1D4A
:4033800001221A703C4B1B78012B0CD1FB1D1B78180000F0C5FA03001A000C23FB181A60FB1D01221A70344B1B78012B06D0FFF7E9FE03001A000C23FB181A600C23FB1821
:4033C0001A882E4B1B889A4215D90C23FB181A882A4B5B889A420ED80C23FB185A88274B1B889A4207D30C23FB181A880C23FB185B889A4203D9204B1B78012BA6D91E4B85
:403400001B78012B21D80C23F9181D4B1A785B781B021A4300231204120C1B0C1B041343180010F095FB031E21D0164B1B6885225200002110009847134B1B78DBB2022211
:403440009343DAB2104B1A7011E0104B05221A700C4B1B68892252000021100098470A4B1B78DBB202229343DAB2074B1A70C046BD4604B080BDC04618240020F4230020B7
:4034800004240020D023002019240020F323002080B500AF244B1B78DBB21A00022313403FD0224B1B78022B17D002DC012B05D037E0032B1DD0042B27D032E01B4B022223
:4034C0001A700020FFF7BEFA174B1B78DBB201229343DAB2144B1A7023E00120FFF7B2FA114B1B78DBB201229343DAB20E4B1A7017E00120FFF7C2FD0B4B1B78DBB2012274
:403500009343DAB2084B1A700BE00120FFF710FF054B1B78DBB201229343DAB2024B1A70C046C046BD4680BD19240020F323002080B582B000AF7860084B1B78DBB21A0015
:403540000223134005D07B689B790A2B01D1FFF79FFFC046BD4602B080BDC0461924002080B582B000AFBB1D00221A8060E0BB1D1B889A1C324913005B009B185B005B5A4A
:40358000002B50D13B1D00221A8040E0BB1D1B882C4A1B01D3180C331A683B1D1B881B01D31800221A80BB1C00221A8019E0BB1D1B88244A1B01D3180C331A683B1D1B88DC
:4035C0001B01D318D968BB1C1A8813005B009B189B00CB1800221A80BB1C1A88BB1C01321A80BB1D1B88174A1B01D3180C331A683B1D1B881B01D3189B7A9BB2BA1C12881A
:403600009A42D4D33B1D1A883B1D01321A80BB1D1B880C4A1B01D31809331B789BB23A1D12889A42B2D3BB1D1A88BB1D01321A80BB1D1B88002B9AD0C046BD4602B080BD7B
:40364000F00C0020280D002080B584B000AF78600D23FB1800221A700E23FB1800221A8046E00E23FB181B88284A1B01D31808331B78022B35D10E23FB181B88234A1B0103
:40368000D318043318687B6804331022190002F099FD031E25D10E23FB181B889A1C1C4913005B009B185B005B5A002B19D10E23FB181B889A1C164913005B009B185B00A4
:4036C0007A68CB1811000422180002F08AFD114B1B780133DAB20F4B1A700D23FB1801221A700E23FB181A880E23FB1801321A800E23FB181B88002B04D10D23FB181B7806
:40370000002BAED0C046BD4604B080BD280D0020F00C00201824002080B584B000AF02003960BB1D1A800D23FB1800221A70774B1B68002B0FD0764B1B88BA1D12889A4205
:4037400006D1724B1B683A681288013A92B21A806E4B00221A600E23FB1800221A80ABE00C23FB1800221A703B689B7D022B27D1BB1D1B88674A1B01D3180C331A680E230A
:40378000FB181B881B01D3181B7A022B18D1BB1D1B88604A1B01D3180C331A680E23FB181B881B01D31858683B6806331022190002F008FD031E03D10C23FB1801221A7004
:4037C0003B689B7D012B27D1BB1D1B88514A1B01D3180C331A680E23FB181B881B01D3181B7A012B18D1BB1D1B884A4A1B01D3180C331A680E23FB181B881B01D3185868EF
:403800003B6806330222190002F0DCFC031E03D10C23FB1801221A700C23FB181B78012B43D1BB1D1B883B4A1B01D3180C331A680E23FB181B881B01D3181B88002B34D123
:40384000BB1D1B88334A1B01D3180C331A680E23FB181B881B01D3183A6892881A80BB1D1B882C4A1B01D3180C331A680E23FB181B881B01D3183A6892785A72BB1D1B88AA
:40388000244A1B01D3180C331A680E23FB181B881B01D3189A1C1D4B1A601D4BBA1D12881A800D23FB1801221A700E23FB181A880E23FB1801321A80BB1D1B88154A1B01FC
:4038C000D31809331B789BB20E22BA1812889A4205D20D23FB181B78002B00D140E70B4B1B68002B0DD0094B1A680B4B1B7818000A4903005B001B185B00CB1802331B88C7
:403900001380C046BD4604B080BDC0467411002078110020280D002018240020F00C002080B584B000AF0200FB1D1A700823FB1800221A800823FB1800225A80FB1D1B783E
:40394000002B2DD0524B1B880133524A1288524912018A1809321278934206D24C4B1B8801339AB24A4B1A8023E04A4B1B88013309D1484B1B8801339AB2464B1A80444B11
:4039800000221A8015E0454B1B780133DAB2434B1A703F4B1B8801339AB23D4B1A8008E03C4B00221A803A4B00221A80FB1D01221A70384B1B88384A1B01D31809331B78DD
:4039C0009AB2334B1B889A421FD9324B1B88324A1B01D3180C331A682D4B1B881B01D3181B8801339AB20823FB181A80294B1B88294A1B01D3180C331A68254B1B881B0184
:403A0000D3185A880823FB185A800823FB181A88234B1B889A4215D90823FB181A88204B5B889A420ED80823FB185A881C4B1B889A4207D30823FB181A880823FB185B8815
:403A40009A420CD9134B1B88134A1B01D31809331B789AB20E4B1B889A4200D96EE70C23FB180822BA1812681A600C23FA18002311880904090C1B0C1B040B43528812042A
:403A80001B041B0C13431800BD4604B080BDC0467211002070110020280D002018240020F423002080B584B000AF78600E23FB1800221A700F23FB1800221A70B9E00D2392
:403AC000FB1800221A707B681B7D022B37D1664B1B88664A1B01D3180C331A68644B1B881B01D318D9680F23FB181A7813005B009B189B00CB181B7A022B20D15A4B1B8880
:403B00005A4A1B01D3180C331A68594B1B881B01D318D9680F23FB181A7813005B009B189B00CB1858687B6804331022190002F049FB031E03D10D23FB1801221A707B68F1
:403B40001B7D012B37D1484B1B88484A1B01D3180C331A68464B1B881B01D318D9680F23FB181A7813005B009B189B00CB181B7A012B20D13C4B1B883C4A1B01D3180C334F
:403B80001A683B4B1B881B01D318D9680F23FB181A7813005B009B189B00CB1858687B6804330222190002F00DFB031E03D10D23FB1801221A700D23FB181B78012B31D1A2
:403BC000294B1B88294A1B01D3180C331A68284B1B881B01D318D9680F23FB181A7813005B009B189B00CB181B88002B1AD11E4B1B881E4A1B01D3180C331A681C4B1B88A0
:403C00001B01D318D9680F23FB181A7813005B009B189B00CB187A6852881A800E23FB1801221A700F23FB181A780F23FB1801321A700D4B1B880D4A1B01D3180C331A688C
:403C40000B4B1B881B01D3189B7A0F22BA1812789A4205D20E23FB181B78002B00D12EE7C046BD4604B080BD70110020280D00207211002080B500AF064B1B78002B04D1AC
:403C800000F00AF8034B01221A7000F03FF8C046BD4680BD7A11002090B583B000AFFF2000F044F8B82000F05BF8012000F068F8012000F075F8FC1D01F09BFB030023704D
:403CC000104A104B1B78DBB201210B43DBB21370FB1D1B78180001F090FB0B4A0A4B1B78DBB202218B43DBB21370074A064B1B78DBB204218B43DBB21370C046BD4603B0E4
:403D000090BDC04693000F4073000F4080B500AF054A054B1B78DBB201210B43DBB21370C046BD4680BDC04673000F4080B582B000AF0200FB1D1A70FB1D1B78002B07D0F4
:403D4000054AFB1D1B781370044AFB1D1B781370C046BD4602B080BD43000F4003000F4080B582B000AF0200FB1D1A70034AFB1D1B781370C046BD4602B080BD13000F40DF
:403D800080B582B000AF0200FB1D1A70034AFB1D1B781370C046BD4602B080BD23000F4080B582B000AF0200FB1D1A70034AFB1D1B781370C046BD4602B080BD33000F40B5
:403DC00080B582B000AF0200FB1D1A70064B064A126806491140FA1D127892040A431A60C046BD4602B080BD08020440FFFFE3FF80B582B000AF0200FB1D1A70064B064ACF
:403E0000126806491140FA1D127892040A431A60C046BD4602B080BD08030440FFFFE3FF80B582B000AF0200FB1D1A70064B064A126806491140FA1D127852050A431A600F
:403E4000C046BD4602B080BD08030440FFFF1FFF80B500AF064B1B78002B04D100F00AF8034B01221A7000F03FF8C046BD4680BD7B11002090B583B000AFFF2000F044F89F
:403E8000B82000F05BF8012000F068F8012000F075F8FC1D01F0ADFA03002370104A104B1B78DBB201210B43DBB21370FB1D1B78180001F0A2FA0B4A0A4B1B78DBB202211F
:403EC0008B43DBB21370074A064B1B78DBB204218B43DBB21370C046BD4603B090BDC04692000F4072000F4080B500AF054A054B1B78DBB201210B43DBB21370C046BD4642
:403F000080BDC04672000F4080B582B000AF0200FB1D1A70FB1D1B78002B07D0054AFB1D1B781370044AFB1D1B781370C046BD4602B080BD42000F4002000F4080B582B0DC
:403F400000AF0200FB1D1A70034AFB1D1B781370C046BD4602B080BD12000F4080B582B000AF0200FB1D1A70034AFB1D1B781370C046BD4602B080BD22000F4080B582B015
:403F800000AF0200FB1D1A70034AFB1D1B781370C046BD4602B080BD32000F4080B582B000AF786000F050F87B68180000F00AF8032000F015F800F03BF8C046BD4602B0A9
:403FC00080BDC04680B582B000AF7860034B7A681A66C046BD4602B080BDC0460000002090B585B000AF0200FB1D1A700623FB600B23FC1801F0FDF9030023700B4B0B4A07
:404000001268C0218A431100FA1D1078FA68904002000A431A600B23FB181B78180001F0ECF9C046BD4605B090BDC04608E400E080B500AF034B802252001A60C046BD4665
:4040400080BDC04600E100E080B500AF034B802252001A60C046BD4680BDC04680E100E080B500AF034B802252001A60C046BD4680BDC04680E200E080B500AF00F04CF8C9
:40408000C046BD4680BDC04680B500AF064B064A1268802109060A431A6000F019F800F01DF8C046BD4680BD0000244080B500AF064B1B78002B04D1FFF7DEFF034B012282
:4040C0001A70FFF7E1FFC046BD4680BD7C11002080B500AFC046BD4680BDC04680B500AF00F07CF8C046BD4680BDC04680B582B000AF7860C046064B1B681F221340082B1A
:40410000F9D0044B7A681A60C046BD4602B080BD080224404002244080B500AF1B4B1C4A1A601C4B00221A601B4B1C4A1A601C4B1C4A1A601C4B07221A601C4B00221A6038
:404140001B4B01221A601B4B164A1A601A4B00221A601A4B04221A60194B00221A60194B00221A60184B00221A60184B00221A60174B00221A60174B00221A60154B1B6819
:404180009AB2154B1A80C046BD4680BD000024400B000002400024404800244001000A000003244007000080040324401003244044002440000224400402244050002440AB
:4041C000880E2440C80E2440480F2440080F2440C80F2440880F24407E11002080B500AF074B074A126807490A40902109040A431A60054B054A12881A60C046BD4680BD57
:4042000000010240FFFF0FFF880F24407E11002080B584B000AF78600023FB6009E07A68FB68D3181B781800FFF760FFFB680133FB607A68FB68D3181B78002BEFD1C04658
:40424000BD4604B080BDC04680B582B000AF78607B681800FFF74AFF0D20FFF747FF0A20FFF744FFC046BD4602B080BD90B585B000AF78600C23FC1801F0BBF803002370DA
:404280007B68022B00D8AFE07B68302B00D9ABE05C4B1B78DBB21A007B689A420AD35A4A0F23FB1812781A70584A0E23FB1812781A703FE0564B1B78DBB21A007B689A42B8
:4042C0000AD3544A0F23FB1812781A70524A0E23FB1812781A702DE0504B1B78DBB21A007B689A420AD34E4A0F23FB1812781A704C4A0E23FB1812781A701BE04A4B1B7876
:40430000DBB21A007B689A420AD3484A0F23FB1812781A70464A0E23FB1812781A7009E0444A0F23FB1812781A70434A0E23FB1812781A707B68DA1E0B23FB183F498A5C28
:404340001A700B23FB181B782F2B0DD97B682A2B0AD93B4B19221A60052001F041F80D23FB1819221A7007E0354B1B68DAB20D23FB183F210A401A700B23FA180D23FB1882
:4043800012781B789A4208D22D4B7A68033A2B498A5C1A60052001F023F82A4B7A6826498C4662441278D2B21A60274B0F22BA1812781A60254B0E22BA1812781A600520B4
:4043C00000F0C2F80B23FA180D23FB1812781B789A420CD91A4B7A68033A18498A5C1A60052000F0FDFF02E0002000F07BF80C23FB181B78180001F000F8C046BD4605B063
:4044000090BDC04640F3FF0F41F3FF0F42F3FF0F43F3FF0F44F3FF0F45F3FF0F46F3FF0F47F3FF0F48F3FF0F49F3FF0F4AF3FF0F4BF3FF0F4CF3FF0F4DF3FF0F94B20100F9
:404440002CFF0B4028FF0B401CFF0B4020FF0B4080B584B000AF78600023FB60154B154A126801210A431A60134B144A1A60144B134A1268802109020A431A607B68002B07
:4044800012D01023FB600CE0012000F05DF800F019F8031E02D00023FB6005E07B68013B7B607B68002BEFD1FB681800BD4604B080BDC04660F02E4078002E4002200000E0
:4044C00010002E4080B582B000AF054B1B68012213407B607B681800BD4602B080BDC0460C002E4080B582B000AF0200FB1D1A7001BEC046BD4602B080BDC04680B582B0B9
:4045000000AF786009E00D4B1B68180000F068FF7B680B4A944663447B607A6880231B029A42F0D8074B1B687A685343180000F057FFC046BD4602B080BDC046440D0020CD
:404540000080FFFF3C0D002080B582B000AF0200BB1D1A80BB1D1B88044A12785343180000F03EFFC046BD4602B080BD400D002080B500AF0F4B0F4A126801218A431A60BD
:404580000C4B0C4A126802218A431A600A4B0A4A126830218A4310210A431A60064B064A126807218A4301210A431A60C046BD4680BDC04600F02E4000FF2E4080B500AF3D
:4045C0000F4B0F4A126802218A431A600D4B0D4A126807218A4302210A431A60094B094A126830218A4320210A431A60044B044A126801210A431A60C046BD4680BDC04689
:4046000000F02E4000FF2E4080B500AFFFF7B0FF044B044A1268802109060A431A60C046BD4680BD00F02E4080B584B000AF78600C4B1B6801221340FB607B68002B02D079
:40464000012B03D005E0FFF793FF06E0FFF7B6FF03E00020FFF746FFC046FB681800BD4604B080BD00F02E4090B583B000AFFC1D00F0BFFE03002370074B074A1268C021AB
:4046800009020A431A60FB1D1B78180000F0B5FEC046BD4603B090BD00010B4080B500AF054B1A68C0231B02134001D0012300E000231800BD4680BD00010B4090B583B050
:4046C00000AFFC1D00F095FE030023700D4B0D4A12680D490A408021C9010A431A60094B084A126808490A40802109020A431A60FB1D1B78180000F080FEC046BD4603B0C3
:4047000090BDC04600010B40FF3FFFFF80B582B000AF78607B68022B02D90020FFF7E2FE064B1A687B68DB000133DA401300012213401800BD4602B080BDC04610020B40FA
:4047400080B584B000AF786039607B68022B02D90020FFF7C7FE7B681800FFF7D7FF031E16D10D4B1B687A68D200032191400A00D2431340FB603B6803221A407B68DB00EA
:404780009A401300FA681343FB60034BFA681A60C046BD4604B080BD0C020B4080B584B000AF786039607B68002B02D07B68012B01D1012300E00023002B02D10020FFF7F7
:4047C00091FE7B681800FFF7A1FF031E16D10D4B1B687A68D2000232012191400A00D2431340FB607B68DB0002333A689A401300FA681343FB60034BFA681A60C046BD4646
:4048000004B080BD0C020B4080B582B000AF7860144B144A11687A680A431A607B680122134005D0C0460020FFF770FF031EFAD07A6880235B00134005D0C0460120FFF798
:4048400065FF031EFAD07A6880235B02134005D0C0460220FFF75AFF031EFAD0C046BD4602B080BD10020B4080B584B000AF786039607B68002B02D07B68012B01D10123BA
:4048800000E00023002B02D10020FFF72BFE174B1B689B0F9B0701D1C92300E05D231800FFF752FE124B1B68FB607B681B01114A9A401300DA43FB681340FB600C4B7A6822
:4048C000120139689140FA680A431A60074B1B689B0F9B0701D1432300E01F231800FFF733FEC046BD4604B080BDC0460C020B4008020B40FFFF000080B500AF034B1B68EF
:40490000034A13401800BD4680BDC04610020B400404040090B585B000AF78600B23FC1800F067FD03002370FFF7B8FE031E04D00123FB60FFF7C2FE01E00023FB607B68CB
:404940000D4A13407B600D4B0C4A12680C4911407A680A431A60094B1B68FB68012B01D1FFF782FE0B23FB181B78180000F045FDC046BD4605B090BD0404040010020B40FB
:40498000FBFBFBFF80B500AF094B802292041A60084B0C221A60012000F098F8064B180000F066F8002000F053F8C046BD4680BDC0012040E4012040F72A000090B583B02A
:4049C00000AFFC1D00F015FD03002370094B094A126808210A431A60FB1D1B78180000F00CFD1821082000F053F8C046BD4603B090BDC0460000204080B500AF064B1B78B7
:404A0000002B04D1FFF7BEFF034B01221A70FFF7D5FFC046BD4680BD8011002090B583B000AFFC1D00F0E5FC03002370074B074A126808218A431A60FB1D1B78180000F020
:404A4000DCFCC046BD4603B090BDC0460000204080B582B000AF7860044B7A681204120C1A60C046BD4602B080BDC046C801204080B582B000AF7860044B7A681204120CA8
:404A80001A60C046BD4602B080BDC046D401204090B585B000AF786039600F23FC1800F0A8FC03002370084B79683A6891400A001A600F23FB181B78180000F09EFCC04694
:404AC000BD4605B090BDC0460800204080B582B000AF7860034B7A681A60C046BD4602B080BDC046F801204080B582B000AF7860034B7A681A60C046BD4602B080BDC046BE
:404B0000F001204080B582B000AF786000F050F87B68180000F00AF8032000F015F800F03BF8C046BD4602B080BDC04680B582B000AF7860034B90217A685A50C046BD464E
:404B400002B080BD0000002090B585B000AF0200FB1D1A700623FB600B23FC1800F049FC030023700B4B0B4A1268C0218A431100FA1D1078FA68904002000A431A600B231C
:404B8000FB181B78180000F038FCC046BD4605B090BDC04614E400E080B500AF034B802252031A60C046BD4680BDC04600E100E080B500AF034B802252031A60C046BD46CE
:404BC00080BDC04680E100E080B582B000AF786000F04EF87B68180000F00AF8032000F015F800F039F8C046BD4602B080BDC04680B582B000AF7860034B8C217A685A506C
:404C0000C046BD4602B080BD0000002090B585B000AF0200FB1D1A701E23FB600B23FC1800F0E7FB030023700A4B0A4A126892009108FA1D1078FA68904002000A431A6061
:404C40000B23FB181B78180000F0D7FBC046BD4605B090BD10E400E080B500AF034B802212031A60C046BD4680BDC04600E100E080B500AF034B802212031A60C046BD46CB
:404C800080BDC04680E100E080B500AF094B802292041A60084B0C221A60012000F098F8064B180000F066F8002000F053F8C046BD4680BD80012040A40120408713000012
:404CC00090B583B000AFFC1D00F093FB03002370094B094A126804210A431A60FB1D1B78180000F08AFB1821042000F053F8C046BD4603B090BDC0460000204080B500AF30
:404D0000064B1B78002B04D1FFF7BEFF034B01221A70FFF7D5FFC046BD4680BD8111002090B583B000AFFC1D00F063FB03002370074B074A126804218A431A60FB1D1B78C7
:404D4000180000F05AFBC046BD4603B090BDC0460000204080B582B000AF7860044B7A681204120C1A60C046BD4602B080BDC0468801204080B582B000AF7860044B7A6894
:404D80001204120C1A60C046BD4602B080BDC0469401204090B585B000AF786039600F23FC1800F026FB03002370084B79683A6891400A001A600F23FB181B78180000F0C0
:404DC0001CFBC046BD4605B090BDC0460800204080B582B000AF7860034B7A681A60C046BD4602B080BDC046B801204080B582B000AF7860034B7A681A60C046BD4602B021
:404E000080BDC046B001204080B500AF094B802292041A60084B0C221A60012000F098F8064B180000F066F8002000F053F8C046BD4680BD4001204064012040A7610000D2
:404E400090B583B000AFFC1D00F0D3FA03002370094B094A126802210A431A60FB1D1B78180000F0CAFA1821022000F053F8C046BD4603B090BDC0460000204080B500AF34
:404E8000064B1B78002B04D1FFF7BEFF034B01221A70FFF7D5FFC046BD4680BD8211002090B583B000AFFC1D00F0A3FA03002370074B074A126802218A431A60FB1D1B7808
:404EC000180000F09AFAC046BD4603B090BDC0460000204080B582B000AF7860044B7A681204120C1A60C046BD4602B080BDC0464801204080B582B000AF7860044B7A6814
:404F00001204120C1A60C046BD4602B080BDC0465401204090B585B000AF786039600F23FC1800F066FA03002370084B79683A6891400A001A600F23FB181B78180000F03F
:404F40005CFAC046BD4605B090BDC0460800204080B582B000AF7860034B7A681A60C046BD4602B080BDC0467801204080B582B000AF7860034B7A681A60C046BD4602B0A0
:404F800080BDC0467001204080B582B000AF786000F050F87B68180000F00AF8032000F015F800F03BF8C046BD4602B080BDC04680B582B000AF7860034B88217A685A5018
:404FC000C046BD4602B080BD0000002090B585B000AF0200FB1D1A701623FB600B23FC1800F007FA030023700A4B0A4A12680A491140FA1D1078FA68904002000A431A600E
:405000000B23FB181B78180000F0F7F9C046BD4605B090BD10E400E0FFFF3FFF80B500AF034B8022D2021A60C046BD4680BDC04600E100E080B500AF034B8022D2021A6038
:40504000C046BD4680BDC04680E100E080B500AF094B802292041A60084B0C221A60012000F098F8064B180000F066F8002000F053F8C046BD4680BD0001204024012040DF
:40508000973A000090B583B000AFFC1D00F0B1F903002370094B094A126801210A431A60FB1D1B78180000F0A8F91821012000F053F8C046BD4603B090BDC046000020404D
:4050C00080B500AF064B1B78002B04D1FFF7BEFF034B01221A70FFF7D5FFC046BD4680BD8311002090B583B000AFFC1D00F081F903002370074B074A126801218A431A60B0
:40510000FB1D1B78180000F078F9C046BD4603B090BDC0460000204080B582B000AF7860044B7A681204120C1A60C046BD4602B080BDC0460801204080B582B000AF7860BA
:40514000044B7A681204120C1A60C046BD4602B080BDC0461401204090B585B000AF786039600F23FC1800F044F903002370084B79683A6891400A001A600F23FB181B7837
:40518000180000F03AF9C046BD4605B090BDC0460800204080B582B000AF7860034B7A681A60C046BD4602B080BDC0463801204080B582B000AF7860034B7A681A60C0466E
:4051C000BD4602B080BDC0463001204080B582B000AF786000F050F87B68180000F00AF8032000F015F800F03BF8C046BD4602B080BDC04680B582B000AF7860034B8421F1
:405200007A685A50C046BD4602B080BD0000002090B585B000AF0200FB1D1A700E23FB600B23FC1800F0E5F8030023700A4B0A4A12680A491140FA1D1078FA689040020032
:405240000A431A600B23FB181B78180000F0D5F8C046BD4605B090BD10E400E0FF3FFFFF80B500AF034B802292021A60C046BD4680BDC04600E100E080B500AF034B8022E0
:4052800092021A60C046BD4680BDC04680E100E080B584B000AF0200FB1D1A700D4B1B68DAB20F23FB187F210A401A70FB1D1B78DB01D9B20F23FB180F22BA1812780A4346
:4052C0001A70044B0F22BA1812781A60C046BD4604B080BD0002044080B500AF044B1B6880221340DB09DBB21800BD4680BDC0460402044080B582B000AF094B1B68DAB251
:40530000FB1D7F218A431A70054BFA1D12781A60FB1D1B78DB09DBB21800BD4602B080BD1002044080B582B000AF786000F04EF87B68180000F00AF8032000F015F800F056
:405340003BF8C046BD4602B080BDC04680B582B000AF7860034B7A689A64C046BD4602B080BDC0460000002090B585B000AF0200FB1D1A701623FB600B23FC1800F039F8FE
:40538000030023700A4B0A4A12680A491140FA1D1078FA68904002000A431A600B23FB181B78180000F029F8C046BD4605B090BD00E400E0FFFF3FFF80B500AF024B042297
:4053C0001A60C046BD4680BD00E100E080B500AF024B04221A60C046BD4680BD80E100E00230800803D00138FDD1C046C046C0467047EFF3108072B6704780F31088704764
:4054000080B582B000AF78600A00BB1C1A80BB1C1A887B681A60C046BD4602B080BDC04680B582B000AF78600A00BB1C1A80BB1C1A887B681A60C046BD4602B080BDC046F2
:4054400080B584B000AF494B1B78DBB21B02484A1278D2B21343FB60464B1B78DBB21B02454A1278D2B21343BB60BB68434A934207D1FB68072B04D1414BBB600423FB6026
:4054800009E0BA68D4231B019A4204D1FB68042B01D13B4BBB603B4BBA681A603A4BFA681A603A4B1B78DBB21B02394A1278D2B21343FB60FA6880239B019A4202D0FB68DF
:4054C000002B01D1334BFB60334BFA681A60334B1B78DBB21B02324A1278D2B21343FB60FB68304A934206D0FB682F4A934202D0FB68052B01D12D4BFB602D4BFA681A60EF
:405500002C4B1B681B097B602B4B1B68AA2B29D17B68012B26D9214B1B78DBB20E2B21D1264B1B78DBB29BB21B0299B2244B1B78DBB29AB2BB1C0A431A80224BBA1C128829
:405540001A60214B1B78DBB29BB21B0299B21F4B1B78DBB29AB23B000A431A801C4B3A0012881A60C046BD4604B080BD59F1FF0F58F1FF0F5FF1FF0F5EF1FF0F580B0000FC
:40558000580D00006C002E4074002E405BF1FF0F5AF1FF0F0220000078002E405DF1FF0F5CF1FF0F0F0F000005050000050F000080002E40EC0F00F0E00F00F06DF2FF0FF7
:4055C0006CF2FF0F84002E406FF2FF0F6EF2FF0F94002E4080B582B000AF0200BB1D1A80BB1D1B881800FEF7AFFFC046BD4602B080BDC04680B582B000AF78607B681800C7
:40560000FEF77CFFC046BD4602B080BD80B500AF00F0ECF8C046BD4680BDC04680B500AF00F0F0F8C046BD4680BDC04680B500AF00F0E8F8044B180000F0A2F8022000F03F
:40564000ADF8C046BD4680BD5158000080B500AF034B180000F080F8C046BD4680BDC0465158000080B500AF014B1800BD4680BD0202000080B582B000AF78602B2318000F
:40568000BD4602B080BDC04680B582B000AF78602B231800BD4602B080BDC04680B582B000AF78602B231800BD4602B080BDC04680B582B000AF78602B231800BD4602B051
:4056C00080BDC04680B582B000AF78602B231800BD4602B080BDC04680B582B000AF78602B231800BD4602B080BDC04680B582B000AF78602B231800BD4602B080BDC04683
:4057000080B582B000AF78602B231800BD4602B080BDC04680B500AF2B231800BD4680BD80B582B000AF0200FB1D1A702B231800BD4602B080BDC04680B582B000AF78608D
:4057400039602B231800BD4602B080BD80B500AFC046BD4680BDC04680B582B000AF786000F050F87B68180000F00AF8022000F015F800F03BF8C046BD4602B080BDC046B5
:4057800080B582B000AF7860034B7A681A67C046BD4602B080BDC0460000002090B585B000AF0200FB1D1A700623FB600B23FC18FFF71FFE030023700B4B0B4A1268C021EA
:4057C0008A431100FA1D1078FA68904002000A431A600B23FB181B781800FFF70EFEC046BD4605B090BDC0460CE400E080B500AF034B802252011A60C046BD4680BDC04675
:4058000000E100E080B500AF034B802252011A60C046BD4680BDC04680E100E090B583B000AFFC1DFFF7E5FD03002370074B074A126804218A431A6030BFFB1D1B78180090
:40584000FFF7DBFDC046BD4603B090BD10ED00E080B500AF14F096FDC046BD4680BDC046002243088B4274D303098B425FD3030A8B4244D3030B8B4228D3030C8B420DD39E
:40588000FF22090212BA030C8B4202D31212090265D0030B8B4219D300E0090AC30B8B4201D3CB03C01A5241830B8B4201D38B03C01A5241430B8B4201D34B03C01A5241A3
:4058C000030B8B4201D30B03C01A5241C30A8B4201D3CB02C01A5241830A8B4201D38B02C01A5241430A8B4201D34B02C01A5241030A8B4201D30B02C01A5241CDD2C30973
:405900008B4201D3CB01C01A524183098B4201D38B01C01A524143098B4201D34B01C01A524103098B4201D30B01C01A5241C3088B4201D3CB00C01A524183088B4201D3CB
:405940008B00C01A524143088B4201D34B00C01A5241411A00D20146524110467047FFE701B5002000F0F0F802BDC0460029F7D076E7704703460B437FD4002243088B42F6
:4059800074D303098B425FD3030A8B4244D3030B8B4228D3030C8B420DD3FF22090212BA030C8B4202D31212090265D0030B8B4219D300E0090AC30B8B4201D3CB03C01A34
:4059C0005241830B8B4201D38B03C01A5241430B8B4201D34B03C01A5241030B8B4201D30B03C01A5241C30A8B4201D3CB02C01A5241830A8B4201D38B02C01A5241430AF9
:405A00008B4201D34B02C01A5241030A8B4201D30B02C01A5241CDD2C3098B4201D3CB01C01A524183098B4201D38B01C01A524143098B4201D34B01C01A524103098B42F9
:405A400001D30B01C01A5241C3088B4201D3CB00C01A524183088B4201D38B00C01A524143088B4201D34B00C01A5241411A00D201465241104670475DE0CA0F00D04942E8
:405A8000031000D34042534000229C4603098B422DD3030A8B4212D3FC22890112BA030A8B420CD3890192118B4208D3890192118B4204D389013AD0921100E08909C30907
:405AC0008B4201D3CB01C01A524183098B4201D38B01C01A524143098B4201D34B01C01A524103098B4201D30B01C01A5241C3088B4201D3CB00C01A524183088B4201D30A
:405B00008B00C01A5241D9D243088B4201D34B00C01A5241411A00D20146634652415B10104601D34042002B00D54942704763465B1000D3404201B5002000F005F802BD2A
:405B40000029F8D016E770477047C046F0B55F4656464D464446F0B40D0399464E002B0B87B00700924680469B46760DCC0F002E69D06D4B9E4235D05B468022DD00120454
:405B8000430F13432B439B46C3009846674B00279C460023664401934A4615035000D20F53462D0B400D914600D176E05E4A90426CD080225B0F120413435C4AED009446A1
:405BC0001D4353460022DB00604449463618701C6140029017430F2F00D9AFE05448BF00C759BF465B461F4300D088E000239B469846023308270193CEE74946022A6AD030
:405C0000032A00D109E2012A00D0BBE111400022002300259046CCB200212D030A0D12052D0B1543434A1B0515401D436D00E4076D0825434046290007B03CBC904699461C
:405C4000A246AB46F0BD034352D05B46002B00D18AE1584600F06CFA03000B3B1C2B00DD7BE11D22D31A3A0001005D46DA4008398D4013008F402B439B46B8462E4B002770
:405C80009C46002360444642019385E752462A432CD100250023022297E752462A4321D0002D00D154E1280000F042FA03000B3B1C2B00DD46E11D21CB1A51460200D940E1
:405CC0005346083A954093400D431B4A944660444042002279E7012400220C40124B0025904699E70025002301226EE703226CE700239B4698460133042701934CE7032319
:405D00000C27019348E700238025984600242D03054B81E75D464346019A6FE75D4643462100019A6AE7C046FF07000001FCFFFFC4B20100FFFF0F80F30300004246120CBE
:405D400091461A0C9446424617044A461B041B0C5A43604690464A4642431000039262461C003F0C7A437C4342440192220C9246019A5244904506D9824680204002804601
:405D8000C24450460390100C049048462404240C1204121905922A0C2D042D0C68432C00824648467C4350438146200C8046574357444744BA4503D9802040028046C14426
:405DC000380C3F04B84648442404240C01900498A044404404905846000C814658460404200C8246070048465F434C464343604660436446834650464443380C8446E418D4
:405E00006444A34203D980235B029C46E34448463F04230C3F0C2404E419574668436F4384464D46504655434243380C814662444A445B44944503D980204002844665448E
:405E400003983F04834604983F0C8446E344C345804140428246100484460198674484466744A344BC46A345A4419946D44464428742BF41D4458041E144A04699459B413E
:405E80007F424042C8440743120CBA18A045A4415F423B0064422343D71843467D19DB0D6D021D435B465A02059B1A43531E9A415B46DB0D1A4343465B021343EA0107D5B3
:405EC00001225C0813402343EA07029E13436D08574AB218002A4BDD580709D00F201840042805D0181D98429B415B42ED180300E80104D54F4A15408022D200B2184E4875
:405F0000824200DDE7E60124DB08680718436D02530580462D0B5B0D0C407DE6802259461203114208D0154206D115432D0398462D0B4C46414B6FE65D4615432D032D0B22
:405F40003E4B69E603005546283B9D400023BCE6504600F0EDF82030A8E60300283B9F400023BB46984689E600F0E2F8203073E60124A61A382E07DD00220C40002300254F
:405F8000904649E6029EA3E71F2E20DC20222C001800921BF040944093400443581E83411C43F540630709D00F232340042B05D023001C1D9C4292415242AD182B021FD5E7
:405FC000012400220C4001230025904624E61F202C004042821AD440202E1CD04022961BB5402B43581E83410720234318400025002809D00F2200251A401C00042AD8D1B0
:40600000230068076D022D0B0124DB08034398460C40002300E60025E3E780220124120315432D0398462D0B0C40044BF4E5C046FF030000FFFFFFFEFE070000FF070000BB
:406040000B0330B5134D1A0B4B005B0DC90F0024AB4211DD104CA34210DC8024640322430E4CE41A1F2C0CDD0D48C31ADA4013005C42002900D11C00200030BD094BCC189D
:40608000FAE7E040084CA44663449A4013000343EEE7C046FE0300001D0400003304000013040000FFFFFF7FEDFBFFFF70B5002830D0C317C4185C40C50F200000F038F867
:4060C000174B184A1B1AD21A1F2A18DD164AD21A9440002224035B05240B5B0D0021100024030A0D1205240B1443104A1B0514401C436400ED0764082C43210070BD210042
:4061000091400A000B21081AC4405B052403240B5B0DE3E70025002300240022DEE7C0461E0400003304000013040000FFFF0F801C2101231B04984201D3000C10391B0A4C
:40614000984201D3000A08391B09984201D30009043902A2105C40187047C04604030202010101010000000000000000014B18687047C0461C1100200E4B70B500251E0043
:406180000D4CE41AA410A54204D0AB00F35898470135F8E715F0D2F8084B00251E00084CE41AA410A54204D0AB00F35898470135F8E770BD48B3010048B3010048B30100FE
:4061C00050B3010030B50024A24208D0035D651C0C5DA34201D0181B02E02C00F4E7002030BD002310B59A4203D0CC5CC4540133F9E710BD03008218934202D019700133F4
:40620000FAE770470EB410B59DB002A9029008610B48822488604861012040421FABC881084804CBA400006801938C8100F06EF80023029A13701DB010BC08BC03B0184739
:40624000FFFFFF7F1C110020F0B58E6885B007000C00039201939E4243D890238A89DB001A423ED003250969236801985B1A029363695D43EB0F5D19029B6D1001331B181E
:40628000AB4200D91D00530510D52900380000F037FB061E14D0029A2169FFF7A2FFA289194B134080221343A38112E02A00380000F086FB061E0CD12169380000F0D4FA32
:4062C0000C23402201203B60A38940421343A38117E0029B2661F61826606561019EED1AA560019BB34200D21E0032000399206800F0A5FA0020A3689B1BA36023689E197D
:40630000266005B0F0BDC0467FFBFFFFF0B59FB0029005938B890F0016001B0610D50B69002B0DD1402100F0EBFA38603861002804D10C23029A01381360D8E040237B614B
:40634000002306AD6B6120336B761033AB7634002378002B03D1A31B049312D003E0252BF9D00134F4E7A31B320039000298FFF76BFF431C00D1B4E06A69049B94466344F8
:406380006B612378002B00D1ABE00122002352426A6002A95432521801342B60EB60AB601370AB65534E21780522300000F03CFA002807D00123801B83402A6801341343B2
:4063C0002B60EFE72B68DA0604D55322202102A8121811701A0704D553222B2102A81218117022782A2A03D0099B00200A210EE0059A111D12680591002A01DB099204E0D5
:406400005242EA60022213432B6001340BE02278303A092A04D84B4301349B180120F6E7002800D0099323782E2B1ED163782A2B0AD1059B02341A1D1B680592002B01DA23
:4064400001235B42079310E000230A201A0001346B6021783039092904D84243013452180123F6E7002B00D00792234E21780322300000F0D9F9002806D04023801B8340C1
:406480002A68013413432B60217806221B48661C297600F0C9F9002812D0194B002B06D10722059B073393430833059314E005AB00933A00134B2900029800E000BF07E009
:4064C00005AB00933A000F4B2900029800F08AF80390039B013304D06B69039A9B186B6135E7BB890B985B0601D5012040421FB0F0BDC04606B301000CB3010010B30100CA
:406500000000000049620000F7B5170001938A680B6900900C00934200DA130022003B6043321278002A01D001333B6023689B0602D53B6802333B60062523681D401ED098
:40654000230043331B785A1E9341226892061CD53020E1184331087021005A1C45310978A2184332023311700FE022000123193201990098089EB047431C0ED00135E368DB
:406580003A689B1A9D42F0DBDAE72200019943320098089DA847431C02D10120404220E006232068E1683A6803400025042B03D18D1AEB43DB171D40A3682269934201DD73
:4065C0009B1AED180027BD420AD0220001231A3201990098089EB047431CDED00137F2E70020FEBDF0B58BB006920A0043320793059004920A7E0C00109B6E2A00D1ABE098
:4066000011D8632A22D009D8002A00D1B5E0582A00D0C5E045310A70814A4FE0642A1DD0692A1BD0BCE0732A00D1AAE009D86F2A29D0702A00D0B3E0202209680A43226021
:4066400037E0752A1FD0782A33D0A9E00E001A684236111D196013683370A4E021681A68080606D4490604D5111D19600023D55E02E0111D19601568002D3BDA2D23049AA8
:406680006D42137036E021681A68080606D4490604D51568111D1960ADB202E0111D196015685F4B227E039308276F2A1DD00A271BE022007821453211705A4A19680392C0
:4066C000081D226818600D68100602D4500600D5ADB2D30702D520231A4322601027002D03D1202322689A4322602300002243331A7002E00A274A4B03936368A360002BD5
:4067000009DB0422216891432160002D05D1049E002B11D07BE0002D79D0049E28003900FFF724F9039B013E5B5C280033703900FFF796F8051EF1D1082F09D12368DB075A
:4067400006D563682269934202DC3023013E3370049B9B1B23612BE009681A68080607D4490605D5111D19601368A28A1A8004E0111D1960136862691A600023049E23619B
:4067800016E01A68111D1960166800216268300000F04AF8002801D0801B6060636803E0260042363270012323610023049A1370079B09AA00932100069B0598FFF7A4FEE2
:4067C000431C02D10120404227E02369320006990598079DA847431CF4D0236800259B070FD4099BE068984217DA180015E022000123193206990598079EB047431CE1D09B
:406800000135E368099A9B1A9D42F0DBE9E72600039B42361B7833708EE70BB0F0BDC04617B3010028B30100C9B28218904204D003788B4202D00130F8E70020704710B588
:40684000884202D98B18984201D3002305E09B1A013A08D3995C8154FAE7934203D0CC5CC4540133F9E710BD70B50500002944D00C1F2368002B00DAE418280000F0D8F8D5
:406880001E4A13681100002B02D16360146031E0A3420DD92268A018834203D118685B688218226063600C6024E0A24203D813005A68002AF9D11E689819A0420BD1216860
:4068C000711858181960824214D110685268411819605A600EE0A04202D90C232B6009E021686018824203D1106852684118216062605C60280000F09CF870BD58230020DA
:40690000032370B5CD1C9D43083506000C2D01D20C2501E0002D01DBA94202D90C23336048E0300000F084F8234B1C681A002100002913D00B685B1B0DD40B2B02D90B600E
:40694000CC181EE08C4202D1636813601AE04B6863600C0016E00C004968E9E7174C2368002B03D1300000F051F820602900300000F04CF8431C18D00323C41C9C43A042E6
:406980000DD12560300000F054F8200007220B30231D9043C31A0ED05A42E2500BE0211A300000F033F8431CEBD10C233000336000F03FF8002070BD5823002054230020C4
:4069C000F8B506000C001500002904D11100FFF797FF040018E0002A03D1FFF745FF2C0012E000F027F885420ED929003000FFF787FF071E07D021002A00FFF7F2FB2100F9
:406A00003000FFF731FF3C002000F8BD002370B5064C050008002360FAF780FE431C03D12368002B00D02B6070BDC0461C240020704770470B1F1A68101F002A04DA89188D
:406A400004390B68D018043870470000134A1088810703D08107890F401A001D11791030484381B25088820703D08207920F801A001D800040180A494030098980B2CA07D7
:406A800001D0503080B2890706D504495422091F09785143081880B270470000520D00209011002010B501F011FF10BD10B501F013FF10BD10B500F05BFA10BD10B507498B
:406AC000044609780220002907D1204601F054FF002802D120460CF003F910BDFE0E002070B504460120002C12D02368002B0FD0616800290CD0074D06222889208118467F
:406B00002968FFF76EFB6968606809780170002070BD000090110020FFB585B0002768460E9D07734F481C460078002802D0082009B0F0BD10990F9801900095029105A83A
:406B400007C800F007F90028F2D16946264603AB84460873002C19D0002115E08A00B75A082F09D990198078002805D0083FB7521878401C187005E0002914D00027B752FA
:406B800090198770491CC9B2A942E7D360460028CED10F98002809D0109901F047FA002804D00120C4E701208446EFE701F094FE2D480021416081600599016021888180F3
:406BC000022D07D3A1798171A17AC171A1890181218A418100211EE0481C19E082008B00A75AE65ABE46BE4211D26F463E80B4461E190296B678BE7001967646E652171916
:406C0000029EBB78B3706646A652019EBE70401CA842E3D3491CA942DED3134822460C3000906846037B0799069800F01BF90028B8D168460B4C007B60700B480C3001F072
:406C40007BFE0028AED1084907480C3108F090FF0028A7D108F0AAFF0028A3D10121217066E700004C0D002084110020F8B5054636480F460078002802D002242046F8BD07
:406C8000002F60D000243249002D16D02A89D0070DD02868002808D003881B3BE12B04D24088FB2801D81B2801D2012409E0900707D56868002804D1F7E7002008810860F2
:406CC0004860002CDAD122482E8906811F481B21801D01804180042101711C490020891C0870F00705D019480622801D2968FFF778FA1749B00703D56A681448127882702E
:406D0000124D0E46AD1D281F0D60486001F05AFE284601F049FE30890FF094FF30890FF02FF828880FF032F8308910F00BF903461033FFF78BFE1F21C0188901401838800E
:406D4000A91F88809AE7012498E700004C0D002090110020FFB58446384F1C460020BB883F78054602460646002F11D100290ED0029999420BD36146002908D0002C06D06E
:406D80000A99002906D02E4B0B99994202D2012004B0F0BD002144E0AB001F19BF78002F3BD0E35A002B38D07B43591889B22B0000F04AF8050410161C253100A7782388A8
:406DC000BC46FF27233BEB37BB4222D26346032B1FD322E0A388002B1FD0302B19D31CE02389002B19D0282B13D316E0A289002A13D01346134F233BBB420AD20DE0268AF1
:406E0000002A0AD033460F4F233BBB4201D2964203D901200EE0002001E000280AD16D1CEDB2099B9D42B7D31C2463435B1802998B42ACD89642AAD8AAE700004C0D0020A4
:406E400079020000BAFF000030B47446641E2578641CAB4200D21D46635D5B00E31830BC18470000FFB583B0002469460C801F4606468C80002806D00598002803D00498E9
:406E80003043800701D0012466E0002FFBD03449049809888842F6D3FEF7D8FBFEF7BEFB00F016FC002855D100F07EFD002851D12C49084601F0EEF805042D0C4AD12A4881
:406EC0000499066081800021C18007810C98007AC00704D0684601F018FD040007D10C98007A800703D501A801F018FD0446BF1DFEB2002C20D13146059800F05DF80400DF
:406F00001AD110F02DF8040016D16A461088928808368518144AF1B29088D288AEB29319984207D3401B801A80B201F0A3FB050007D000E0FF25012400F062FA002D04D0DE
:406F400008E0F8B200F01CF9F6E700F085FA07490120087000F0CEFB204607B0F0BD0000500D0020A57000009C110020580D002010B503480078012801D101F01DFA10BD86
:406F8000580D002070B5084B0446DA889E8803205518B54206D8186880182060D8884018D880002070BD00009C11002001480089704700009C110020F0B587B007460D4609
:406FC00000208900009006916846FFF7DBFF844600285DD1304800990160002117E02E4B88001A680629115406D22C4C0419667882185670628805E0C419203CA67A821815
:40700000567022891B68C018491C4280C9B2A942E5D300242DE0601CC2B2059025E01E4FA30039689600581840887118039604904E88B04217D938466F46FE80B6464F7823
:407040006E4677710297049F4F800168039F5E18767879184E700168764659184E800068029F18184770521CD2B2AA42D7D30598C4B2AC42CFD36046002809D16846069937
:40708000FFF780FF8446002802D1054900980860604607B0F0BD00005C0D002070B30100600D00207047000010B5002809D005494A68002A05D0011F08788000105801F00F
:4070C00087FA10BD5C0D002010B50446FFF76EFFC0B2801DA0420CD307484068002808D0A100405801F0E6F9002801D00470001D10BD002010BD00005C0D0020F8B51646A1
:407100000D460446FFF752FFC0B2801DA04203D20020C0430090F8BDB2B2E9B2684601F0EFF90099481C03D0024AA000526811500098F8BD5C0D0020F8B50746FFF736FFE5
:40714000801DC6B20A49002005460C680DE06178002907D06188B94202D32078FFF7B4FF002804D1241D6D1CEDB2B542EFD3F8BD5C0D002010B5002801D0FFF795FF10BD96
:4071800070B506460948002504680BE06178002905D062882078121D0023FFF7AFFF241D6D1CEDB2B542F1D370BD00005C0D0020FFB581B00A9F16000C4620D000F0F6F8A4
:4071C000054604281BD0002F0CD03846FFF7B4FF20492A0151184860002810D03A460499FEF7FFFF1B4928010E504618778101980570200406D47D20C000444304E0FF200A
:4072000005B0F0BD6404640C00F0BEF80746042807D000F053FAA0420BD800F04FFA201A03E0204600F0AEFA0020F06035720020E6E700F043FA009000F0BAFA00980121A9
