:4000000000800020110000000D1400000D14000080B500AF01F02CFA80B500AF384B12221A6004F073F9374B180004F079FE012004F07CF9182003F09BFF334B334A1A6094
:40004000334B8022D2051A60324B324A126802210A431A60304B314A1A60314B00221A60304B304A126808218A431A60FA23DB00180004F06FF82C4B180004F0E7F82B4B08
:40008000EF2212021A602A4B2A4A1A602A4B2B4A1A60274B2A4A1A602A4B284A1A60244B294A1A60294B254A1A60214B284A1A60284B882292011A601D4B274A1A60274B19
:4000C000802212061A60264B00221A60254B41221A60254B43221A60244B42221A60244B44221A60234B40221A60094B8022D2051A60034B11221A60C046BD4680BDC046AF
:4001000030001040001BB70004010B40060000800C020B4078002E407C002E402D3E000064F02E406CF02E40DC050000040301400000014041FF00800C03014000BF5D00E1
:4001400043FF00800803014042FF00801003014044FF00800003014040FF008008010B4000010B402C01014024010140200101401C0101400401014080B582B000AF72B6DE
:40018000494B00221A60FB1D00221A7022E0FB1D1A7813005B009B185B00444A9B183B603B681A78597809020A43997809040A43DB781B06134318003B681A795B791B0275
:4001C00013439BB2190001F0BBF8FB1D1A78FB1D01321A70FB1D1B78012BD8D9344A354B1100180001F0BCF8334BEE2212061A60324B992212041A60314BC02292041A6076
:40020000304BCC2292051A602F4B992212041A602E4B992212041A602D4B992212041A602C4B802292051A602B4B992212041A602A4BD02252051A60294A294B1B78DBB2CE
:400240003C218B43DBB214210B43DBB21370254A244B1B78DBB216210B43DBB21370224BD82212041A60214B20221A60204BC42292021A601F4B20221A601F4B40221A60B6
:400280001E4B8022D2021A601D4BC0221A601D4B902292031A60FFF7BFFE01F0A3F8C046BD4602B080BDC0466CF02E40889D0100A89D0100949D01000000024000010240CE
:4002C000000202400003024000500F4010500F4020500F4028500F4030500F4038500F4001700F4000700F40080004400001044008010440180104400002044008020440AD
:40030000000304400803044010B5064C2378002B07D1054B002B02D0044800E000BF0123237010BD1811002000000000CC960100084B10B5002B03D00749084800E000BFB5
:4003400007480368002B00D110BD064B002BFBD09847F9E7000000001C110020CC960100A80B00200000000080B500AF00F012F8074B180003F0CEFD202003F0E7FD05F05F
:4003800029FD00F0A7FD00F09DFE00F0DFFEF6E7D096010080B500AF62B6364B180001F055F904F02DFB344B180004F08DFA334B180004F051FC324B180004F025FA03F073
:4003C000DBFA03F0C7FBFF2003F05CFBFF2003F069FBFF2003F044FC062003F073FB062003F088FB062003F09DFB264B180000F0E7F9254B9B68254A1000190020231A00AD
:4004000005F07FF8204B9B68DB7F1C2B15D81E4B9B68DB7F1A001D4B012199541A4B9B68DB7F01331A4A1178184AD154164B9B68DB7F0233DAB2154BDA77134B134A9A60AE
:40044000802003F02FFB142003F0DAFEFF2003F029FB03F0ADFC0F4B180003F05BFD0E4B180003F057FD202003F070FDC046BD4680BDC04641080000D90400009D040000C6
:4004800059050000CC0C0000380C002058230020C40B0020E0960100EC96010080B500AF0A4B180003F036FD022004F0C7FB084B180003F02FFD074B0421180000F05CF872
:4004C000012004F0BBFBC046BD4680BD3C97010084970100BC0B002080B500AF1A4B1B68002B27D1194B1B78002B23D0184B1B689A00184BD318180000F0B4FE00F0EAFCB2
:4005000000F0E0FD00F022FE114B1B685A1C104B1A600F4B1B68042B02D10D4B00221A600A4B00221A7004F0FBF8002004F012F904F0E4F8022004F0C1FA012004F0BEFA6C
:40054000C046BD4680BDC04634110020C00B002038110020AC0B002080B500AF054B01221A70012004F042F9022004F03FF9C046BD4680BDC00B002080B584B000AF7860FF
:400580000A00FB1C1A70FB1C1B78042B50D17B681B781A007B6803331B785343FF21180004F088FE03001A000F23FB181A707B6801331B781A007B6803331B785343FF2100
:4005C000180004F077FE03001A000E23FB181A707B6802331B781A007B6803331B785343FF21180004F066FE03001A000D23FB181A700F23FB181B78DB43DBB2180003F080
:4006000041FA0E23FB181B78DB43DBB2180003F049FA0D23FB181B78DB43DBB2180003F01FFB054B180003F075FC202003F08EFCC046BD4604B080BDD897010080B582B0AF
:4006400000AF0200FB1D1A70FB1D1B78062B27D89A00184BD3181B689F46174B180003F059FC22E0154B180003F054FC1DE0144B180003F04FFC18E0124B180003F04AFC25
:4006800013E0114B180003F045FC0EE00F4B180003F040FC09E00E4B180003F03BFC04E00C4B180003F036FCC046C046BD4602B080BDC04610990100E89701000C98010041
:4006C000349801005898010080980100A4980100CC980100F498010090B585B000AF0200FB1D1A70FB1D1B780A21180004F0DEFD0B00DAB20C23FB181A70FC1DFB1D1B7843
:400700000A21180004F04CFD03002370FB1D1B780A21180004F0CAFD0B00DAB20C23FB185A70FC1DFB1D1B780A21180004F038FD03002370FB1D1B780A21180004F0B6FDFC
:400740000B00DAB20C23FB189A700C23FB189B78002B1BD10C23FB185B78002B07D10C23FB181B783033180003F042FB23E00C23FB185B783033180003F03AFB0C23FB1895
:400780001B783033180003F033FB14E00C23FB189B783033180003F02BFB0C23FB185B783033180003F024FB0C23FB181B783033180003F01DFBC046BD4605B090BDC0461F
:4007C00080B582B000AF786003F0FAFD0121002003F038FE0121002003F062FE7B681900002003F0C3FE5A2003F030FD012003F08DFE03F0BBFD044B180003F051FAC046C2
:40080000BD4602B080BDC0460D08000080B500AF03F0A8FA03F0F2FE02000423134009D0042003F0F9FE054B1B889BB201339AB2024B1A80C046BD4680BDC0465423002062
:4008400090B597B000AF786039607B682B2B5AD00FD8262B2BD005D8012B1DD0202B00D125E108E3272B00D13EE2282B00D1ADE201E34C2B64D004D8412B51D0422B57D0B1
:40088000F9E24E2B00D1DEE000D27AE289225200934200D1E2E2EEE2B64B180003F03AFB202003F053FB002000F068FFE3E2B24B180003F02FFBB14B1B781800FFF7BEFE67
:4008C000202003F043FBAD4B1B78062B00D0C7E2AB4B1B78002B00D0C2E2002000F04EFF5623FB181B88002B00D0B9E2A54B180003F010FBA14B1B781800FFF79FFE202098
:4009000003F024FBACE2A04B180003F003FB9B4B1B781800FFF792FE202003F017FBAAE29A4B180003F0F6FA202003F00FFBA2E2974B180003F0EEFA202003F007FB9AE214
:400940004423FB183A6813CA13C312681A604423FB189B890E2B67D14423FB181B89042B59D18C4B180003F0D5FA202003F0EEFA4423FB185B681A78874B1A704423FB18BD
:400980005B685A78844B5A704423FB185B689A78814B9A704423FB185B68DA787E4BDA707E4B1A687E497F4B180004F0BBFD7D4B180003F0AFFA794B1B68002B01D000F0F3
:4009C000A1FC754B04211800FFF7D6FD764A4423FB18181D0023002114F04CF8734B1B780133DAB2714B1A70714B180003F092FA6E4B1B781800FFF76FFE202003F0A6FA55
:400A00005F4B01221A706B4B180003F083FA202003F09CFA08E04423FB189B890D221900122000F0EBFB26E25F4B1A785B781B021A4300231204120C1B0C1B0413431800E6
:400A400012F010FE17E21423FB183A6813CA13C312681A601423FB189B89112B00D001E21423FB181B89012B00D0FBE11423FB185B681A784D4B1A704C4B1B78013BDAB204
:400A80004A4B1A70484A1423FB18181D0023002113F0F0FF484B180003F03CFA434B1B781800FFF719FE202003F050FADAE1334B1B78022B00D1D7E12423FB183A6813CADE
:400AC00013C303CA03C33D4B180003F023FA202003F03CFA2423FB181B78002B00D091E02423FB181A7A364BDB7F9A4200D089E02423FB18DA682423FB181B7A023BD3188A
:400B00001B78012B00D07DE02423FB18DA682423FB181B7A013BD3181A78244B1B789A420ED32423FB18DA682423FB181B7A013BD3181B78FF2B4DD11C4B1B78002B49D1FA
:400B4000204B01221A702423FB185B681E4A1000190006231A0004F0D4FC2423FB185A781A4B1A701A4B180003F0D4F9202003F0EDF947E03099010044990100E223002043
:400B80003C1100207099010088990100A8990100C4990100E4990100BC23002034110020049A010080230020F4230020C40B00203C9A01007C9A0100949A0100CC9A01000E
:400BC000582300203D110020B42300203E110020F49A0100A94B00221A70A94B00221A70A84B00221A70A74B00225A70A54B00229A70A44B0022DA70A24B00221A71A14B3D
:400C000000225A712423FB181B78042B00D02BE12423FB181B7A142B00D025E1974B1B78002B00D120E12423FB185B6895490622180004F057FC031E00D015E12423FB1896
:400C40005A788F4B1B789A4200D00DE12423FB18D8682423FB181B7A1A008B4B190004F041FC031E00D0FFE0884B180003F052F9202003F06BF900F081FE854B180003F0FE
:400C800049F9202003F062F92423FB185A78814B9A712423FB185B681A787E4B1A702423FB185B685A787B4B5A702423FB185B689A78784B9A702423FB185B68DA78754BB5
:400CC000DA702423FB185B681A79724B1A712423FB185B685A796F4B5A716F4B01221A70664B00221A70BFE06C4B1B78022B00D0BCE06B4B01221A706A4B180003F00AF9D1
:400D0000694B1B781800FFF799FC202003F01EF93823FB1811221A813823FB18634A1A603823FB1801229A803823F918604B1A785B781B021A4300231204120C1B0C1B0470
:400D40001343180012F054F90823FB180E221A810823FB18574A1A600823FB1804229A800823F918524B1A785B781B021A4300231204120C1B0C1B041343180012F02EF9EA
:400D800074E04D4B180003F0C5F8474B1B781800FFF754FC202003F0D9F8454B1B78002B66D0434B1B78180010F07CFE434B01221A70434B180003F0ADF83B4B1B78180017
:400DC000FFF73CFC202003F0C1F851E0344B00221A703C4B180003F09DF8334B1B781800FFF72CFC202003F0B1F82C4B1B78012B17D1354B1B78012B13D02B4B1B78062BB9
:400E00002BD1002000F0BAFC304B180003F082F8254B1B781800FFF711FC202003F096F81BE01E4B1B78022B24D1274B1B78012B20D01D4B1B78062B1CD1002000F04CFD65
:400E4000234B180003F066F8174B1B781800FFF7F5FB202003F07AF80CE00BE0C0460AE0C04608E0C04606E0C04604E0C04602E0C04600E0C046BD4617B090BD3D1100201F
:400E80003E110020B4230020C80B00200C9B01001C9B0100782300203F110020DC0B002040110020309B0100E2230020C40B0020F4230020BC230020589B0100411100205A
:400EC000749B0100A09B01003C11002070990100C49B010090B583B000AF684B1B78012B00D0C6E004F076FF654B1B78002B12D0634B1B78180010F0D5FD04F06BFF614BD2
:400F0000180003F007F8604B1B781800FFF796FB202003F01BF85D4B1B78012B02D0022B4CD0A6E0584B1B78032B0FD100F090FC04F050FF564B180002F0ECFF524B1B78B3
:400F40001800FFF77BFB202003F000F84E4B1B78062B30D1BC1D002000F0BEFC03002380BB1D1B88002B17D14A4B180002F0D2FF454B1B781800FFF761FB202002F0E6FF79
:400F8000454B1B889AB2454B1A80404B02221A703A4B00221A700EE03C4B01221A70404B180002F0B7FF384B1B781800FFF746FB202002F0CBFF04F00DFF5AE0324B1B7806
:400FC000042B0AD100F0DAFC04F004FF354B180002F0A0FF202002F0B9FF2B4B1B78062B44D1314BDB7F013B304A11782E4AD1542F4B2D4A9A602F4B180002F08BFF2B4BA7
:401000001B781800FFF768FB202002F09FFFBC1D002000F0B3FB03002380BB1D1B88002B15D11A4B01221A70234B00221A70134B00221A70214B180002F06CFF124B1B780C
:401040001800FFF7FBFA202002F080FF0EE00F4B02221A701A4B180002F05CFF0A4B1B781800FFF7EBFA202002F070FF04F0B2FEC046C046BD4603B090BDC0463C1100205A
:40108000F4230020D89B0100E2230020DC0B0020F89B01001C9C01005423002042110020349C01004C9C010058230020C40B0020380C0020649C01003F110020789C0100D4
:4010C000989C010090B583B000AF1B4B1B78002B2ED004F07FFE194B1B78062B28D1164B00221A70BC1D164B180000F059FC03002380BB1D1B88002B0CD0124B180002F0AD
:4011000009FF0E4B1B781800FFF798FA202002F01DFF0BE00C4B180002F0FCFE074B1B781800FFF78BFA202002F010FF04F052FEC046BD4603B090BD3F110020E2230020EC
:4011400078230020C09C0100D89C010080B500AF214B1B78022B1CD1204B1B889BB21A001F4B1B889BB2D31A2D2B12DD1D4B1B78062B03D01B4B1B78042B0AD11A4B012258
:401180001A701A4B180002F0C5FE202002F0DEFE1FE0174B1B78002B1BD004F01BFE114B1B78062B15D1124B00221A70114B180002F0B0FE202002F0C9FE002000F08CFB9B
:4011C00004F008FE0C4B180002F0A4FE202002F0BDFEBD4680BDC046DC0B00205423002042110020E22300203C110020F09C010041110020189D0100309D010090B585B01F
:4012000000AF040008001100FB1D221C1A703B1D021C1A80BB1D0A1C1A700C23FB18FA1D12789A700C23FB183A1D12881A800C23FB18BA1D1278DA700C23F918084B1A789E
:401240005B781B021A4300231204120C1B0C1B041343180012F08EF9C046BD4605B090BDF423002080B586B000AF78607B681A781F4B1A707B685A781D4B9A707B689A78D4
:401280001B4B5A707B68DA78194BDA70184B04211800FFF771F90C23FB180E221A810C23FB187A681A600C23FB1804229A80114A0C23F8180023002113F0DCFB0E4B0122BA
:4012C0001A700E4B1B780133DAB20C4B1A700C4B180002F01FFE094B1B781800FFF7FCF9202002F033FEC046BD4606B080BDC046BC230020F42300203C110020C40B002078
:401300003C9A010080B500AF0A4B180002F002FE03F02EFC002003F045FC03F017FC064B1A68064B1B685343180003F04BFCC046BD4680BD589D010034110020E00B0020E1
:4013400080B582B000AF786039603A687B680021180004F0DFF8C046BD4602B080BDC04680B586B000AF7860396000233B6100237B612FE07B699B007A68D3181B68BB601D
:401380000F23FB18BA681A70BB68FF229343BB6018E03B695B003A68D3181B781A00BB68D31819003B695B003A68D3185B780B703B6901333B610F23FB181A780F23FB1845
:4013C000013A1A700F23FB181B78002BE1D17B6901337B617B69042BCCD9C046BD4606B080BDC04680B500AF054B03221A60054B03221A60044B00221A60C046BD4680BDD2
:401400003000304030003140000E3F4080B500AF04F03CF803001B680C2B00D1FEE7FEE780B584B000AF78600F4B1A687B68D3181A000E4BD31A802B09DC0B4B1B68FB60BC
:40144000094B1A687B68D218074B1A6007E004F01DF803000C221A6001235B42FB60FB681800BD4604B080BDE40B00201024002080B586B000AF224B7B61224B3B61204B9D
:401480007B6135E03B691B68FB603B695B68BB603B699B683B6000237B600CE0FB681A68BB681A60BB680433BB60FB680433FB607B6804337B607A683B689A42EED13B6966
:4014C000DB683B6000237B6008E0BB6800221A60BB680433BB607B6804337B607A683B689A42F2D13B6910333B617B69013B7B617B69002BC6D103F0CFFFFEF735FFFEE7E7
:4015000001000000BCA2010080B582B000AF154B144A126801218A431A6000237B600FE07B68032B04D8104B7A689200D35800E00E4B0F4A796889008B507B6801337B60F7
:401540007B682F2BECD9FEF717FE0A4B00221A60044B044A126801210A431A60C046BD4602B080BD00001040000000000D14000000000020C000002080B500AF1B4B002299
:401580001A701B4B00221A701A4B00221A701A4B00221A70194B5A88194B1A80174B9A88174B5A80154B9A79154B1A73134BDA79134B1A71124B0822DA81114B0A221A8269
:4015C0000F4B00225A820E4B64229A820C4B0022DA820B4B012252421A830A4B1E221A8000F012F8C046BD4680BDC04609240020F023002007240020062400204C0C002017
:40160000C4230020DE23002080B500AF0C4B1B88002B05D10B4B0E220021180003F07AFF074BDB88002B05D1074B06220021180003F070FF01F016FEC046BD4680BDC0465C
:40164000E40C0020F8230020E8230020B0B594B004AF78603E23FB1800221A802823FA183E4B1000190014231A0003F04AFF3C4B1B78002B04D1FFF77FFF394B01221A7035
:401680007B68002B5FD0374B7A681A603E23FB181B88002B29D11023FB181C22BA185A601023FB182022BA181A601023FB1800221A812023FB181B221A802023FB181B222C
:4016C0005A802023FB1804221A711C23FB1808221A703E23FC180E23FA181023FB181100180004F053FC030023803E23FB181B88002B2CD13E23FC182823FD18AE231A01F3
:4017000019491A480023029300230193052300932B0004F091FB030023803E23FB181B88002B14D1124B01221A70124B08221A703E23FC18104B0F221121180013F082F95F
:401740000300238003E03E23FB1801221A803E23FB181B881800BD4610B0B0BD909E010044110020C0230020C800002099200000E2230020E3230020DC9E010090B585B0C8
:4017800000AF0200FB1D1A70FB1D1B78022B04D90E23FB1801221A804AE0294B1B78062B41D1284B1B78DBB21A00042313403AD1FB1D1B78002B0BD1234B08221A82224B27
:4017C0005B6820221A80204B5B6830225A8010E0FB1D1B78012B0CD11B4B96221A821A4B5B68C822D2001A80174B5B688022D2015A80164BFA1D12781A700E23FC18124B72
:40180000180010F0EDFC030023800E23FB181B88002B0DD10B4B1B78DBB204221343DAB2084B1A7004E00E23FB180422FF321A800E23FB181B881800BD4605B090BDC04693
:40184000E223002009240020380C00200724002080B500AF10F05CFD054B1B78DBB208221343DAB2024B1A70C046BD4680BDC0460924002080B584B000AF78600A00FB1C0D
:401880001A700023BB60BB68002B20D07B689A79BB681A700F23FB1800221A7012E00F23FB181B780133BA68D3180F22BA18127879688A5C1A700F23FB181A780F23FB1889
:4018C00001321A700F23FB181B78052BE7D9C046BD4604B080BDC04690B585B000AF0200FB1D1A70FB1D1B78022B04D90E23FB1801221A8035E0FB1D1B78002B09D11C4BB4
:4019000008221A811A4B30225A80194B20229A800EE0FB1D1B78012B0AD1154B96221A81134B802212015A80114BE122D2009A80104BFA1D12781A700E23FC180C4B1800CC
:4019400010F0D4FB030023800E23FB181B88002B07D1094B1B78DBB204221343DAB2064B1A700E23FB181B881800BD4605B090BD4C0C0020062400200924002080B500AFBA
:4019800010F0DEFB054B1B78DBB208221343DAB2024B1A70C046BD4680BDC0460924002090B585B000AF7860294B1B78062B05D00E23FB180422FF321A8041E07B68002BF0
:4019C00004D10E23FB1801221A8039E00D23FB1800221A7012E00D23FB181B780D22BA1812787968895C1B4AD3180A1C5A710D23FB181A780D23FB1801321A700D23FB1897
:401A00001B78052BE7D97B689A79124BDA720E23FC18104B180010F017FB030023800E23FB181B88002B0BD1094B05221A700A4B1B88002B04D0084B1B8818000DF072FAB3
:401A40000E23FB181B881800BD4605B090BDC046E2230020C4230020DE23002090B583B000AF104B1B78052B04D0BB1D0422FF321A8011E0BC1D10F0DDFA030023800A4B91
:401A80001B88002B01D00DF067FABB1D1B88002B02D1044B06221A70BB1D1B881800BD4603B090BDE2230020DE23002080B582B000AF78607B681B789AB27B6801331B7879
:401AC0009BB21B029BB213439BB21800BD4602B080BDC04690B585B000AF78600F23FB1800221A707B689B890B22934232D17B68181D7A680F23FC184023002112F0BAFFFF
:401B0000030023700F23FB181B78002B1AD17B685B681800FFF7CAFF03001A00022313409BB2002B07D00F4B1B687968822252001000984706E00B4B1B6879680622FF3224
:401B400010009847084B1B78DBB201229343DAB2054B1A700F23FB181B781800BD4605B090BDC046C02300200924002080B582B000AF78607B68DB880D4A934214D10D4BBC
:401B80005B88002B08D17B689A880A4B5A807B689A78084B1A7007E0074B1B687A68911D8622520010009847C046BD4602B080BD052A0000E8230020C023002080B582B047
:401BC00000AF78607B689B880B4A934210D10B4B9B88002B04D17B685A88084B9A8007E0074B1B687A68111D8622520010009847C046BD4602B080BD02290000E82300209F
:401C0000C023002080B582B000AF78600C4B5A887B689B899A420ED10A4B1B6879688322520010009847084B1B78DBB201229343DAB2054B1A70C046BD4602B080BDC04649
:401C4000E8230020C02300200924002090B585B000AF78600F23FC187B681800FFF73AFF03002370154B1B78DBB21A00012313401FD10F23FB181B78002B16D00823FB18BA
:401C800012229A707B689A890823FB181A800823FB180F22BA181278DA700823FA187B681100186811F066FC03E07B68186811F0D9FCC046BD4605B090BDC0460924002065
:401CC00080B582B000AF7860C046BD4602B080BD80B582B000AF7860C046BD4602B080BD80B582B000AF7860C046BD4602B080BD80B582B000AF7860C046BD4602B080BD4C
:401D000080B588B000AF7860394B1B78022B6AD1384B1B88002B66D00823F918354B022208009B180422190003F0EBFB7B6859687B681B891A000823FB180433180003F031
:401D4000E0FB0823FB18180001F000FB294B1B8801339AB20823FB181A80274B1B781900264A0B005B005B185B00D31802331A880823FB185A800823FB181A880823FB181D
:401D80005B889A4221D80823F9181D4B1A785B781B021A4300231204120C1B0C1B041343180011F097F8031E12D0164B1B6884225200002110009847134B1B78DBB20222BC
:401DC0009343DAB2104B1A7002E0012000F0BCFC0D4B1B78DBB201229343DAB20A4B1A70044B00221A80C046BD4608B080BDC046E32300204811002008240020E40C00200B
:401E0000F4230020C02300200924002080B588B000AF7860394B1B78022B6AD1384B1B88002B66D00823F918354B022208009B180422190003F065FB7B6859687B681B89C9
:401E40001A000823FB180433180003F05AFB0823FB18180001F07AFA294B1B8801339AB20823FB181A80274B1B781900264A0B005B005B185B00D31802331A880823FB1887
:401E80005A800823FB181A880823FB185B889A4221D80823F9181D4B1A785B781B021A4300231204120C1B0C1B041343180011F011F8031E12D0164B1B68842252000021DA
:401EC00010009847134B1B78DBB202229343DAB2104B1A7002E0012000F036FC0D4B1B78DBB201229343DAB20A4B1A70044B00221A80C046BD4608B080BDC046E3230020D4
:401F00004811002008240020E40C0020F4230020C02300200924002080B500AF094B00225A70084B00221A70074B1B78052B03D1054B07221A7002E0034B08221A70C0464C
:401F4000BD4680BDF4230020E323002080B582B000AF78607B681B78032B3ED1264B1B78DBB21A000223134037D0244B1B78022B10D002DC012B05D024E0032B12D0042BC8
:401F800018D01FE01E4B1B680822FF3200211000984717E01A4B1B68842252000021100098470FE0164B1B680A22FF3200211000984707E0124B1B688522520000211000CB
:401FC0009847C0460C4B1B78DBB202229343DAB2094B1A70094B00221A707B681B78042B05D1084B1B78052B01D1FFF737FDC046BD4602B080BDC04609240020E323002023
:40200000C0230020E223002080B500AFC046BD4680BDC04680B584B000AF78600E23FB1800221A707B689B79002B1CD10F23FB1800221A7012E00F23FB181B787A68D35C8D
:40204000002B04D00E23FB1801221A700BE00F23FB181A780F23FB1801321A700F23FB181B78052BE7D90E23FB181B781800BD4604B080BD80B582B000AF0200BB1D1A8077
:40208000C046BD4602B080BD80B582B000AF7860C046BD4602B080BD80B588B000AF02003960FB1D1A70D44B1B78DBB201221343DAB2D14B1A70FB1D1B78712B00D919E2E4
:4020C0009A00CE4BD3181B689F461023FB1807221A701023FB1800225A701023FB18180005F064FE1023FB1807221A701023FB1801225A701023FB18180005F057FE002303
:40210000002B01D003F05EFEBD4B1B681800FFF781FF031E11D0BA4B1B68180003F05EFEB74B1B6800211800FFF7A4FBB44B1B6801211800FFF79EFB36E0B24B1B781A00EC
:402140003F231A40B04B1B789901FC231B010B401A43AE4B1B781903F8235B020B401A43AB4B1B785904FE231B040B401343BB61BB69DAB2A74B1A70BB691B0ADAB2A54BFC
:402180005A70BB691B0CDAB2A24B9A70A14B180003F024FE9F4B00211800FFF76BFB9D4B01211800FFF766FB03200FF025FE0C23FB183F221A700C23FB1800225A700C23A7
:4021C000FB1818000FF036FE934B06221A709CE13B681800FFF7BAFE97E13B681A788F4B1A7092E13B687B617B691B78002B00D082E17B695B78002B0BD1894B0022DA8025
:40220000874B00229A80864B864A1A607B69844A5A60794B1B78DBB201229343DAB2764B1A7069E1744B1B78DBB21A002023134000D063E17C4B1B78102B02D17A4B052214
:40224000DA707A4B1B78784A110018000FF08AFF03001A000A23FB181A800A23FB181B88002B06D0724B1B680A22BA18110036209847614B1B78DBB201221343DAB25E4B70
:402280001A706A4B1B78684A110018000FF056FB34E13B681800FFF7F7FE36E13B681800FFF7F2FE634B1B88002B01D00CF054FE594B02221A7028E1574B06221A7024E15F
:4022C000554B1B78022B00D11AE14B4B1B78DBB21A000123134000D112E1474B1B78DBB21A00042313400BD04B4B03221A70424B1B78DBB204229343DAB23F4B1A70FFE019
:402300003D4B1B78DBB21A00082313400BD0424B06221A70384B1B78DBB208229343DAB2354B1A70ECE03C4B1B78032B00D0E7E0394B06221A70E3E0374B1B78022B00D153
:40234000E0E02D4B1B78DBB21A000123134000D1D8E0294B1B78DBB21A00042313400BD02D4B04221A70244B1B78DBB204229343DAB2214B1A70C5E01F4B1B78DBB21A006A
:40238000082313400BD0244B06221A701A4B1B78DBB208229343DAB2174B1A70B2E01E4B1B78042B00D0ADE01B4B06221A70A9E03B681B881800FFF75DFEA6E01B4A3B68AE
:4023C0001000190002231A0003F09BF8134B00221A70194B00221A70FFF716FE95E0FFF79BFD92E03B685B88162B27D81E23FB183A6852881A8025E0092400203CA00100F7
:40240000600C00207CF2FF0F7DF2FF0F7BF2FF0F78F2FF0F580C0020E2230020F023002060110020A80B0020F80C0020F4230020C0230020DE230020E32300201E23FB18EB
:4024400017221A801E23FB1819883B681A8800231204120C1B0C1B041343180011F094F853E03B681800FFF7F1FB4EE03B681800FFF726FC49E03B68180000F065F844E091
:402480003B68180000F098FA3FE000F083FE3CE03B68180000F02AFD37E03B68180000F0C9FE32E03B681800FFF71AFC2DE03B681800FFF7A7FB3B681800FFF719FC204B6E
:4024C0001B78DBB21A00012313401DD13B68186810F0C6FC18E03B681800FFF711FC14E03B681800FFF792FC0FE03B681800FFF7EFFB0AE0C04608E0C04606E0C04604E037
:40250000C04602E0C04600E0C0460D4B1B78DBB21A00112313400ED0094B1B78DBB201229343DAB2064B1A70064B1B68FA1D1278396810009847C046BD4608B080BDC046F3
:4025400009240020C023002080B586B000AF78600023FB60774B1B78012B00D0E6E0764B1B78DBB21A000223134000D1DEE00A23FB187A6812891A800A23FB181B88062B17
:4025800005D00A23FB181B88142B00D0C7E00823FB187A6852891A801423FB1800221A80ABE07B685A681423FB181B88D318FB601323FB1800221A70FB681A885F4B1B8868
:4025C0009A4200D27CE0FB681A885C4B5B889A4200D975E00A23FB181B88062B00D068E0FB6801221A751623FB1800221A8055E01623FB181A88524913005B009B185B00B5
:40260000CB1804331A88FB689B889A423FD11623FB181A884A4913005B009B185B005B5A002B13D11623FB181A88454913005B009B185B00FA68CB1811000422180002F02D
:4026400060FF1323FB1801221A7020E01623FB181B88012B0FD81623FB181B885A1C384913005B009B185B00CB1804331A88FB689B889A420BD0334B1B68FA68111D0C22E9
:40268000FF32100098471323FB1801221A701623FB181A881623FB1801321A801623FB181B88022B0CD81323FB181B78002B9FD006E0FB6802221A75FB68180000F046FEDC
:4026C0001323FB181B78002B0DD11B4B1B78DBB21A000123134006D01A4B1B68F9681222FF32100098471423FB181422B9180A22BA18098812888A181A801423FA18082341
:40270000FB1812881B889A4200D24AE70A4B1B78DBB201229343DAB2074B1A7006E0094B1B680822FF32002110009847C046BD4606B080BDE323002009240020E4230020D6
:40274000E40C0020C023002080B582B000AF0200FB1D1A70FB1D1B78002B06D0344B1B780133DAB2324B1A700CE0314B00221A70304B00221A8005E02D4B1B780133DAB20C
:402780002B4B1A702A4B1B78022B19D8284B1B781900294A0B005B005B185B009A5A274B1B889A42E8D3224B1B781900224A0B005B005B185B009A5A204B5B889A42DBD803
:4027C0001B4B1B78022B28D8194B1B781A0013005B009B185B00184A9918194B1A785B781B021A4300231204120C1B0C1B041343180010F06FFB031E15D0124B1B688422CF
:4028000052000021100098470F4B1B78DBB202229343DAB20C4B1A7005E00C4B03221A70002000F0ADFAC046BD4602B080BDC0460824002048110020E40C0020E4230020B9
:40284000F4230020C023002009240020E323002080B582B000AF78607B68DB884F4A934200D184E04D4A93420BDC4D4A934224D04B4A934200DD68E0A822920193420AD086
:4028800087E0484A93423CD0474A93424BD0474A934224D07DE0464B1B88002B04D17B689A88434B1A8074E0424B1B687A68911D86225200100098476BE03D4B5B88002BE7
:4028C00004D17B689A883A4B5A8062E0394B1B687A68911D862252001000984759E0344B1B89002B04D17B689A88314B1A8150E0304B1B687A68911D8622520010009847BE
:4029000047E02B4B5B89002B04D17B689A88284B5A813EE0274B1B687A68911D862252001000984735E0224B9B89002B04D17B689A881F4B9A812CE01E4B1B687A68911D7F
:40294000862252001000984723E0194B9B88002B04D17B689A88164B9A801AE0154B1B687A68911D862252001000984711E0104BDB88002B04D17B689A880D4BDA8007E0C1
:402980000C4B1B687A68911D8622520010009847C046C046BD4602B080BDC046032A0000012A0000A62A0000C92A0000042A0000F8230020C023002090B593B000AF78602A
:4029C000D44B1B78DBB21A000223134000D1D1E13E23FB187A6812891A803C23FB187A6852891A807B685B683B64CB4B1B78032B00D0C7E04623FB1800221A80B8E03B6C25
:402A00001800FFF753F803001A002423FB181A803B6C02333B643B6C1A782423FB189A703B6C01333B643B6C1800FFF73FF803001A002423FB189A803B6C02333B643E2341
:402A4000FB181B88152B33D12423FB1802229A752423FB180622396C9B181022180002F050FD3B6C10333B64AC4B1B781900AC4A0B005B005B185B00D31804331B881A0037
:402A8000A84B9A425DD0A54B1B78012B5BD9A34B1B78022B57D8A14B1B789BB2023B9BB22422BA181100180000F0B8FCC0464AE03E23FB181B88072B48D12423FB18012210
:402AC0009A753B6C1800FEF7F1FF03001A002423FB18DA803B6C02333B64904B1B7819008F4A0B005B005B185B00D31804331B88C0225201934203D08B4A934206D00BE036
:402B00002423FB181800FFF7A3FE1FE02423FB181800FFF72BF819E0804B1B78012B14D97E4B1B78022B10D87C4B1B789BB2023B9BB22422BA181100180000F06FFCC0464E
:402B400003E0C04602E0C04600E0C046714B1B78DBB201229343DAB26E4B1A704623FB184622B9183E22BA18098812888A181A804623FA183C23FB1812881B889A4200D2D4
:402B80003DE7F7E0644B1B78022B00D0F2E04623FB1800221A80E4E03B6C1800FEF786FF03001A000C23FB181A803B6C02333B643B6C1800FEF77AFF03001A000C23FB18D4
:402BC0005A803B6C02333B643B6C1800FEF76EFF03001A000C23FB189A803B6C02333B643E23FB181B88062B30D10C23FB1802229A7510F0EDF90C23FB1859884B4B1A787C
:402C00005B781B021A4300231204120C1B0C1B041343180010F07CF9031E07D1444B0C22BA1813CA13C313CA13C388E0414B1B6884225200002110009847364B1B78DBB2B9
:402C400002229343DAB2334B1A7078E03E23FB181B88082B00D072E00C23FB1801229A753B6C1800FEF722FF03001A000C23FB18DA803B6C02333B644423FB1800221A804F
:402C800033E04423FB181A88254913005B009B185B00CB1804331A880C23FB18DB889A421CD14423FB181A881D4913005B009B185B005B5A002B11D14423FB181A88184994
:402CC00013005B009B185B000C22BA180220CB1811180422180002F014FC0BE04423FB181A884423FB1801321A804423FB181B88022BC6D9094B1B781900094A0B005B00FA
:402D00005B185B00D31804331B881A000A4B9A4214D014E009240020E323002008240020E40C0020FEFF000001180000F423002048110020C023002012180000C0460F4BBB
:402D40001B78DBB201229343DAB20C4B1A704623FB184622B9183E22BA18098812888A181A804623FA183C23FB1812881B889A4200D211E7C046BD4613B090BD0924002049
:402D800080B582B000AF0200FB1D1A70FB1D1B78002B06D0354B1B780133DAB2334B1A7009E0324B00221A7005E0304B1B780133DAB22E4B1A702D4B1B78022B19D82B4B6B
:402DC0001B7819002A4A0B005B005B185B009A5A284B1B889A42E8D3244B1B781900244A0B005B005B185B009A5A224B5B889A42DBD81E4B1B78022B2DD81C4B1B781A000C
:402E00001B4913005B009B185B001B4A585ACB185B881B04034319001378527812021A4300231204120C1B0C1B041343180010F035F8031E15D0114B1B680A22FF320021F6
:402E4000100098470E4B1B78DBB202229343DAB20B4B1A7005E00B4B04221A70002000F0E9F8C046BD4602B080BDC04608240020E40C0020E4230020F4230020C0230020ED
:402E800009240020E323002080B582B000AF3B0000221A803B0000225A80114B1B78002B09D1104B5B8801339AB23B001A800E4B1A893B005A803B1D3A0012681A603A1DE6
:402EC000002311880904090C1B0C1B040B43528812041B041B0C13431800BD4602B080BD08240020E8230020E40C002080B58AB000AF78600823FB1800225A804A4B1B78EB
:402F0000042B00D08BE0494B1B78DBB21A000223134000D183E01E23FB187A6812891A807B681A7B0823FB181A750823FB187A6812881A800823FB181B7D012B04D1262389
:402F4000FB1804221A8003E02623FB1812221A807B685B683B622423FB1800221A804EE03B6A1800FEF7A2FD03001A000823FB185A803B6A02333B620823FB181B7D022BEA
:402F800015D10823FB183A6A043311001022180002F0B7FA3B6A10333B62254B1B78012B23D10823FB18180000F0FEFB1DE03B6A1800FEF77BFD03001A000823FB189A8091
:402FC0003B6A02333B621A4B1B78002B04D10823FB181800FEF7F2FD154B1B78012B04D10823FB18180000F0DFFB2423FB182422B9182622BA18098812888A181A802423DB
:40300000FA181E23FB1812881B889A42A8D3074B1B78DBB201229343DAB2044B1A70C046BD460AB080BDC046E3230020092400200824002080B584B000AF0200FB1D1A7045
:403040000C23FB1800221A800C23FB1800225A804A4B1B78012B17D0FB1D1B78002B0DD0464B1B780133DAB2444B1A70434B1B78012B09D1FB1D00221A7005E03F4B0022AD
:403080001A70FB1D01221A703C4B1B78012B0CD1FB1D1B78180000F0C5FA03001A000C23FB181A60FB1D01221A70344B1B78012B06D0FFF7E9FE03001A000C23FB181A60C4
:4030C0000C23FB181A882E4B1B889A4215D90C23FB181A882A4B5B889A420ED80C23FB185A88274B1B889A4207D30C23FB181A880C23FB185B889A4203D9204B1B78012B2E
:40310000A6D91E4B1B78012B21D80C23F9181D4B1A785B781B021A4300231204120C1B0C1B04134318000FF0A3FE031E21D0164B1B6885225200002110009847134B1B78CD
:40314000DBB202229343DAB2104B1A7011E0104B05221A700C4B1B68892252000021100098470A4B1B78DBB202229343DAB2074B1A70C046BD4604B080BDC0460824002050
:40318000E4230020F4230020C023002009240020E323002080B500AF244B1B78DBB21A00022313403FD0224B1B78022B17D002DC012B05D037E0032B1DD0042B27D032E0CA
:4031C0001B4B02221A700020FFF7BEFA174B1B78DBB201229343DAB2144B1A7023E00120FFF7B2FA114B1B78DBB201229343DAB20E4B1A7017E00120FFF7C2FD0B4B1B789D
:40320000DBB201229343DAB2084B1A700BE00120FFF710FF054B1B78DBB201229343DAB2024B1A70C046C046BD4680BD09240020E323002080B582B000AF7860084B1B782F
:40324000DBB21A000223134005D07B689B790A2B01D1FFF79FFFC046BD4602B080BDC0460924002080B582B000AFBB1D00221A8060E0BB1D1B889A1C324913005B009B18C6
:403280005B005B5A002B50D13B1D00221A8040E0BB1D1B882C4A1B01D3180C331A683B1D1B881B01D31800221A80BB1C00221A8019E0BB1D1B88244A1B01D3180C331A68CA
:4032C0003B1D1B881B01D318D968BB1C1A8813005B009B189B00CB1800221A80BB1C1A88BB1C01321A80BB1D1B88174A1B01D3180C331A683B1D1B881B01D3189B7A9BB292
:40330000BA1C12889A42D4D33B1D1A883B1D01321A80BB1D1B880C4A1B01D31809331B789BB23A1D12889A42B2D3BB1D1A88BB1D01321A80BB1D1B88002B9AD0C046BD46FD
:4033400002B080BDE40C00201C0D002080B584B000AF78600D23FB1800221A700E23FB1800221A8046E00E23FB181B88284A1B01D31808331B78022B35D10E23FB181B88B8
:40338000234A1B01D318043318687B6804331022190002F0A7F8031E25D10E23FB181B889A1C1C4913005B009B185B005B5A002B19D10E23FB181B889A1C164913005B0023
:4033C0009B185B007A68CB1811000422180002F098F8114B1B780133DAB20F4B1A700D23FB1801221A700E23FB181A880E23FB1801321A800E23FB181B88002B04D10D2398
:40340000FB181B78002BAED0C046BD4604B080BD1C0D0020E40C00200824002080B584B000AF02003960BB1D1A800D23FB1800221A70774B1B68002B0FD0764B1B88BA1D00
:4034400012889A4206D1724B1B683A681288013A92B21A806E4B00221A600E23FB1800221A80ABE00C23FB1800221A703B689B7D022B27D1BB1D1B88674A1B01D3180C334A
:403480001A680E23FB181B881B01D3181B7A022B18D1BB1D1B88604A1B01D3180C331A680E23FB181B881B01D31858683B6806331022190002F016F8031E03D10C23FB18F8
:4034C00001221A703B689B7D012B27D1BB1D1B88514A1B01D3180C331A680E23FB181B881B01D3181B7A012B18D1BB1D1B884A4A1B01D3180C331A680E23FB181B881B01F0
:40350000D31858683B6806330222190001F0EAFF031E03D10C23FB1801221A700C23FB181B78012B43D1BB1D1B883B4A1B01D3180C331A680E23FB181B881B01D3181B889B
:40354000002B34D1BB1D1B88334A1B01D3180C331A680E23FB181B881B01D3183A6892881A80BB1D1B882C4A1B01D3180C331A680E23FB181B881B01D3183A6892785A72F8
:40358000BB1D1B88244A1B01D3180C331A680E23FB181B881B01D3189A1C1D4B1A601D4BBA1D12881A800D23FB1801221A700E23FB181A880E23FB1801321A80BB1D1B88FF
:4035C000154A1B01D31809331B789BB20E22BA1812889A4205D20D23FB181B78002B00D140E70B4B1B68002B0DD0094B1A680B4B1B7818000A4903005B001B185B00CB1827
:4036000002331B881380C046BD4604B080BDC0466C110020701100201C0D002008240020E40C002080B584B000AF0200FB1D1A700823FB1800221A800823FB1800225A804C
:40364000FB1D1B78002B2DD0524B1B880133524A1288524912018A1809321278934206D24C4B1B8801339AB24A4B1A8023E04A4B1B88013309D1484B1B8801339AB2464B92
:403680001A80444B00221A8015E0454B1B780133DAB2434B1A703F4B1B8801339AB23D4B1A8008E03C4B00221A803A4B00221A80FB1D01221A70384B1B88384A1B01D31886
:4036C00009331B789AB2334B1B889A421FD9324B1B88324A1B01D3180C331A682D4B1B881B01D3181B8801339AB20823FB181A80294B1B88294A1B01D3180C331A68254B77
:403700001B881B01D3185A880823FB185A800823FB181A88234B1B889A4215D90823FB181A88204B5B889A420ED80823FB185A881C4B1B889A4207D30823FB181A8808234F
:40374000FB185B889A420CD9134B1B88134A1B01D31809331B789AB20E4B1B889A4200D96EE70C23FB180822BA1812681A600C23FA18002311880904090C1B0C1B040B4327
:40378000528812041B041B0C13431800BD4604B080BDC0466A110020681100201C0D002008240020E423002080B584B000AF78600E23FB1800221A700F23FB1800221A70AA
:4037C000B9E00D23FB1800221A707B681B7D022B37D1664B1B88664A1B01D3180C331A68644B1B881B01D318D9680F23FB181A7813005B009B189B00CB181B7A022B20D102
:403800005A4B1B885A4A1B01D3180C331A68594B1B881B01D318D9680F23FB181A7813005B009B189B00CB1858687B6804331022190001F057FE031E03D10D23FB18012209
:403840001A707B681B7D012B37D1484B1B88484A1B01D3180C331A68464B1B881B01D318D9680F23FB181A7813005B009B189B00CB181B7A012B20D13C4B1B883C4A1B010F
:40388000D3180C331A683B4B1B881B01D318D9680F23FB181A7813005B009B189B00CB1858687B6804330222190001F01BFE031E03D10D23FB1801221A700D23FB181B7899
:4038C000012B31D1294B1B88294A1B01D3180C331A68284B1B881B01D318D9680F23FB181A7813005B009B189B00CB181B88002B1AD11E4B1B881E4A1B01D3180C331A687F
:403900001C4B1B881B01D318D9680F23FB181A7813005B009B189B00CB187A6852881A800E23FB1801221A700F23FB181A780F23FB1801321A700D4B1B880D4A1B01D31846
:403940000C331A680B4B1B881B01D3189B7A0F22BA1812789A4205D20E23FB181B78002B00D12EE7C046BD4604B080BD681100201C0D00206A11002080B500AF064B1B780A
:40398000002B04D100F00AF8034B01221A7000F03FF8C046BD4680BD7211002090B583B000AFFF2000F044F8B82000F05BF8012000F068F8012000F075F8FC1D01F0B9F9D2
:4039C00003002370104A104B1B78DBB201210B43DBB21370FB1D1B78180001F0AEF90B4A0A4B1B78DBB202218B43DBB21370074A064B1B78DBB204218B43DBB21370C046EB
:403A0000BD4603B090BDC04693000F4073000F4080B500AF054A054B1B78DBB201210B43DBB21370C046BD4680BDC04673000F4080B582B000AF0200FB1D1A70FB1D1B7843
:403A4000002B07D0054AFB1D1B781370044AFB1D1B781370C046BD4602B080BD43000F4003000F4080B582B000AF0200FB1D1A70034AFB1D1B781370C046BD4602B080BD42
:403A800013000F4080B582B000AF0200FB1D1A70034AFB1D1B781370C046BD4602B080BD23000F4080B582B000AF0200FB1D1A70034AFB1D1B781370C046BD4602B080BDD8
:403AC00033000F4080B582B000AF0200FB1D1A70064B064A126806491140FA1D127892040A431A60C046BD4602B080BD08020440FFFFE3FF80B582B000AF0200FB1D1A70F1
:403B0000064B064A126806491140FA1D127892040A431A60C046BD4602B080BD08030440FFFFE3FF80B582B000AF0200FB1D1A70064B064A126806491140FA1D1278520538
:403B40000A431A60C046BD4602B080BD08030440FFFF1FFF80B500AF064B1B78002B04D100F00AF8034B01221A7000F03FF8C046BD4680BD7311002090B583B000AFFF200F
:403B800000F044F8B82000F05BF8012000F068F8012000F075F8FC1D01F0CBF803002370104A104B1B78DBB201210B43DBB21370FB1D1B78180001F0C0F80B4A0A4B1B786E
:403BC000DBB202218B43DBB21370074A064B1B78DBB204218B43DBB21370C046BD4603B090BDC04692000F4072000F4080B500AF054A054B1B78DBB201210B43DBB213709E
:403C0000C046BD4680BDC04672000F4080B582B000AF0200FB1D1A70FB1D1B78002B07D0054AFB1D1B781370044AFB1D1B781370C046BD4602B080BD42000F4002000F403D
:403C400080B582B000AF0200FB1D1A70034AFB1D1B781370C046BD4602B080BD12000F4080B582B000AF0200FB1D1A70034AFB1D1B781370C046BD4602B080BD22000F4018
:403C800080B582B000AF0200FB1D1A70034AFB1D1B781370C046BD4602B080BD32000F4080B582B000AF786000F050F87B68180000F00AF8032000F015F800F03BF8C046FA
:403CC000BD4602B080BDC04680B582B000AF7860034B7A681A66C046BD4602B080BDC0460000002090B585B000AF0200FB1D1A700623FB600B23FC1801F01BF803002370E3
:403D00000B4B0B4A1268C0218A431100FA1D1078FA68904002000A431A600B23FB181B78180001F00AF8C046BD4605B090BDC04608E400E080B500AF034B802252001A60A9
:403D4000C046BD4680BDC04600E100E080B500AF034B802252001A60C046BD4680BDC04680E100E080B500AF034B802252001A60C046BD4680BDC04680E200E080B500AFF7
:403D800000F04CF8C046BD4680BDC04680B500AF064B064A1268802109060A431A6000F019F800F01DF8C046BD4680BD0000244080B500AF064B1B78002B04D1FFF7DEFFC2
:403DC000034B01221A70FFF7E1FFC046BD4680BD7411002080B500AFC046BD4680BDC04680B500AF00F07CF8C046BD4680BDC04680B582B000AF7860C046064B1B681F223A
:403E00001340082BF9D0044B7A681A60C046BD4602B080BD080224404002244080B500AF1B4B1C4A1A601C4B00221A601B4B1C4A1A601C4B1C4A1A601C4B07221A601C4B51
:403E400000221A601B4B01221A601B4B164A1A601A4B00221A601A4B04221A60194B00221A60194B00221A60184B00221A60184B00221A60174B00221A60174B00221A6063
:403E8000154B1B689AB2154B1A80C046BD4680BD000024400B000002400024404800244001000A00000324400700008004032440100324404400244000022440040224407F
:403EC00050002440880E2440C80E2440480F2440080F2440C80F2440880F24407611002080B500AF074B074A126807490A40902109040A431A60054B054A12881A60C046EE
:403F0000BD4680BD00010240FFFF0FFF880F24407611002080B584B000AF78600023FB6009E07A68FB68D3181B781800FFF760FFFB680133FB607A68FB68D3181B78002BE9
:403F4000EFD1C046BD4604B080BDC04680B582B000AF78607B681800FFF74AFF0D20FFF747FF0A20FFF744FFC046BD4602B080BD90B585B000AF78600C23FC1800F0D9FE8A
:403F8000030023707B68022B00D8AFE07B68302B00D9ABE05C4B1B78DBB21A007B689A420AD35A4A0F23FB1812781A70584A0E23FB1812781A703FE0564B1B78DBB21A00E4
:403FC0007B689A420AD3544A0F23FB1812781A70524A0E23FB1812781A702DE0504B1B78DBB21A007B689A420AD34E4A0F23FB1812781A704C4A0E23FB1812781A701BE0E2
:404000004A4B1B78DBB21A007B689A420AD3484A0F23FB1812781A70464A0E23FB1812781A7009E0444A0F23FB1812781A70434A0E23FB1812781A707B68DA1E0B23FB1871
:404040003F498A5C1A700B23FB181B782F2B0DD97B682A2B0AD93B4B19221A60052000F05FFE0D23FB1819221A7007E0354B1B68DAB20D23FB183F210A401A700B23FA1837
:404080000D23FB1812781B789A4208D22D4B7A68033A2B498A5C1A60052000F041FE2A4B7A6826498C4662441278D2B21A60274B0F22BA1812781A60254B0E22BA181278F0
:4040C0001A60052000F0C2F80B23FA180D23FB1812781B789A420CD91A4B7A68033A18498A5C1A60052000F01BFE02E0002000F07BF80C23FB181B78180000F01EFEC0463F
:40410000BD4605B090BDC04640F3FF0F41F3FF0F42F3FF0F43F3FF0F44F3FF0F45F3FF0F46F3FF0F47F3FF0F48F3FF0F49F3FF0F4AF3FF0F4BF3FF0F4CF3FF0F4DF3FF0F8B
:4041400034A201002CFF0B4028FF0B401CFF0B4020FF0B4080B584B000AF78600023FB60154B154A126801210A431A60134B144A1A60144B134A1268802109020A431A6041
:404180007B68002B12D01023FB600CE0012000F05DF800F019F8031E02D00023FB6005E07B68013B7B607B68002BEFD1FB681800BD4604B080BDC04660F02E4078002E40F7
:4041C0000220000010002E4080B582B000AF054B1B68012213407B607B681800BD4602B080BDC0460C002E4080B582B000AF0200FB1D1A7001BEC046BD4602B080BDC04601
:4042000080B582B000AF786009E00D4B1B68180000F086FD7B680B4A944663447B607A6880231B029A42F0D8074B1B687A685343180000F075FDC046BD4602B080BDC046A2
:40424000380D00200080FFFF300D002080B582B000AF0200BB1D1A80BB1D1B88044A12785343180000F05CFDC046BD4602B080BD340D002080B500AF0F4B0F4A126801219E
:404280008A431A600C4B0C4A126802218A431A600A4B0A4A126830218A4310210A431A60064B064A126807218A4301210A431A60C046BD4680BDC04600F02E4000FF2E40DD
:4042C00080B500AF0F4B0F4A126802218A431A600D4B0D4A126807218A4302210A431A60094B094A126830218A4320210A431A60044B044A126801210A431A60C046BD46EB
:4043000080BDC04600F02E4000FF2E4080B500AFFFF7B0FF044B044A1268802109060A431A60C046BD4680BD00F02E4080B584B000AF78600C4B1B6801221340FB607B6836
:40434000002B02D0012B03D005E0FFF793FF06E0FFF7B6FF03E00020FFF746FFC046FB681800BD4604B080BD00F02E4090B583B000AFFC1D00F0DDFC03002370074B074AF0
:404380001268C02109020A431A60FB1D1B78180000F0D3FCC046BD4603B090BD00010B4080B500AF054B1A68C0231B02134001D0012300E000231800BD4680BD00010B4054
:4043C00090B583B000AFFC1D00F0B3FC030023700D4B0D4A12680D490A408021C9010A431A60094B084A126808490A40802109020A431A60FB1D1B78180000F09EFCC046CC
:40440000BD4603B090BDC04600010B40FF3FFFFF80B582B000AF78607B68022B02D90020FFF7E2FE064B1A687B68DB000133DA401300012213401800BD4602B080BDC046A4
:4044400010020B4080B584B000AF786039607B68022B02D90020FFF7C7FE7B681800FFF7D7FF031E16D10D4B1B687A68D200032191400A00D2431340FB603B6803221A404E
:404480007B68DB009A401300FA681343FB60034BFA681A60C046BD4604B080BD0C020B4080B584B000AF786039607B68002B02D07B68012B01D1012300E00023002B02D152
:4044C0000020FFF791FE7B681800FFF7A1FF031E16D10D4B1B687A68D2000232012191400A00D2431340FB607B68DB0002333A689A401300FA681343FB60034BFA681A603C
:40450000C046BD4604B080BD0C020B4080B582B000AF7860144B144A11687A680A431A607B680122134005D0C0460020FFF770FF031EFAD07A6880235B00134005D0C046A9
:404540000120FFF765FF031EFAD07A6880235B02134005D0C0460220FFF75AFF031EFAD0C046BD4602B080BD10020B4080B584B000AF786039607B68002B02D07B68012B9C
:4045800001D1012300E00023002B02D10020FFF72BFE174B1B689B0F9B0701D1C92300E05D231800FFF752FE124B1B68FB607B681B01114A9A401300DA43FB681340FB6068
:4045C0000C4B7A68120139689140FA680A431A60074B1B689B0F9B0701D1432300E01F231800FFF733FEC046BD4604B080BDC0460C020B4008020B40FFFF000080B500AF8A
:40460000034B1B68034A13401800BD4680BDC04610020B400404040090B585B000AF78600B23FC1800F085FB03002370FFF7B8FE031E04D00123FB60FFF7C2FE01E000231F
:40464000FB607B680D4A13407B600D4B0C4A12680C4911407A680A431A60094B1B68FB68012B01D1FFF782FE0B23FB181B78180000F063FBC046BD4605B090BD0404040001
:4046800010020B40FBFBFBFF80B500AF094B802292041A60084B0C221A60012000F098F8064B180000F066F8002000F053F8C046BD4680BD80012040A40120409311000045
:4046C00090B583B000AFFC1D00F033FB03002370094B094A126804210A431A60FB1D1B78180000F02AFB1821042000F053F8C046BD4603B090BDC0460000204080B500AFF6
:40470000064B1B78002B04D1FFF7BEFF034B01221A70FFF7D5FFC046BD4680BD7811002090B583B000AFFC1D00F003FB03002370074B074A126804218A431A60FB1D1B7836
:40474000180000F0FAFAC046BD4603B090BDC0460000204080B582B000AF7860044B7A681204120C1A60C046BD4602B080BDC0468801204080B582B000AF7860044B7A68FB
:404780001204120C1A60C046BD4602B080BDC0469401204090B585B000AF786039600F23FC1800F0C6FA03002370084B79683A6891400A001A600F23FB181B78180000F027
:4047C000BCFAC046BD4605B090BDC0460800204080B582B000AF7860034B7A681A60C046BD4602B080BDC046B801204080B582B000AF7860034B7A681A60C046BD4602B088
:4048000080BDC046B001204080B582B000AF786000F04EF87B68180000F00AF8032000F015F800F039F8C046BD4602B080BDC04680B582B000AF7860034B8C217A685A505F
:40484000C046BD4602B080BD0000002090B585B000AF0200FB1D1A701E23FB600B23FC1800F067FA030023700A4B0A4A126892009108FA1D1078FA68904002000A431A60A6
:404880000B23FB181B78180000F057FAC046BD4605B090BD10E400E080B500AF034B802212031A60C046BD4680BDC04600E100E080B500AF034B802212031A60C046BD4610
:4048C00080BDC04680E100E080B582B000AF786000F050F87B68180000F00AF8032000F015F800F03BF8C046BD4602B080BDC04680B582B000AF7860034B84217A685A5073
:40490000C046BD4602B080BD0000002090B585B000AF0200FB1D1A700E23FB600B23FC1800F007FA030023700A4B0A4A12680A491140FA1D1078FA68904002000A431A60DC
:404940000B23FB181B78180000F0F7F9C046BD4605B090BD10E400E0FF3FFFFF80B500AF034B802292021A60C046BD4680BDC04600E100E080B500AF034B802292021A607F
:40498000C046BD4680BDC04680E100E080B500AF094B802292041A60084B0C221A60012000F07EF8064B180000F04CF8002000F039F8C046BD4680BD0001204024012040F4
:4049C000DB05000090B583B000AFFC1D00F0B1F903002370094B094A126801210A431A60FB1D1B78180000F0A8F91821012000F039F8C046BD4603B090BDC046000020401F
:404A000080B500AF064B1B78002B04D1FFF7BEFF034B01221A70FFF7D5FFC046BD4680BD7911002080B582B000AF7860044B7A681204120C1A60C046BD4602B080BDC0467B
:404A40000801204080B582B000AF7860044B7A681204120C1A60C046BD4602B080BDC0461401204090B585B000AF786039600F23FC1800F05EF903002370084B79683A68FA
:404A800091400A001A600F23FB181B78180000F054F9C046BD4605B090BDC0460800204080B582B000AF7860034B7A681A60C046BD4602B080BDC0463801204080B582B065
:404AC00000AF7860034B7A681A60C046BD4602B080BDC0463001204080B500AF094B802292041A60084B0C221A60012000F098F8064B180000F066F8002000F053F8C04658
:404B0000BD4680BD40012040640120400F27000090B583B000AFFC1D00F00BF903002370094B094A126802210A431A60FB1D1B78180000F002F91821022000F053F8C0467A
:404B4000BD4603B090BDC0460000204080B500AF064B1B78002B04D1FFF7BEFF034B01221A70FFF7D5FFC046BD4680BD7A11002090B583B000AFFC1D00F0DBF80300237002
:404B8000074B074A126802218A431A60FB1D1B78180000F0D2F8C046BD4603B090BDC0460000204080B582B000AF7860044B7A681204120C1A60C046BD4602B080BDC046B7
:404BC0004801204080B582B000AF7860044B7A681204120C1A60C046BD4602B080BDC0465401204090B585B000AF786039600F23FC1800F09EF803002370084B79683A68BA
:404C000091400A001A600F23FB181B78180000F094F8C046BD4605B090BDC0460800204080B582B000AF7860034B7A681A60C046BD4602B080BDC0467801204080B582B064
:404C400000AF7860034B7A681A60C046BD4602B080BDC0467001204080B582B000AF786000F050F87B68180000F00AF8032000F015F800F03BF8C046BD4602B080BDC046E0
:404C800080B582B000AF7860034B88217A685A50C046BD4602B080BD0000002090B585B000AF0200FB1D1A701623FB600B23FC1800F03FF8030023700A4B0A4A12680A4995
:404CC0001140FA1D1078FA68904002000A431A600B23FB181B78180000F02FF8C046BD4605B090BD10E400E0FFFF3FFF80B500AF034B8022D2021A60C046BD4680BDC0463D
:404D000000E100E080B500AF034B8022D2021A60C046BD4680BDC04680E100E0000000000230800803D00138FDD1C046C046C0467047EFF3108072B6704780F31088704793
:404D400080B582B000AF78600A00BB1C1A80BB1C1A887B681A60C046BD4602B080BDC04680B582B000AF78600A00BB1C1A80BB1C1A887B681A60C046BD4602B080BDC046B9
:404D800080B584B000AF494B1B78DBB21B02484A1278D2B21343FB60464B1B78DBB21B02454A1278D2B21343BB60BB68434A934207D1FB68072B04D1414BBB600423FB60ED
:404DC00009E0BA68D4231B019A4204D1FB68042B01D13B4BBB603B4BBA681A603A4BFA681A603A4B1B78DBB21B02394A1278D2B21343FB60FA6880239B019A4202D0FB68A6
:404E0000002B01D1334BFB60334BFA681A60334B1B78DBB21B02324A1278D2B21343FB60FB68304A934206D0FB682F4A934202D0FB68052B01D12D4BFB602D4BFA681A60B5
:404E40002C4B1B681B097B602B4B1B68AA2B29D17B68012B26D9214B1B78DBB20E2B21D1264B1B78DBB29BB21B0299B2244B1B78DBB29AB2BB1C0A431A80224BBA1C1288F0
:404E80001A60214B1B78DBB29BB21B0299B21F4B1B78DBB29AB23B000A431A801C4B3A0012881A60C046BD4604B080BD59F1FF0F58F1FF0F5FF1FF0F5EF1FF0F580B0000C3
:404EC000580D00006C002E4074002E405BF1FF0F5AF1FF0F0220000078002E405DF1FF0F5CF1FF0F0F0F000005050000050F000080002E40EC0F00F0E00F00F06DF2FF0FBE
:404F00006CF2FF0F84002E406FF2FF0F6EF2FF0F94002E4080B582B000AF0200BB1D1A80BB1D1B881800FFF791F9C046BD4602B080BDC04680B582B000AF78607B681800B0
:404F4000FFF75EF9C046BD4602B080BD80B500AF00F0ECF8C046BD4680BDC04680B500AF00F0F0F8C046BD4680BDC04680B500AF00F0E8F8044B180000F0A2F8022000F029
:404F8000ADF8C046BD4680BD9151000080B500AF034B180000F080F8C046BD4680BDC0469151000080B500AF014B1800BD4680BD0202000080B582B000AF78602B23180064
:404FC000BD4602B080BDC04680B582B000AF78602B231800BD4602B080BDC04680B582B000AF78602B231800BD4602B080BDC04680B582B000AF78602B231800BD4602B018
:4050000080BDC04680B582B000AF78602B231800BD4602B080BDC04680B582B000AF78602B231800BD4602B080BDC04680B582B000AF78602B231800BD4602B080BDC04649
:4050400080B582B000AF78602B231800BD4602B080BDC04680B500AF2B231800BD4680BD80B582B000AF0200FB1D1A702B231800BD4602B080BDC04680B582B000AF786054
:4050800039602B231800BD4602B080BD80B500AFC046BD4680BDC04680B582B000AF786000F050F87B68180000F00AF8022000F015F800F03BF8C046BD4602B080BDC0467C
:4050C00080B582B000AF7860034B7A681A67C046BD4602B080BDC0460000002090B585B000AF0200FB1D1A700623FB600B23FC18FFF71FFE030023700B4B0B4A1268C021B1
:405100008A431100FA1D1078FA68904002000A431A600B23FB181B781800FFF70EFEC046BD4605B090BDC0460CE400E080B500AF034B802252011A60C046BD4680BDC0463B
:4051400000E100E080B500AF034B802252011A60C046BD4680BDC04680E100E090B583B000AFFC1DFFF7E5FD03002370074B074A126804218A431A6030BFFB1D1B78180057
:40518000FFF7DBFDC046BD4603B090BD10ED00E080B500AF14F086FAC046BD4680BDC046002243088B4274D303098B425FD3030A8B4244D3030B8B4228D3030C8B420DD378
:4051C000FF22090212BA030C8B4202D31212090265D0030B8B4219D300E0090AC30B8B4201D3CB03C01A5241830B8B4201D38B03C01A5241430B8B4201D34B03C01A52416A
:40520000030B8B4201D30B03C01A5241C30A8B4201D3CB02C01A5241830A8B4201D38B02C01A5241430A8B4201D34B02C01A5241030A8B4201D30B02C01A5241CDD2C30939
:405240008B4201D3CB01C01A524183098B4201D38B01C01A524143098B4201D34B01C01A524103098B4201D30B01C01A5241C3088B4201D3CB00C01A524183088B4201D392
:405280008B00C01A524143088B4201D34B00C01A5241411A00D20146524110467047FFE701B5002000F0F0F802BDC0460029F7D076E7704703460B437FD4002243088B42BD
:4052C00074D303098B425FD3030A8B4244D3030B8B4228D3030C8B420DD3FF22090212BA030C8B4202D31212090265D0030B8B4219D300E0090AC30B8B4201D3CB03C01AFB
:405300005241830B8B4201D38B03C01A5241430B8B4201D34B03C01A5241030B8B4201D30B03C01A5241C30A8B4201D3CB02C01A5241830A8B4201D38B02C01A5241430ABF
:405340008B4201D34B02C01A5241030A8B4201D30B02C01A5241CDD2C3098B4201D3CB01C01A524183098B4201D38B01C01A524143098B4201D34B01C01A524103098B42C0
:4053800001D30B01C01A5241C3088B4201D3CB00C01A524183088B4201D38B00C01A524143088B4201D34B00C01A5241411A00D201465241104670475DE0CA0F00D04942AF
:4053C000031000D34042534000229C4603098B422DD3030A8B4212D3FC22890112BA030A8B420CD3890192118B4208D3890192118B4204D389013AD0921100E08909C309CE
:405400008B4201D3CB01C01A524183098B4201D38B01C01A524143098B4201D34B01C01A524103098B4201D30B01C01A5241C3088B4201D3CB00C01A524183088B4201D3D0
:405440008B00C01A5241D9D243088B4201D34B00C01A5241411A00D20146634652415B10104601D34042002B00D54942704763465B1000D3404201B5002000F005F802BDF1
:405480000029F8D016E770477047C046014B18687047C046101100200E4B70B500251E000D4CE41AA410A54204D0AB00F35898470135F8E714F0F0FE084B00251E00084C73
:4054C000E41AA410A54204D0AB00F35898470135F8E770BDA4A20100A4A20100A4A20100ACA2010030B50024A24208D0035D651C0C5DA34201D0181B02E02C00F4E7002003
:4055000030BD002310B59A4203D0CC5CC4540133F9E710BD03008218934202D019700133FAE770470EB410B59DB002A9029008610B48822488604861012040421FABC88173
:40554000084804CBA400006801938C8100F06EF80023029A13701DB010BC08BC03B01847FFFFFF7F10110020F0B58E6885B007000C00039201939E4243D890238A89DB00F3
:405580001A423ED003250969236801985B1A029363695D43EB0F5D19029B6D1001331B18AB4200D91D00530510D52900380000F037FB061E14D0029A2169FFF7A2FFA289C9
:4055C000194B134080221343A38112E02A00380000F086FB061E0CD12169380000F0D4FA0C23402201203B60A38940421343A38117E0029B2661F61826606561019EED1A02
:40560000A560019BB34200D21E0032000399206800F0A5FA0020A3689B1BA36023689E19266005B0F0BDC0467FFBFFFFF0B59FB0029005938B890F0016001B0610D50B69A2
:40564000002B0DD1402100F0EBFA38603861002804D10C23029A01381360D8E040237B61002306AD6B6120336B761033AB7634002378002B03D1A31B049312D003E0252BDD
:40568000F9D00134F4E7A31B320039000298FFF76BFF431C00D1B4E06A69049B944663446B612378002B00D1ABE00122002352426A6002A95432521801342B60EB60AB60F4
:4056C0001370AB65534E21780522300000F03CFA002807D00123801B83402A68013413432B60EFE72B68DA0604D55322202102A8121811701A0704D553222B2102A812187B
:40570000117022782A2A03D0099B00200A210EE0059A111D12680591002A01DB099204E05242EA60022213432B6001340BE02278303A092A04D84B4301349B180120F6E75E
:40574000002800D0099323782E2B1ED163782A2B0AD1059B02341A1D1B680592002B01DA01235B42079310E000230A201A0001346B6021783039092904D842430134521894
:405780000123F6E7002B00D00792234E21780322300000F0D9F9002806D04023801B83402A68013413432B60217806221B48661C297600F0C9F9002812D0194B002B06D165
:4057C0000722059B073393430833059314E005AB00933A00134B2900029800E000BF07E005AB00933A000F4B2900029800F08AF80390039B013304D06B69039A9B186B61B0
:4058000035E7BB890B985B0601D5012040421FB0F0BDC04664A201006AA201006EA201000000000069550000F7B5170001938A680B6900900C00934200DA130022003B604E
:4058400043321278002A01D001333B6023689B0602D53B6802333B60062523681D401ED0230043331B785A1E9341226892061CD53020E1184331087021005A1C453109789A
:40588000A2184332023311700FE022000123193201990098089EB047431C0ED00135E3683A689B1A9D42F0DBDAE72200019943320098089DA847431C02D10120404220E002
:4058C00006232068E1683A6803400025042B03D18D1AEB43DB171D40A3682269934201DD9B1AED180027BD420AD0220001231A3201990098089EB047431CDED00137F2E7FB
:405900000020FEBDF0B58BB006920A0043320793059004920A7E0C00109B6E2A00D1ABE011D8632A22D009D8002A00D1B5E0582A00D0C5E045310A70814A4FE0642A1DD068
:40594000692A1BD0BCE0732A00D1AAE009D86F2A29D0702A00D0B3E0202209680A43226037E0752A1FD0782A33D0A9E00E001A684236111D196013683370A4E021681A68F4
:40598000080606D4490604D5111D19600023D55E02E0111D19601568002D3BDA2D23049A6D42137036E021681A68080606D4490604D51568111D1960ADB202E0111D196035
:4059C00015685F4B227E039308276F2A1DD00A271BE022007821453211705A4A19680392081D226818600D68100602D4500600D5ADB2D30702D520231A4322601027002DB3
:405A000003D1202322689A4322602300002243331A7002E00A274A4B03936368A360002B09DB0422216891432160002D05D1049E002B11D07BE0002D79D0049E280039007D
:405A4000FFF734FC039B013E5B5C280033703900FFF7A6FB051EF1D1082F09D12368DB0706D563682269934202DC3023013E3370049B9B1B23612BE009681A68080607D495
:405A8000490605D5111D19601368A28A1A8004E0111D1960136862691A600023049E236116E01A68111D1960166800216268300000F04AF8002801D0801B6060636803E055
:405AC000260042363270012323610023049A1370079B09AA00932100069B0598FFF7A4FE431C02D10120404227E02369320006990598079DA847431CF4D0236800259B07BD
:405B00000FD4099BE068984217DA180015E022000123193206990598079EB047431CE1D00135E368099A9B1A9D42F0DBE9E72600039B42361B7833708EE70BB0F0BDC0469D
:405B400075A2010086A20100C9B28218904204D003788B4202D00130F8E70020704710B5884202D98B18984201D3002305E09B1A013A08D3995C8154FAE7934203D0CC5C1F
:405B8000C4540133F9E710BD70B50500002944D00C1F2368002B00DAE418280000F0D8F81E4A13681100002B02D16360146031E0A3420DD92268A018834203D118685B68C3
:405BC0008218226063600C6024E0A24203D813005A68002AF9D11E689819A0420BD12168711858181960824214D110685268411819605A600EE0A04202D90C232B6009E029
:405C000021686018824203D1106852684118216062605C60280000F09CF870BD50230020032370B5CD1C9D43083506000C2D01D20C2501E0002D01DBA94202D90C233360CF
:405C400048E0300000F084F8234B1C681A002100002913D00B685B1B0DD40B2B02D90B60CC181EE08C4202D1636813601AE04B6863600C0016E00C004968E9E7174C236833
:405C8000002B03D1300000F051F820602900300000F04CF8431C18D00323C41C9C43A0420DD12560300000F054F8200007220B30231D9043C31A0ED05A42E2500BE0211A4C
:405CC000300000F033F8431CEBD10C233000336000F03FF8002070BD502300204C230020F8B506000C001500002904D11100FFF797FF040018E0002A03D1FFF745FF2C00E7
:405D000012E000F027F885420ED929003000FFF787FF071E07D021002A00FFF7F2FB21003000FFF731FF3C002000F8BD002370B5064C050008002360FBF772FB431C03D171
:405D40002368002B00D02B6070BDC0460C240020704770470B1F1A68101F002A04DA891804390B68D018043870470000134A1088810703D08107890F401A001D1179103061
:405D8000484381B25088820703D08207920F801A001D800040180A494030098980B2CA0701D0503080B2890706D504495422091F09785143081880B270470000460D002076
:405DC0008811002010B501F011FF10BD10B501F013FF10BD10B500F05BFA10BD10B50749044609780220002907D1204601F054FF002802D120460CF003F910BDF20E0020F8
:405E000070B504460120002C12D02368002B0FD0616800290CD0074D06222889208118462968FFF76EFB6968606809780170002070BD000088110020FFB585B000276846F6
:405E40000E9D07734F481C460078002802D0082009B0F0BD10990F9801900095029105A807C800F007F90028F2D16946264603AB84460873002C19D0002115E08A00B75AD0
:405E8000082F09D990198078002805D0083FB7521878401C187005E0002914D00027B75290198770491CC9B2A942E7D360460028CED10F98002809D0109901F047FA002808
:405EC00004D00120C4E701208446EFE701F094FE2D480021416081600599016021888180022D07D3A1798171A17AC171A1890181218A418100211EE0481C19E082008B00F9
:405F0000A75AE65ABE46BE4211D26F463E80B4461E190296B678BE7001967646E6521719029EBB78B3706646A652019EBE70401CA842E3D3491CA942DED3134822460C3083
:405F400000906846037B0799069800F01BF90028B8D168460B4C007B60700B480C3001F07BFE0028AED1084907480C3108F090FF0028A7D108F0AAFF0028A3D1012121708E
:405F800066E70000400D00207C110020F8B5054636480F460078002802D002242046F8BD002F60D000243249002D16D02A89D0070DD02868002808D003881B3BE12B04D231
:405FC0004088FB2801D81B2801D2012409E0900707D56868002804D1F7E70020088108604860002CDAD122482E8906811F481B21801D01804180042101711C490020891C20
:406000000870F00705D019480622801D2968FFF778FA1749B00703D56A68144812788270124D0E46AD1D281F0D60486001F05AFE284601F049FE30890FF094FF30890FF099
:406040002FF828880FF032F8308910F00BF903461033FFF78BFE1F21C018890140183880A91F88809AE7012498E70000400D002088110020FFB58446384F1C460020BB88C1
:406080003F78054602460646002F11D100290ED0029999420BD36146002908D0002C06D00A99002906D02E4B0B99994202D2012004B0F0BD002144E0AB001F19BF78002FB6
:4060C0003BD0E35A002B38D07B43591889B22B0000F04AF8050410161C253100A7782388BC46FF27233BEB37BB4222D26346032B1FD322E0A388002B1FD0302B19D31CE007
:406100002389002B19D0282B13D316E0A289002A13D01346134F233BBB420AD20DE0268A002A0AD033460F4F233BBB4201D2964203D901200EE0002001E000280AD16D1C50
:40614000EDB2099B9D42B7D31C2463435B1802998B42ACD89642AAD8AAE70000400D002079020000BAFF000030B47446641E2578641CAB4200D21D46635D5B00E31830BC41
:4061800018470000FFB583B0002469460C801F4606468C80002806D00598002803D004983043800701D0012466E0002FFBD03449049809888842F6D3FEF7E8FEFEF7CEFE42
:4061C00000F016FC002855D100F07EFD002851D12C49084601F0EEF805042D0C4AD12A480499066081800021C18007810C98007AC00704D0684601F018FD040007D10C9856
:40620000007A800703D501A801F018FD0446BF1DFEB2002C20D13146059800F05DF804001AD110F02DF8040016D16A461088928808368518144AF1B29088D288AEB29319CF
:40624000984207D3401B801A80B201F0A3FB050007D000E0FF25012400F062FA002D04D008E0F8B200F01CF9F6E700F085FA07490120087000F0CEFB204607B0F0BD000013
:40628000440D0020C5630000941100204C0D002010B503480078012801D101F01DFA10BD4C0D002070B5084B0446DA889E8803205518B54206D8186880182060D888401837
:4062C000D880002070BD000094110020014800897047000094110020F0B587B007460D4600208900009006916846FFF7DBFF844600285DD1304800990160002117E02E4BF9
:4063000088001A680629115406D22C4C0419667882185670628805E0C419203CA67A8218567022891B68C018491C4280C9B2A942E5D300242DE0601CC2B2059025E01E4F19
:40634000A30039689600581840887118039604904E88B04217D938466F46FE80B6464F786E4677710297049F4F800168039F5E18767879184E700168764659184E800068F8
:40638000029F18184770521CD2B2AA42D7D30598C4B2AC42CFD36046002809D168460699FFF780FF8446002802D1054900980860604607B0F0BD0000500D0020D0A20100B3
:4063C000540D00207047000010B5002809D005494A68002A05D0011F08788000105801F087FA10BD500D002010B50446FFF76EFFC0B2801DA0420CD307484068002808D023
:40640000A100405801F0E6F9002801D00470001D10BD002010BD0000500D0020F8B516460D460446FFF752FFC0B2801DA04203D20020C0430090F8BDB2B2E9B2684601F0D9
:40644000EFF90099481C03D0024AA000526811500098F8BD500D0020F8B50746FFF736FF801DC6B20A49002005460C680DE06178002907D06188B94202D32078FFF7B4FF67
:40648000002804D1241D6D1CEDB2B542EFD3F8BD500D002010B5002801D0FFF795FF10BD70B506460948002504680BE06178002905D062882078121D0023FFF7AFFF241DA8
:4064C0006D1CEDB2B542F1D370BD0000500D0020FFB581B00A9F16000C4620D000F0F6F8054604281BD0002F0CD03846FFF7B4FF20492A0151184860002810D03A460499ED
:40650000FEF7FFFF1B4928010E504618778101980570200406D47D20C000444304E0FF2005B0F0BD6404640C00F0BEF80746042807D000F053FAA0420BD800F04FFA201A8F
:4065400003E0204600F0AEFA0020F06035720020E6E700F043FA009000F0BAFA00980121001B009000F0F0F802493A0151180098C860E6E7A0110020F8B5042801D3FF207F
:40658000F8BD060116483418217A042903D0E068002802D017E00020F8BD00F01FFA054600F096FA00F0A0F804280CD001010C480F18F8680021451900F0C6F80020F860E6
:4065C000284600F06FFA6068054D002801D0FFF761FF042020720020A8516081E060DAE7A0110020FEB500266A46304601232549050169180D7A042D02D0C96800291BD002
:4066000000211154401CC0B20428F0D300246846005D002830D01B48210108184189476805680291002101604160042241810272C160002E02D015E01354E3E700F054F8A0
:4066400004280ED001010F4808180190C6680021304600F079F801980021C160304600F021FA0126002D07D038460299A847002F02D03846FFF70EFF641CE4B2042CC6D3F0
:40668000FEBD0000A01100200EB5002005216A4600901181508103486946006810F087FC0EBD0000580D0020074A0020010189180B7A042B02D0C968002903D0401CC0B2D8
:4066C0000428F3D370470000A01100200549002002015218127A042A03D0401CC0B20428F6D37047A011002030B50A4B04200A4C00210A011219157A042D06D0D268002A68
:4067000003D09A4201D808461346491CC9B20429EFD330BDFFFF0000A01100207047000030B50020074C05460423020111190B72A5504D60401C4D81C0B2CD600428F4D316
:4067400030BD0000A011002030B5094C00231A011219157A042D04D0D568002906D02D18D5605B1CDBB2042BF1D330BD2D1AF7E7A0110020002070471CB5002469460C709D
:40678000142001902346054A054810F015FC04480068401C00D1FF2420461CBDF5670000580D00203EB5124A0146FF2000230124126800290DD0012914D0042908D1042025
:4067C0006946009308814B81104610F0F0FB80B23EBD68460093048143816946104610F0E1FBF4E768460093048143816946EBE7580D002070B5458904684168008903002A
:40680000FFF7B2FC08280509091E22282628002007F04EF81EE0022908D0C8B22A4621460EF092FB2046FFF735FE13E002202A4621460EF089FB2946204600F00DF809E0CD
:40684000002010F0B3F805E02046FFF7CBFE01E0FEF71CFC002070BD014B0022DB6818475C0D002070B5448905680089022803D0032809D0FF2070BD2246094C0023A4684E
:4068800029460120A04708E0FFF7A0FA241DA2B200232946022008F0AEF9002070BD00005C0D0020704700000248002141600180418070475C0D002070B50C46002186B018
:4068C00016460391012802D0022859D116E003A9012008F0E5F901281BD1039D324621462846FEF70EFE0095287801900220694608814E816846FFF7B5FF41E0214D002BBC
:40690000686809D0049004A9022008F0C9F901281DD0022006B070BD002812D0298840182146FEF7EEFD28880024801980B228806988091D884206D12C801348FFF792FF8F
:4069400003E00320E6E788421AD96C6018E004986860E278A378110219430B4A698000231060E3565360032313815181A1788170E178C1706178417021780170042028803E
:406980000020C7E75C0D0020E01100203EB515460C46022803D004280CD000203EBD0091019002206946088107484A81006810F0FEFA07E00EF0C8FA044B0022DB682946EF
:4069C0002046984701203EBD580D00205C0D0020014AD160906070475C0D0020034801688068081A0A21484300097047EC11002010B5FEF7BBFA4C2204490548FEF781FD41
:406A000003490120C870002010BD0000ECA20100F015002010B5FEF799FA10BD70B5134C2368002B08D0207B1149C20705D04008400020738868A08070BD88680B4AA1888B
:406A400080B29268814203D90A4D691A091802E0814202D2411A5118A160A080A0689842EAD310F0C1FA00F013F870BDEC110020C0102E40FFFF000010B508461946FFF7AF
:406A8000A7FF10BD704710B5FFF780FF10BD000003480021016041608160C16070470000EC110020024610B5FF20002A0CD0FFF7EFFF064C0321207B0843207310010A2120
:406AC000FEF7F4FB2060002010BD0000EC11002000B504480A21806848430209FFF7D8FF104600BDEC1100200248007B8007C00F70470000EC11002010B54B4908680028A1
:406B000002DA4A4B01221A70022290430860484800694549C00B4031096A0246C907C90F0A4259D0012000F097FA3F480E216C30FEF716F93E4820218430FEF711F93C4847
:406B400014219C30FEF70CF93948FF21C131A430FEF706F93648FF212F31B030FEF700F933483449BC30FEF7FBF831483249AC30FEF7F6F830492E48491CB430FEF7F0F85F
:406B80002B482E49B830FEF7EBF829482C49CC30FEF7E6F826482B490830FEF7E1F824482949A830FEF7DCF8214828498830FEF7D7F81F4826498C30FEF7D2F81C481921CA
:406BC000C9029030FEF7CCF8FEF7DAF8FEF7EAF9C0B2022812D01FE000290BD0002101420AD0114801216030FEF7BAF80120FEF7A1F997E70121F2E7FF2010BD1549164870
:406C0000FEF7AEF814481549001DFEF7A9F8124800210830FEF7A4F854200449C043891C0870002010BD000000F02E406C0D002000002E40320300002F3F000031020000FF
:406C400010520000EC160000FA12000031D000003AE300009956000080012E40F80F000070B50646581C80B245086D00002408E0304600F0C1F81055000A1119A41C487094
:406C8000A4B2AC42F4D3D80705D0D0182038D15CC47FD454C17770BD30B50A4C002100195B1E07E0541864782502545C2C430480891C89B29942F5DB994201D1515C01808B
:406CC00030BD000000102E4010B5FF2000F0C4F90F49FF2048700E481021801D41800121417001700A490020C91C4870FFF704FF04000AD100F010F907210648FEF720F8DC
:406D0000044807211830FEF71BF8204610BD00006C0D0020CC112E4070B5002405465B1E0AE0284600F068F8010A161971702D1D1055A41CADB2A4B29C42F2DB9C4203D127
:406D4000284600F059F8105570BD000070B500210A4D5B1E0AE0541864782602545C344346193480001D891C80B289B29942F2DB994202D1515C4019018070BD00102E4071
:406D8000F0B50599091FCFB200217E1E0BE0541864782502545C2C43164D45192C80001D891C80B289B2B142F1DBFC0712D01C78515C24020F4A0C4381180C809C785D7854
:406DC000001D210280B2294384182180001D80B2D9780CE059781A7809021143054A84182180001DD9789B78090280B2194380180180F0BD00102E4001494018008870475F
:406E000000102E4010B50B490020487000F084F8002000F047F9002000F034F907210648FDF78EFF044807211830FDF789FF002010BD00006F0D0020CC112E4010B50B46D1
:406E4000062812D006DC01280CD0032801D1FFF7D9FF10BD0A28FCD00B28FAD105480078107010BDFFF730FF10BD1146184600F035F910BD720D0020F8B5244DAC6A0127E8
:406E8000A007234E002816DA307806280ED1286A384328621F480069F903084381B21D481030FDF75DFF042000F0D6F8174802212830FDF745FFE00718D000F01FFF01281D
:406EC0000FD1002000F06CFF062000F0C5F81049FF20C91E48707078002802D1686B384368630A4801212830FDF72AFFE0050BD53078042802D1052000F0AEF80348FF21D6
:406F000001312830FDF71CFFF8BD000040F02E406F0D002000002E4010B503212348FDF71FFF0120FDF7F6FF20483038406A204C80076178800F890001431C480C38FDF7AD
:406F40000FFF6078002808D0401E022181401820FEF796FAC000083800E0B82081B21548FDF7FEFE1348032109021438FDF7F8FE10481149B830FDF7F3FE612189010F4852
:406F8000FDF7EEFE0D480321001FFDF7E9FE0C490C48FDF7E5FE0B480B496038FDF7E0FE084801218838FDF7DBFE10BD70F02E40720D0020D8102E4090890000041E2E40B5
:406FC000FF0F000058122E40209000000848017806290BD140780749002803D1486B400840004863C86A01221043C862704700006F0D002040F02E40014800787047000002
:407000006F0D002000B50300FFF7AEF8080D050D0B070507090D012000BD032000BD042000BD022000BDFF2000BD0000074A9168D26889B2064B92B2994204D105498A428D
:4070400001D1012100E000210170704780002E4033D000003FE3000010B50446FDF77EFF072C01D9FF2C01D102480470FDF76EFF10BD00006F0D0020014948707047000015
:407080006C0D002010B5064A012805D01921C9021046FDF765FE10BD1D21C902F8E7000090002E4010B50A4A141D012808D009491046FDF755FE08492046FDF751FE10BDBE
:4070C00004491046891CFDF74BFE0349491DF3E788002E4031D000003AE3000070B50C460546FDF75FFFC0B202280E49287804D0FF2810D04C280CD810E0FF2809D10A4A4C
:40710000D0680004800F032801D0087807E09069000A553803E00878207070BD4F382070087070BD6E0D002000002E40F0B50122002834D0002932D00424420600D0052424
:40714000792342065B06D21800D0641C034600221EE00C2516466E43124D00277519AF72104F002ABB51696007D0661EB24209D10D4E86197606760E05E05E06760E8027BF
:40718000BE1B00E080269B198919521C2E81D2B2A242DED303480549006B002288611046F0BD00007814002079020000780D002018B50020694608700A48006900280ED031
:4071C000132149014018047E684604704F21C900054800F05BF8A04201D0012018BD002018BD0000780D0020FC110020074900200C2242435218927A012A05D0401CC0B275
:407200000628F5D3002070470120704778140020F8B50F000446164609D01A4D1A496868A04202D94018A04201D38E4201D90120F8BD39462046FEF755F9002820D0324625
