:400000000080002011000000E5100000E510000080B500AF01F098F880B500AF394B12221A6004F033F8384B180004F04DFD012004F03CF8182003F0E1FD344B344A1A60E9
:40004000344B8022D2051A60334B334A126802210A431A60314B324A1A60324B00221A60314B314A126808218A431A60FA23DB00180003F0B5FE2D4B180003F0A7FF2C4BED
:40008000EF2212021A602B4B2B4A1A602B4B802252001A60274B2A4A1A602A4B2A4A1A60244B2A4A1A602A4BB02212011A60214B284A1A60284B882292011A601D4B274A09
:4000C0001A60274B822212061A60264B00221A60254B43221A60254B40221A60244B44221A60244B41221A60234B42221A60094B8022D2051A60034B11221A60C046BD4604
:4001000080BDC04630001040001BB70004010B40060000800C020B4078002E407C002E402D3E000064F02E406CF02E40DC0500000C0301400000014043FF008000030140BC
:4001400040FF00801003014000BF5D0044FF00800403014041FF00800803014042FF008008010B4000010B402C010140200101401C010140180101400401014080B582B0A3
:4001800000AF72B6504B00221A60504B01221A70FB1D00221A7022E0FB1D1A7813005B009B185B004A4A9B183B603B681A78597809020A43997809040A43DB781B06134388
:4001C00018003B681A795B791B0213439BB2190000F0F4FEFB1D1A78FB1D01321A70FB1D1B78012BD8D93B4A3B4B1100180000F0F5FE3A4B3A4A1A603A4B992212041A60B1
:40020000394BC02292041A60384BCC2292051A60374B992212041A60364B992212041A60354B992212041A60344B802292051A60334B992212041A60324BD02252051A6027
:40024000314B324A1A60324B06221A60314B06221A60314A304B1B78DBB23C218B43DBB214210B43DBB213702C4A2C4B1B78DBB216210B43DBB21370294B07221A60294B41
:40028000294A1A60294B20221A60294BC42292021A60284B20221A60274B40221A60274B8022D2021A60264BC4221A60254B264A1A60264B04221A60FFF7AEFE00F0D0FE3E
:4002C000C046BD4602B080BD6CF02E401C700F4014950100449501002095010000000240000800EE00010240000202400003024000500F4010500F4020500F4028500F404F
:4003000030500F4038500F4020012040188808002000104000800F4001700F4000700F400000044008000440BF0DD800000104400801044018010440000204400802044079
:400340000003044008030440000224001803044010B5064C2378002B07D1054B002B02D0044800E000BF0123237010BD1011002000000000A0940100084B10B5002B03D065
:400380000749084800E000BF07480368002B00D110BD064B002BFBD09847F9E70000000014110020A0940100A80B00200000000080B500AF00F018F905F0F6FB00F09CFCD5
:4003C00000F026FD00F048FDF6E7C04680B588B000AF04F043FA03001A000A4B1A60094B1A6809493B00180004F086FF3B00180003F0E8FB022004F04BFAC046BD4608B060
:4004000080BDC04634110020A494010080B58AB000AF012004F0ACFA6B4B1A686B490823FB18180004F068FF0823FB18180003F0C9FB04F013FA03001A00634B1A60624B65
:400440001A6862490823FB18180004F055FF0823FB18180003F0B6FB5B4B1A685E23FF339A425BDC642003F08BFD72B6584B1B685A1C574B1A60564B1B68022B02D1544B27
:4004800000221A60534B1B685A1C524B1A60514B1B68042B02D14F4B00221A604C4B1A682723FB184C498A5C1A704A4B1A684B4B9200D25C3B1D1A70464B1B68474A9B0091
:4004C000D31801331A783B1D5A70424B1B68434A9B00D31802331A783B1D9A703B1D2722BA181278DA703B1D180000F025FD00F003FC00F08DFC00F0AFFC334B1A68384990
:400500000823FB18180004F0F7FE0823FB18180003F058FB03F0D6FF62B64EE02C4B1B685A1C2B4B1A602A4B1B68022B02D1284B00221A60642003F023FD72B6244B1A68BB
:400540002623FB1824498A5C1A70224B1A68234B9200D25C3B001A701E4B1B681F4A9B00D31801331A783B005A701A4B1B681B4A9B00D31802331A783B009A703B00262258
:40058000BA181278DA703B00180000F0D5FC00F0B3FB00F03DFC00F05FFC0B4B1A6811490823FB18180004F0A7FE0823FB18180003F008FB03F086FF62B6002004F0D8F98D
:4005C000C046BD460AB080BD34110020B8940100301100202C110020BC0B0020AC0B0020CC940100DC94010080B582B000AF03F073FF04F089F8002004F094F803001A004E
:40060000BB1D1A80002004F08DF803001A003B1D1A802F4B180003F0F7FE62B604F0ECF82C4B180004F042F92B4B180004F0C8F92A4B180000F076FE03F00CF803F0F8F86A
:40064000FF2003F08DF8FF2003F09AF8FF2003F075F9062003F0A4F8062003F0B9F8062003F0CEF81E4B180000F0AAF81D4B9B681D4A1000190020231A0004F02CFE194B74
:400680009B68DB7F1C2B15D8164B9B68DB7F1A00154B01219954134B9B68DB7F0133134A1178114AD1540F4B9B68DB7F0233DAB20D4BDA770B4B0C4A9A6003F0E7F90C4B1C
:4006C000180003F07FFAC046BD4602B080BDC046F5060000CD0300000D04000041080000CC0C0000300C002060230020C00B0020EC94010080B500AF012004F0BFF900203F
:4007000004F0BCF9C046BD4680BDC04680B584B000AF78600A00FB1C1A70FB1C1B78042B49D17B681B781A007B6803331B785343FF21180004F0A8FC03001A000F23FB1832
:400740001A707B6801331B781A007B6803331B785343FF21180004F097FC03001A000E23FB181A707B6802331B781A007B6803331B785343FF21180004F086FC03001A006D
:400780000D23FB181A700F23FB181B78DB43DBB2180002F0E5FF0E23FB181B78DB43DBB2180002F0EDFF0D23FB181B78DB43DBB2180003F0C3F8C046BD4604B080BDC0463C
:4007C00080B582B000AF786003F0BAFC0121002003F0F8FC0121002003F022FD7B681900002003F083FD5A2003F0F0FB012003F04DFD03F07BFC044B180003F0BFF8C0461F
:40080000BD4602B080BDC0460D08000080B500AF03F016F903F0B2FD02000423134009D0042003F0B9FD054B1B889BB201339AB2024B1A80C046BD4680BDC0465C2300206F
:4008400090B597B000AF786039607B682B2B00D134E20FD8262B26D005D8012B1FD0202B00D1CBE03DE2272B00D195E1282B00D100E236E24C2B24D006D8412B00D11FE262
:40088000422B00D11EE22CE24E2B00D18EE000D2C3E189225200934200D115E221E2002000F0D8FD1DE2E34B1B78062B00D00DE2E14B1B78002B00D008E2002000F0CAFD11
:4008C00004E24823FB183A6813CA13C312681A604823FB189B890E2B59D14823FB181B89042B4BD14823FB185B681A78D34B1A704823FB185B685A78D04B5A704823FB18E8
:400900005B689A78CD4B9A704823FB185B68DA78CA4BDA700823FA18C94B1000190004231A0004F0D8FC0823FB181A78C34B1A700823FB185A78C14B9A700823FB189A786D
:40094000BE4B5A700823FB18DA78BC4BDA70BB4B04211800FFF7DAFEBA4A4823FB18181D0023002113F070FFB74B1B780133DAB2B54B1A70B04B01221A7008E04823FB1858
:400980009B890D221900122000F0A2FAA9E1AD4B1A785B781B021A4300231204120C1B0C1B041343180012F047FD9AE11823FB183A6813CA13C312681A601823FB189B89D7
:4009C000112B00D084E11823FB181B89012B00D07EE11823FB185B681A789B4B1A709A4B1B78013BDAB2984B1A70964A1823FB18181D0023002113F027FF69E18D4B1B78F4
:400A0000022B00D166E12823FB183A6813CA13C303CA03C32823FB181B78002B58D12823FB181A7A894BDB7F9A4251D12823FB18DA682823FB181B7A023BD3181B78012B4E
:400A400046D12823FB18DA682823FB181B7A013BD3181A787C4B1B789A420ED32823FB18DA682823FB181B7A013BD3181B78FF2B16D1754B1B78002B12D1754B01221A70D0
:400A80002823FB185B68734A1000190006231A0004F021FC2823FB185A786F4B1A7017E06B4B00221A706C4B00221A70694B00221A70684B00225A70664B00229A70654B1F
:400AC0000022DA70634B00221A71624B00225A712823FB181B78042B00D0FBE02823FB181B7A142B00D0F5E0594B1B78002B00D1F0E02823FB185B6856490622180004F0FC
:400B0000DBFB031E00D0E5E02823FB185A78524B1B789A4200D0DDE02823FB18D8682823FB181B7A1A004D4B190004F0C5FB031E00D0CFE000F090FD2823FB185A78484B70
:400B40009A712823FB185B681A78454B1A702823FB185B685A78424B5A702823FB185B689A783F4B9A702823FB185B68DA783C4BDA702823FB185B681A79394B1A7128233A
:400B8000FB185B685A79364B5A71364B01221A702F4B00221A709DE0334B1B78022B00D09AE0324B01221A703C23FB1811221A813C23FB18244A1A603C23FB1801229A8074
:400BC0003C23F9181F4B1A785B781B021A4300231204120C1B0C1B041343180012F0F2F80C23FB180E221A810C23FB18134A1A600C23FB1804229A800C23F918114B1A786F
:400C00005B781B021A4300231204120C1B0C1B041343180012F0CCF85EE00A4B1B78002B5CD0084B1B78180010F026FE104B01221A7053E0B6230020381100209023002087
:400C400010950100C8230020C00B00206023002039110020882300203A110020C40B0020802300203B110020D80B00203C1100203D1100201C4B00221A701C4B1B78012B60
:400C80000BD11B4B1B78012B07D01A4B1B78062B13D1002000F0DEFB0FE0144B1B78022B1ED1134B1B78012B1AD0124B1B78062B16D1002000F07EFC12E011E0C04610E0F7
:400CC000C0460EE0C0460CE0C0460AE0C04608E0C04606E0C04604E0C04602E0C04600E0C046BD4617B090BD3C110020D80B002038110020B623002090B583B000AF3A4BF1
:400D00001B78012B00D06BE004F04EFF374B1B78002B06D0354B1B78180010F0ADFD04F043FF334B1B78012B02D0022B28D057E0304B1B78032B03D100F0F8FB04F034FFF2
:400D40002C4B1B78062B18D1BC1D002000F032FC03002380BB1D1B88002B0BD1264B1B889AB2264B1A80224B02221A701E4B00221A7002E01E4B01221A7004F015FF2FE066
:400D80001C4B1B78042B03D100F066FC04F00CFF184B1B78062B20D1194BDB7F013B194A1178174AD154184B154A9A60BC1D002000F050FB03002380BB1D1B88002B09D14B
:400DC0000B4B01221A70114B00221A70064B00221A7002E0064B02221A7004F0E5FEC046C046BD4603B090BD38110020C8230020D80B0020B62300205C2300203E110020A6
:400E000060230020C00B0020300C00203B11002090B583B000AF0D4B1B78002B11D004F0C3FE0B4B1B78062B0BD1084B00221A70BC1D084B180000F021FC0300238004F0A9
:400E4000B3FEC046BD4603B090BDC0463B110020B62300208023002080B500AF164B1B78022B15D1154B1B889BB21A00144B1B889BB2D31A2D2B0BDD124B1B78062B03D0C5
:400E8000104B1B78042B03D10F4B01221A7011E00E4B1B78002B0DD004F086FE094B1B78062B07D1094B00221A70002000F082FB04F07AFEBD4680BDD80B00205C23002012
:400EC0003E110020B6230020381100203D11002090B585B000AF040008001100FB1D221C1A703B1D021C1A80BB1D0A1C1A700C23FB18FA1D12789A700C23FB183A1D1288D5
:400F00001A800C23FB18BA1D1278DA700C23F918084B1A785B781B021A4300231204120C1B0C1B041343180012F00EFAC046BD4605B090BDC823002080B586B000AF78609B
:400F40007B681A78194B1A707B685A78174B9A707B689A78154B5A707B68DA78134BDA70124B04211800FFF7D1FB0C23FB180E221A810C23FB187A681A600C23FB18042282
:400F80009A800B4A0C23F8180023002113F05CFC084B01221A70084B1B780133DAB2064B1A70C046BD4606B080BDC04690230020C823002038110020C00B002080B582B0C8
:400FC00000AF786039603A687B680021180004F08BF9C046BD4602B080BDC04680B586B000AF7860396000233B6100237B612FE07B699B007A68D3181B68BB600F23FB1816
:40100000BA681A70BB68FF229343BB6018E03B695B003A68D3181B781A00BB68D31819003B695B003A68D3185B780B703B6901333B610F23FB181A780F23FB18013A1A7048
:401040000F23FB181B78002BE1D17B6901337B617B69082BCCD9C046BD4606B080BDC04680B500AF0A4B03221A600A4B03221A60094B802212061A60084B04221A60084B6F
:4010800000221A60012000F00DF8C046BD4680BD300030403000314000003A4000033A40000E3F4080B584B000AF0200FB1D1A700B4B1B68FB60FB1D1B78002B05D0FB6875
:4010C000802212061343FB6003E0FB685B005B08FB60034BFA681A60C046BD4604B080BD80033A4080B500AF04F0BAF803001B680C2B00D1FEE7FEE780B584B000AF786033
:401100000F4B1A687B68D3181A000E4BD31A802B09DC0B4B1B68FB60094B1A687B68D218074B1A6007E004F09BF803000C221A6001235B42FB60FB681800BD4604B080BDCE
:40114000DC0B0020F023002080B586B000AF224B7B61224B3B61204B7B6135E03B691B68FB603B695B68BB603B699B683B6000237B600CE0FB681A68BB681A60BB68043361
:40118000BB60FB680433FB607B6804337B607A683B689A42EED13B69DB683B6000237B6008E0BB6800221A60BB680433BB607B6804337B607A683B689A42F2D13B6910336E
:4011C0003B617B69013B7B617B69002BC6D104F04DF8FFF7EDF8FEE701000000849A010080B582B000AF154B144A126801218A431A6000237B600FE07B68032B04D8104BAC
:401200007A689200D35800E00E4B0F4A796889008B507B6801337B607B682F2BECD9FEF7ADFF0A4B00221A60044B044A126801210A431A60C046BD4602B080BD000010406A
:4012400000000000E510000000000020C000002080B500AF1B4B00221A701B4B00221A701A4B00221A701A4B00221A70194B5A88194B1A80174B9A88174B5A80154B9A79D8
:40128000154B1A73134BDA79134B1A71124B0822DA81114B0A221A820F4B00225A820E4B64229A820C4B0022DA820B4B012252421A830A4B1E221A8000F012F8C046BD469D
:4012C00080BDC046DD230020C4230020DB230020DA230020440C002098230020B223002080B500AF0C4B1B88002B05D10B4B0E220021180003F0F8FF074BDB88002B05D1CB
:40130000074B06220021180003F0EEFF01F018FEC046BD4680BDC046DC0C0020CC230020BC230020B0B594B004AF78603E23FB1800221A802823FA183E4B10001900142307
:401340001A0003F0C8FF3C4B1B78002B04D1FFF77FFF394B01221A707B68002B5FD0374B7A681A603E23FB181B88002B29D11023FB181C22BA185A601023FB182022BA1819
:401380001A601023FB1800221A812023FB181B221A802023FB181B225A802023FB1804221A711C23FB1808221A703E23FC180E23FA181023FB181100180004F0D1FC03001E
:4013C00023803E23FB181B88002B2CD13E23FC182823FD18AE231A0119491A480023029300230193052300932B0004F00FFC030023803E23FB181B88002B14D1124B0122E5
:401400001A70124B08221A703E23FC18104B0F221121180013F000FA0300238003E03E23FB1801221A803E23FB181B881800BD4610B0B0BD58960100401100209423002079
:40144000C8000020751D0000B6230020B7230020A496010090B585B000AF0200FB1D1A70FB1D1B78022B04D90E23FB1801221A804AE0294B1B78062B41D1284B1B78DBB23A
:401480001A00042313403AD1FB1D1B78002B0BD1234B244A1A82224B5B6820221A80204B5B6830225A8010E0FB1D1B78012B0CD11B4B96221A821A4B5B68C822D2001A8021
:4014C000174B5B688022D2015A80174BFA1D12781A700E23FC18124B180010F06BFD030023800E23FB181B88002B0DD10B4B1B78DBB204221343DAB2084B1A7004E00E23C3
:40150000FB180422FF321A800E23FB181B881800BD4605B090BDC046B6230020DD230020300C0020FF7F0000DB23002080B500AF10F0D8FD054B1B78DBB208221343DAB257
:40154000024B1A70C046BD4680BDC046DD23002080B584B000AF78600A00FB1C1A700023BB60BB68002B20D07B689A79BB681A700F23FB1800221A7012E00F23FB181B78B3
:401580000133BA68D3180F22BA18127879688A5C1A700F23FB181A780F23FB1801321A700F23FB181B78052BE7D9C046BD4604B080BDC04690B585B000AF0200FB1D1A709E
:4015C000FB1D1B78022B04D90E23FB1801221A8035E0FB1D1B78002B09D11C4B08221A811A4B30225A80194B20229A800EE0FB1D1B78012B0AD1154B96221A81134B8022A0
:4016000012015A80114BE122D2009A80104BFA1D12781A700E23FC180C4B180010F050FC030023800E23FB181B88002B07D1094B1B78DBB204221343DAB2064B1A700E23D4
:40164000FB181B881800BD4605B090BD440C0020DA230020DD23002080B500AF10F05AFC054B1B78DBB208221343DAB2024B1A70C046BD4680BDC046DD23002090B585B077
:4016800000AF7860294B1B78062B05D00E23FB180422FF321A8041E07B68002B04D10E23FB1801221A8039E00D23FB1800221A7012E00D23FB181B780D22BA181278796820
:4016C000895C1B4AD3180A1C5A710D23FB181A780D23FB1801321A700D23FB181B78052BE7D97B689A79124BDA720E23FC18104B180010F093FB030023800E23FB181B88B7
:40170000002B0BD1094B05221A700A4B1B88002B04D0084B1B8818000DF0EEFA0E23FB181B881800BD4605B090BDC046B623002098230020B223002090B583B000AF104B5E
:401740001B78052B04D0BB1D0422FF321A8011E0BC1D10F059FB030023800A4B1B88002B01D00DF0E3FABB1D1B88002B02D1044B06221A70BB1D1B881800BD4603B090BD67
:40178000B6230020B223002080B582B000AF78607B681B789AB27B6801331B789BB21B029BB213439BB21800BD4602B080BDC04690B585B000AF78600F23FB1800221A7085
:4017C0007B689B890B22934232D17B68181D7A680F23FC184023002113F036F8030023700F23FB181B78002B1AD17B685B681800FFF7CAFF03001A00022313409BB2002BDA
:4018000007D00F4B1B687968822252001000984706E00B4B1B6879680622FF3210009847084B1B78DBB201229343DAB2054B1A700F23FB181B781800BD4605B090BDC04679
:4018400094230020DD23002080B582B000AF78607B68DB880D4A934214D10D4B5B88002B08D17B689A880A4B5A807B689A78084B1A7007E0074B1B687A68911D86225200A1
:4018800010009847C046BD4602B080BD052A0000BC2300209423002080B582B000AF78607B689B880B4A934210D10B4B9B88002B04D17B685A88084B9A8007E0074B1B68D6
:4018C0007A68111D8622520010009847C046BD4602B080BD02290000BC2300209423002080B582B000AF78600C4B5A887B689B899A420ED10A4B1B6879688322520010004D
:401900009847084B1B78DBB201229343DAB2054B1A70C046BD4602B080BDC046BC23002094230020DD23002090B585B000AF78600F23FC187B681800FFF73AFF03002370FB
:40194000154B1B78DBB21A00012313401FD10F23FB181B78002B16D00823FB1812229A707B689A890823FB181A800823FB180F22BA181278DA700823FA187B68110018685D
:4019800011F0E2FC03E07B68186811F055FDC046BD4605B090BDC046DD23002080B582B000AF7860C046BD4602B080BD80B582B000AF7860C046BD4602B080BD80B582B04B
:4019C00000AF7860C046BD4602B080BD80B582B000AF7860C046BD4602B080BD80B588B000AF7860394B1B78022B6AD1384B1B88002B66D00823F918354B022208009B18ED
:401A00000422190003F067FC7B6859687B681B891A000823FB180433180003F05CFC0823FB18180001F000FB294B1B8801339AB20823FB181A80274B1B781900264A0B00AA
:401A40005B005B185B00D31802331A880823FB185A800823FB181A880823FB185B889A4221D80823F9181D4B1A785B781B021A4300231204120C1B0C1B041343180011F0FE
:401A800013F9031E12D0164B1B6884225200002110009847134B1B78DBB202229343DAB2104B1A7002E0012000F0BCFC0D4B1B78DBB201229343DAB20A4B1A70044B00224A
:401AC0001A80C046BD4608B080BDC046B723002044110020DC230020DC0C0020C823002094230020DD23002080B588B000AF7860394B1B78022B6AD1384B1B88002B66D0B6
:401B00000823F918354B022208009B180422190003F0E1FB7B6859687B681B891A000823FB180433180003F0D6FB0823FB18180001F07AFA294B1B8801339AB20823FB18D6
:401B40001A80274B1B781900264A0B005B005B185B00D31802331A880823FB185A800823FB181A880823FB185B889A4221D80823F9181D4B1A785B781B021A43002312049D
:401B8000120C1B0C1B041343180011F08DF8031E12D0164B1B6884225200002110009847134B1B78DBB202229343DAB2104B1A7002E0012000F036FC0D4B1B78DBB2012235
:401BC0009343DAB20A4B1A70044B00221A80C046BD4608B080BDC046B723002044110020DC230020DC0C0020C823002094230020DD23002080B500AF094B00225A70084B86
:401C000000221A70074B1B78052B03D1054B07221A7002E0034B08221A70C046BD4680BDC8230020B723002080B582B000AF78607B681B78032B3ED1264B1B78DBB21A0091
:401C40000223134037D0244B1B78022B10D002DC012B05D024E0032B12D0042B18D01FE01E4B1B680822FF3200211000984717E01A4B1B68842252000021100098470FE0A0
:401C8000164B1B680A22FF3200211000984707E0124B1B6885225200002110009847C0460C4B1B78DBB202229343DAB2094B1A70094B00221A707B681B78042B05D1084B54
:401CC0001B78052B01D1FFF737FDC046BD4602B080BDC046DD230020B723002094230020B623002080B500AFC046BD4680BDC04680B584B000AF78600E23FB1800221A702D
:401D00007B689B79002B1CD10F23FB1800221A7012E00F23FB181B787A68D35C002B04D00E23FB1801221A700BE00F23FB181A780F23FB1801321A700F23FB181B78052B0C
:401D4000E7D90E23FB181B781800BD4604B080BD80B582B000AF0200BB1D1A80C046BD4602B080BD80B582B000AF7860C046BD4602B080BD80B588B000AF02003960FB1D89
:401D80001A70D44B1B78DBB201221343DAB2D14B1A70FB1D1B78712B00D919E29A00CE4BD3181B689F461023FB1807221A701023FB1800225A701023FB18180005F0E0FE32
:401DC0001023FB1807221A701023FB1801225A701023FB18180005F0D3FE0023002B01D003F0DAFEBD4B1B681800FFF781FF031E11D0BA4B1B68180003F0DAFEB74B1B689E
:401E000000211800FFF7A4FBB44B1B6801211800FFF79EFB36E0B24B1B781A003F231A40B04B1B789901FC231B010B401A43AE4B1B781903F8235B020B401A43AB4B1B78B1
:401E40005904FE231B040B401343BB61BB69DAB2A74B1A70BB691B0ADAB2A54B5A70BB691B0CDAB2A24B9A70A14B180003F0A0FE9F4B00211800FFF76BFB9D4B0121180049
:401E8000FFF766FB03200FF0A1FE0C23FB183F221A700C23FB1800225A700C23FB1818000FF0B2FE934B06221A709CE13B681800FFF7BAFE97E13B681A788F4B1A7092E1AC
:401EC0003B687B617B691B78002B00D082E17B695B78002B0BD1894B0022DA80874B00229A80864B864A1A607B69844A5A60794B1B78DBB201229343DAB2764B1A7069E1ED
:401F0000744B1B78DBB21A002023134000D063E17C4B1B78102B02D17A4B0522DA707A4B1B78784A1100180010F006F803001A000A23FB181A800A23FB181B88002B06D044
:401F4000724B1B680A22BA18110036209847614B1B78DBB201221343DAB25E4B1A706A4B1B78684A110018000FF0D2FB34E13B681800FFF7F7FE36E13B681800FFF7F2FE77
:401F8000634B1B88002B01D00CF0D0FE594B02221A7028E1574B06221A7024E1554B1B78022B00D11AE14B4B1B78DBB21A000123134000D112E1474B1B78DBB21A0004232C
:401FC00013400BD04B4B03221A70424B1B78DBB204229343DAB23F4B1A70FFE03D4B1B78DBB21A00082313400BD0424B06221A70384B1B78DBB208229343DAB2354B1A70B3
:40200000ECE03C4B1B78032B00D0E7E0394B06221A70E3E0374B1B78022B00D1E0E02D4B1B78DBB21A000123134000D1D8E0294B1B78DBB21A00042313400BD02D4B0422D6
:402040001A70244B1B78DBB204229343DAB2214B1A70C5E01F4B1B78DBB21A00082313400BD0244B06221A701A4B1B78DBB208229343DAB2174B1A70B2E01E4B1B78042B4C
:4020800000D0ADE01B4B06221A70A9E03B681B881800FFF75DFEA6E01B4A3B681000190002231A0003F017F9134B00221A70194B00221A70FFF716FE95E0FFF79BFD92E0E1
:4020C0003B685B88162B27D81E23FB183A6852881A8025E0DD23002004980100580C00207CF2FF0F7DF2FF0F7BF2FF0F78F2FF0F500C0020B6230020C42300205C11002075
:40210000A80B0020F00C0020C823002094230020B2230020B72300201E23FB1817221A801E23FB1819883B681A8800231204120C1B0C1B041343180011F010F953E03B6893
:402140001800FFF7F1FB4EE03B681800FFF726FC49E03B68180000F065F844E03B68180000F098FA3FE000F083FE3CE03B68180000F02AFD37E03B68180000F0C9FE32E0B9
:402180003B681800FFF71AFC2DE03B681800FFF7A7FB3B681800FFF719FC204B1B78DBB21A00012313401DD13B68186810F042FD18E03B681800FFF711FC14E03B68180061
:4021C000FFF792FC0FE03B681800FFF7EFFB0AE0C04608E0C04606E0C04604E0C04602E0C04600E0C0460D4B1B78DBB21A00112313400ED0094B1B78DBB201229343DAB25F
:40220000064B1A70064B1B68FA1D1278396810009847C046BD4608B080BDC046DD2300209423002080B586B000AF78600023FB60774B1B78012B00D0E6E0764B1B78DBB25B
:402240001A000223134000D1DEE00A23FB187A6812891A800A23FB181B88062B05D00A23FB181B88142B00D0C7E00823FB187A6852891A801423FB1800221A80ABE07B685B
:402280005A681423FB181B88D318FB601323FB1800221A70FB681A885F4B1B889A4200D27CE0FB681A885C4B5B889A4200D975E00A23FB181B88062B00D068E0FB6801228D
:4022C0001A751623FB1800221A8055E01623FB181A88524913005B009B185B00CB1804331A88FB689B889A423FD11623FB181A884A4913005B009B185B005B5A002B13D11E
:402300001623FB181A88454913005B009B185B00FA68CB1811000422180002F0DCFF1323FB1801221A7020E01623FB181B88012B0FD81623FB181B885A1C384913005B00F8
:402340009B185B00CB1804331A88FB689B889A420BD0334B1B68FA68111D0C22FF32100098471323FB1801221A701623FB181A881623FB1801321A801623FB181B88022B5E
:402380000CD81323FB181B78002B9FD006E0FB6802221A75FB68180000F046FE1323FB181B78002B0DD11B4B1B78DBB21A000123134006D01A4B1B68F9681222FF32100088
:4023C00098471423FB181422B9180A22BA18098812888A181A801423FA180823FB1812881B889A4200D24AE70A4B1B78DBB201229343DAB2074B1A7006E0094B1B680822E8
:40240000FF32002110009847C046BD4606B080BDB7230020DD230020B8230020DC0C00209423002080B582B000AF0200FB1D1A70FB1D1B78002B06D0344B1B780133DAB233
:40244000324B1A700CE0314B00221A70304B00221A8005E02D4B1B780133DAB22B4B1A702A4B1B78022B19D8284B1B781900294A0B005B005B185B009A5A274B1B889A4289
:40248000E8D3224B1B781900224A0B005B005B185B009A5A204B5B889A42DBD81B4B1B78022B28D8194B1B781A0013005B009B185B00184A9918194B1A785B781B021A43CE
:4024C00000231204120C1B0C1B041343180010F0EBFB031E15D0124B1B68842252000021100098470F4B1B78DBB202229343DAB20C4B1A7005E00C4B03221A70002000F021
:40250000ADFAC046BD4602B080BDC046DC23002044110020DC0C0020B8230020C823002094230020DD230020B723002080B582B000AF78607B68DB884F4A934200D184E08C
:402540004D4A93420BDC4D4A934224D04B4A934200DD68E0A822920193420AD087E0484A93423CD0474A93424BD0474A934224D07DE0464B1B88002B04D17B689A88434B34
:402580001A8074E0424B1B687A68911D86225200100098476BE03D4B5B88002B04D17B689A883A4B5A8062E0394B1B687A68911D862252001000984759E0344B1B89002B41
:4025C00004D17B689A88314B1A8150E0304B1B687A68911D862252001000984747E02B4B5B89002B04D17B689A88284B5A813EE0274B1B687A68911D8622520010009847E3
:4026000035E0224B9B89002B04D17B689A881F4B9A812CE01E4B1B687A68911D862252001000984723E0194B9B88002B04D17B689A88164B9A801AE0154B1B687A68911D82
:40264000862252001000984711E0104BDB88002B04D17B689A880D4BDA8007E00C4B1B687A68911D8622520010009847C046C046BD4602B080BDC046032A0000012A000075
:40268000A62A0000C92A0000042A0000CC2300209423002090B593B000AF7860D44B1B78DBB21A000223134000D1D1E13E23FB187A6812891A803C23FB187A6852891A808C
:4026C0007B685B683B64CB4B1B78032B00D0C7E04623FB1800221A80B8E03B6C1800FFF753F803001A002423FB181A803B6C02333B643B6C1A782423FB189A703B6C013373
:402700003B643B6C1800FFF73FF803001A002423FB189A803B6C02333B643E23FB181B88152B33D12423FB1802229A752423FB180622396C9B181022180002F0CCFD3B6C94
:4027400010333B64AC4B1B781900AC4A0B005B005B185B00D31804331B881A00A84B9A425DD0A54B1B78012B5BD9A34B1B78022B57D8A14B1B789BB2023B9BB22422BA18A1
:402780001100180000F0B8FCC0464AE03E23FB181B88072B48D12423FB1801229A753B6C1800FEF7F1FF03001A002423FB18DA803B6C02333B64904B1B7819008F4A0B00D3
:4027C0005B005B185B00D31804331B88C0225201934203D08B4A934206D00BE02423FB181800FFF7A3FE1FE02423FB181800FFF72BF819E0804B1B78012B14D97E4B1B7844
:40280000022B10D87C4B1B789BB2023B9BB22422BA181100180000F06FFCC04603E0C04602E0C04600E0C046714B1B78DBB201229343DAB26E4B1A704623FB184622B918A0
:402840003E22BA18098812888A181A804623FA183C23FB1812881B889A4200D23DE7F7E0644B1B78022B00D0F2E04623FB1800221A80E4E03B6C1800FEF786FF03001A0089
:402880000C23FB181A803B6C02333B643B6C1800FEF77AFF03001A000C23FB185A803B6C02333B643B6C1800FEF76EFF03001A000C23FB189A803B6C02333B643E23FB1857
:4028C0001B88062B30D10C23FB1802229A7510F069FA0C23FB1859884B4B1A785B781B021A4300231204120C1B0C1B041343180010F0F8F9031E07D1444B0C22BA1813CA32
:4029000013C313CA13C388E0414B1B6884225200002110009847364B1B78DBB202229343DAB2334B1A7078E03E23FB181B88082B00D072E00C23FB1801229A753B6C180069
:40294000FEF722FF03001A000C23FB18DA803B6C02333B644423FB1800221A8033E04423FB181A88254913005B009B185B00CB1804331A880C23FB18DB889A421CD144232D
:40298000FB181A881D4913005B009B185B005B5A002B11D14423FB181A88184913005B009B185B000C22BA180220CB1811180422180002F090FC0BE04423FB181A8844236D
:4029C000FB1801321A804423FB181B88022BC6D9094B1B781900094A0B005B005B185B00D31804331B881A000A4B9A4214D014E0DD230020B7230020DC230020DC0C00205E
:402A0000FEFF000001180000C8230020441100209423002012180000C0460F4B1B78DBB201229343DAB20C4B1A704623FB184622B9183E22BA18098812888A181A80462362
:402A4000FA183C23FB1812881B889A4200D211E7C046BD4613B090BDDD23002080B582B000AF0200FB1D1A70FB1D1B78002B06D0354B1B780133DAB2334B1A7009E0324B0F
:402A800000221A7005E0304B1B780133DAB22E4B1A702D4B1B78022B19D82B4B1B7819002A4A0B005B005B185B009A5A284B1B889A42E8D3244B1B781900244A0B005B0031
:402AC0005B185B009A5A224B5B889A42DBD81E4B1B78022B2DD81C4B1B781A001B4913005B009B185B001B4A585ACB185B881B04034319001378527812021A4300231204B9
:402B0000120C1B0C1B041343180010F0B1F8031E15D0114B1B680A22FF320021100098470E4B1B78DBB202229343DAB20B4B1A7005E00B4B04221A70002000F0E9F8C04607
:402B4000BD4602B080BDC046DC230020DC0C0020B8230020C823002094230020DD230020B723002080B582B000AF3B0000221A803B0000225A80114B1B78002B09D1104BAC
:402B80005B8801339AB23B001A800E4B1A893B005A803B1D3A0012681A603A1D002311880904090C1B0C1B040B43528812041B041B0C13431800BD4602B080BDDC230020C8
:402BC000BC230020DC0C002080B58AB000AF78600823FB1800225A804A4B1B78042B00D08BE0494B1B78DBB21A000223134000D183E01E23FB187A6812891A807B681A7BAF
:402C00000823FB181A750823FB187A6812881A800823FB181B7D012B04D12623FB1804221A8003E02623FB1812221A807B685B683B622423FB1800221A804EE03B6A18002F
:402C4000FEF7A2FD03001A000823FB185A803B6A02333B620823FB181B7D022B15D10823FB183A6A043311001022180002F033FB3B6A10333B62254B1B78012B23D10823C4
:402C8000FB18180000F0FEFB1DE03B6A1800FEF77BFD03001A000823FB189A803B6A02333B621A4B1B78002B04D10823FB181800FEF7F2FD154B1B78012B04D10823FB1889
:402CC000180000F0DFFB2423FB182422B9182622BA18098812888A181A802423FA181E23FB1812881B889A42A8D3074B1B78DBB201229343DAB2044B1A70C046BD460AB02C
:402D000080BDC046B7230020DD230020DC23002080B584B000AF0200FB1D1A700C23FB1800221A800C23FB1800225A804A4B1B78012B17D0FB1D1B78002B0DD0464B1B780D
:402D40000133DAB2444B1A70434B1B78012B09D1FB1D00221A7005E03F4B00221A70FB1D01221A703C4B1B78012B0CD1FB1D1B78180000F0C5FA03001A000C23FB181A6041
:402D8000FB1D01221A70344B1B78012B06D0FFF7E9FE03001A000C23FB181A600C23FB181A882E4B1B889A4215D90C23FB181A882A4B5B889A420ED80C23FB185A88274B26
:402DC0001B889A4207D30C23FB181A880C23FB185B889A4203D9204B1B78012BA6D91E4B1B78012B21D80C23F9181D4B1A785B781B021A4300231204120C1B0C1B04134375
:402E000018000FF01FFF031E21D0164B1B6885225200002110009847134B1B78DBB202229343DAB2104B1A7011E0104B05221A700C4B1B68892252000021100098470A4B3C
:402E40001B78DBB202229343DAB2074B1A70C046BD4604B080BDC046DC230020B8230020C823002094230020DD230020B723002080B500AF244B1B78DBB21A0002231340B5
:402E80003FD0224B1B78022B17D002DC012B05D037E0032B1DD0042B27D032E01B4B02221A700020FFF7BEFA174B1B78DBB201229343DAB2144B1A7023E00120FFF7B2FA0E
:402EC000114B1B78DBB201229343DAB20E4B1A7017E00120FFF7C2FD0B4B1B78DBB201229343DAB2084B1A700BE00120FFF710FF054B1B78DBB201229343DAB2024B1A706C
:402F0000C046C046BD4680BDDD230020B723002080B582B000AF7860084B1B78DBB21A000223134005D07B689B790A2B01D1FFF79FFFC046BD4602B080BDC046DD230020B3
:402F400080B582B000AFBB1D00221A8060E0BB1D1B889A1C324913005B009B185B005B5A002B50D13B1D00221A8040E0BB1D1B882C4A1B01D3180C331A683B1D1B881B013A
:402F8000D31800221A80BB1C00221A8019E0BB1D1B88244A1B01D3180C331A683B1D1B881B01D318D968BB1C1A8813005B009B189B00CB1800221A80BB1C1A88BB1C013293
:402FC0001A80BB1D1B88174A1B01D3180C331A683B1D1B881B01D3189B7A9BB2BA1C12889A42D4D33B1D1A883B1D01321A80BB1D1B880C4A1B01D31809331B789BB23A1DD2
:4030000012889A42B2D3BB1D1A88BB1D01321A80BB1D1B88002B9AD0C046BD4602B080BDDC0C0020140D002080B584B000AF78600D23FB1800221A700E23FB1800221A8046
:4030400046E00E23FB181B88284A1B01D31808331B78022B35D10E23FB181B88234A1B01D318043318687B6804331022190002F023F9031E25D10E23FB181B889A1C1C492B
:4030800013005B009B185B005B5A002B19D10E23FB181B889A1C164913005B009B185B007A68CB1811000422180002F014F9114B1B780133DAB20F4B1A700D23FB18012246
:4030C0001A700E23FB181A880E23FB1801321A800E23FB181B88002B04D10D23FB181B78002BAED0C046BD4604B080BD140D0020DC0C0020DC23002080B584B000AF02006D
:403100003960BB1D1A800D23FB1800221A70774B1B68002B0FD0764B1B88BA1D12889A4206D1724B1B683A681288013A92B21A806E4B00221A600E23FB1800221A80ABE049
:403140000C23FB1800221A703B689B7D022B27D1BB1D1B88674A1B01D3180C331A680E23FB181B881B01D3181B7A022B18D1BB1D1B88604A1B01D3180C331A680E23FB18C3
:403180001B881B01D31858683B6806331022190002F092F8031E03D10C23FB1801221A703B689B7D012B27D1BB1D1B88514A1B01D3180C331A680E23FB181B881B01D31873
:4031C0001B7A012B18D1BB1D1B884A4A1B01D3180C331A680E23FB181B881B01D31858683B6806330222190002F066F8031E03D10C23FB1801221A700C23FB181B78012B52
:4032000043D1BB1D1B883B4A1B01D3180C331A680E23FB181B881B01D3181B88002B34D1BB1D1B88334A1B01D3180C331A680E23FB181B881B01D3183A6892881A80BB1D15
:403240001B882C4A1B01D3180C331A680E23FB181B881B01D3183A6892785A72BB1D1B88244A1B01D3180C331A680E23FB181B881B01D3189A1C1D4B1A601D4BBA1D1288F7
:403280001A800D23FB1801221A700E23FB181A880E23FB1801321A80BB1D1B88154A1B01D31809331B789BB20E22BA1812889A4205D20D23FB181B78002B00D140E70B4BF2
:4032C0001B68002B0DD0094B1A680B4B1B7818000A4903005B001B185B00CB1802331B881380C046BD4604B080BDC046681100206C110020140D0020DC230020DC0C002041
:4033000080B584B000AF0200FB1D1A700823FB1800221A800823FB1800225A80FB1D1B78002B2DD0524B1B880133524A1288524912018A1809321278934206D24C4B1B8824
:4033400001339AB24A4B1A8023E04A4B1B88013309D1484B1B8801339AB2464B1A80444B00221A8015E0454B1B780133DAB2434B1A703F4B1B8801339AB23D4B1A8008E082
:403380003C4B00221A803A4B00221A80FB1D01221A70384B1B88384A1B01D31809331B789AB2334B1B889A421FD9324B1B88324A1B01D3180C331A682D4B1B881B01D3187F
:4033C0001B8801339AB20823FB181A80294B1B88294A1B01D3180C331A68254B1B881B01D3185A880823FB185A800823FB181A88234B1B889A4215D90823FB181A88204B66
:403400005B889A420ED80823FB185A881C4B1B889A4207D30823FB181A880823FB185B889A420CD9134B1B88134A1B01D31809331B789AB20E4B1B889A4200D96EE70C2390
:40344000FB180822BA1812681A600C23FA18002311880904090C1B0C1B040B43528812041B041B0C13431800BD4604B080BDC0466611002064110020140D0020DC2300206C
:40348000B823002080B584B000AF78600E23FB1800221A700F23FB1800221A70B9E00D23FB1800221A707B681B7D022B37D1664B1B88664A1B01D3180C331A68644B1B88EA
:4034C0001B01D318D9680F23FB181A7813005B009B189B00CB181B7A022B20D15A4B1B885A4A1B01D3180C331A68594B1B881B01D318D9680F23FB181A7813005B009B1820
:403500009B00CB1858687B6804331022190001F0D3FE031E03D10D23FB1801221A707B681B7D012B37D1484B1B88484A1B01D3180C331A68464B1B881B01D318D9680F2354
:40354000FB181A7813005B009B189B00CB181B7A012B20D13C4B1B883C4A1B01D3180C331A683B4B1B881B01D318D9680F23FB181A7813005B009B189B00CB1858687B6853
:4035800004330222190001F097FE031E03D10D23FB1801221A700D23FB181B78012B31D1294B1B88294A1B01D3180C331A68284B1B881B01D318D9680F23FB181A7813008E
:4035C0005B009B189B00CB181B88002B1AD11E4B1B881E4A1B01D3180C331A681C4B1B881B01D318D9680F23FB181A7813005B009B189B00CB187A6852881A800E23FB18E8
:4036000001221A700F23FB181A780F23FB1801321A700D4B1B880D4A1B01D3180C331A680B4B1B881B01D3189B7A0F22BA1812789A4205D20E23FB181B78002B00D12EE7AD
:40364000C046BD4604B080BD64110020140D00206611002080B500AF064B1B78002B04D100F00AF8034B01221A7000F03FF8C046BD4680BD6E11002090B583B000AFFF20DC
:4036800000F044F8B82000F05BF8012000F068F8012000F075F8FC1D01F01FFA03002370104A104B1B78DBB201210B43DBB21370FB1D1B78180001F014FA0B4A0A4B1B78C7
:4036C000DBB202218B43DBB21370074A064B1B78DBB204218B43DBB21370C046BD4603B090BDC04693000F4073000F4080B500AF054A054B1B78DBB201210B43DBB21370A1
:40370000C046BD4680BDC04673000F4080B582B000AF0200FB1D1A70FB1D1B78002B07D0054AFB1D1B781370044AFB1D1B781370C046BD4602B080BD43000F4003000F403F
:4037400080B582B000AF0200FB1D1A70034AFB1D1B781370C046BD4602B080BD13000F4080B582B000AF0200FB1D1A70034AFB1D1B781370C046BD4602B080BD23000F401B
:4037800080B582B000AF0200FB1D1A70034AFB1D1B781370C046BD4602B080BD33000F4080B582B000AF0200FB1D1A70064B064A126806491140FA1D127892040A431A60E7
:4037C000C046BD4602B080BD08020440FFFFE3FF80B582B000AF0200FB1D1A70064B064A126806491140FA1D127892040A431A60C046BD4602B080BD08030440FFFFE3FF09
:4038000080B582B000AF0200FB1D1A70064B064A126806491140FA1D127852050A431A60C046BD4602B080BD08030440FFFF1FFF80B500AF064B1B78002B04D100F00AF837
:40384000034B01221A7000F03FF8C046BD4680BD6F11002090B583B000AFFF2000F044F8B82000F05BF8012000F068F8012000F075F8FC1D01F031F903002370104A104B45
:403880001B78DBB201210B43DBB21370FB1D1B78180001F026F90B4A0A4B1B78DBB202218B43DBB21370074A064B1B78DBB204218B43DBB21370C046BD4603B090BDC046F6
:4038C00092000F4072000F4080B500AF054A054B1B78DBB201210B43DBB21370C046BD4680BDC04672000F4080B582B000AF0200FB1D1A70FB1D1B78002B07D0054AFB1D28
:403900001B781370044AFB1D1B781370C046BD4602B080BD42000F4002000F4080B582B000AF0200FB1D1A70034AFB1D1B781370C046BD4602B080BD12000F4080B582B026
:4039400000AF0200FB1D1A70034AFB1D1B781370C046BD4602B080BD22000F4080B582B000AF0200FB1D1A70034AFB1D1B781370C046BD4602B080BD32000F4080B582B0FB
:4039800000AF786000F050F87B68180000F00AF8032000F015F800F03BF8C046BD4602B080BDC04680B582B000AF7860034B7A681A66C046BD4602B080BDC046000000205E
:4039C00090B585B000AF0200FB1D1A700623FB600B23FC1801F081F8030023700B4B0B4A1268C0218A431100FA1D1078FA68904002000A431A600B23FB181B78180001F0D9
:403A000070F8C046BD4605B090BDC04608E400E080B500AF034B802252001A60C046BD4680BDC04600E100E080B500AF034B802252001A60C046BD4680BDC04680E100E067
:403A400080B500AF034B802252001A60C046BD4680BDC04680E200E080B500AF00F036F8C046BD4680BDC04680B500AF064B064A1268802109060A431A6000F019F800F063
:403A80001DF8C046BD4680BD0000244080B500AF064B1B78002B04D1FFF7DEFF034B01221A70FFF7E1FFC046BD4680BD7011002080B500AFC046BD4680BDC04680B500AFE0
:403AC00000F066F8C046BD4680BDC04680B500AF1B4B1C4A1A601C4B00221A601B4B1C4A1A601C4B1C4A1A601C4B07221A601C4B00221A601B4B01221A601B4B164A1A6022
:403B00001A4B00221A601A4B04221A60194B00221A60194B00221A60184B00221A60184B00221A60174B00221A60174B00221A60154B1B689AB2154B1A80C046BD4680BD16
:403B4000000024400B000002400024404800244001000A000003244007000080040324401003244044002440000224400402244050002440880E2440C80E2440480F24408E
:403B8000080F2440C80F2440880F24407211002080B500AF074B074A126807490A40902109040A431A60054B054A12881A60C046BD4680BD00010240FFFF0FFF880F24404E
:403BC0007211002080B584B000AF78600023FB6009E07A68FB68D3181B78180000F084FFFB680133FB607A68FB68D3181B78002BEFD1C046BD4604B080BDC04690B585B063
:403C000000AF78600C23FC1800F067FF030023707B68022B00D8AFE07B68302B00D9ABE05C4B1B78DBB21A007B689A420AD35A4A0F23FB1812781A70584A0E23FB181278CB
:403C40001A703FE0564B1B78DBB21A007B689A420AD3544A0F23FB1812781A70524A0E23FB1812781A702DE0504B1B78DBB21A007B689A420AD34E4A0F23FB1812781A70CA
:403C80004C4A0E23FB1812781A701BE04A4B1B78DBB21A007B689A420AD3484A0F23FB1812781A70464A0E23FB1812781A7009E0444A0F23FB1812781A70434A0E23FB183C
:403CC00012781A707B68DA1E0B23FB183F498A5C1A700B23FB181B782F2B0DD97B682A2B0AD93B4B19221A60052000F0EDFE0D23FB1819221A7007E0354B1B68DAB20D2384
:403D0000FB183F210A401A700B23FA180D23FB1812781B789A4208D22D4B7A68033A2B498A5C1A60052000F0CFFE2A4B7A6826498C4662441278D2B21A60274B0F22BA185E
:403D400012781A60254B0E22BA1812781A60052000F03CF90B23FA180D23FB1812781B789A420CD91A4B7A68033A18498A5C1A60052000F0A9FE02E0002000F0F5F80C230F
:403D8000FB181B78180000F0ACFEC046BD4605B090BDC04640F3FF0F41F3FF0F42F3FF0F43F3FF0F44F3FF0F45F3FF0F46F3FF0F47F3FF0F48F3FF0F49F3FF0F4AF3FF0F98
:403DC0004BF3FF0F4CF3FF0F4DF3FF0FFC9901002CFF0B4028FF0B401CFF0B4020FF0B4080B584B000AF78600023FB60154B154A126801210A431A60134B144A1A60144B69
:403E0000134A1268802109020A431A607B68002B12D01023FB600CE0012000F0D7F800F019F8031E02D00023FB6005E07B68013B7B607B68002BEFD1FB681800BD4604B09D
:403E400080BDC04660F02E4078002E400220000010002E4080B582B000AF054B1B68012213407B607B681800BD4602B080BDC0460C002E4080B584B000AF02003960FB1D49
:403E80001A7080239B05FB60FB1D1B781F2B02D9002000F069F8FB1D1B7810339B00FA68D3181B68BB60FB1D1B7810339B00FA68D3183A681A60BB681800BD4604B080BD04
:403EC00090B587B000AF0200FB1D1A70BB1D0A1C1A70BB1D1B78032B02D9002000F044F8FB1D1B781F2B02D9002000F03DF8FB1D1B7803221340DB0006337B611323FC1839
:403F000000F0EBFD03002370FB1D1B789B08DBB29B00144A944663441B68FB6003227B699A401300DA43FB681340FB60BB1D1A787B699A401300FA681343FB60FB1D1B78C3
:403F40009B08DBB29B00074A94466344FA681A601323FB181B78180000F0C3FDC046BD4607B090BD00E400E080B582B000AF0200FB1D1A7001BEC046BD4602B080BDC046DC
:403F800080B582B000AF786009E00D4B1B68180000F09AFD7B680B4A944663447B607A6880231B029A42F0D8074B1B687A685343180000F089FDC046BD4602B080BDC046FD
:403FC000300D00200080FFFF280D002080B582B000AF0200BB1D1A80BB1D1B88044A12785343180000F070FDC046BD4602B080BD2C0D002080B500AF0F4B0F4A1268012125
:404000008A431A600C4B0C4A126802218A431A600A4B0A4A126830218A4310210A431A60064B064A126807218A4301210A431A60C046BD4680BDC04600F02E4000FF2E405F
:4040400080B500AF0F4B0F4A126802218A431A600D4B0D4A126807218A4302210A431A60094B094A126830218A4320210A431A60044B044A126801210A431A60C046BD466D
:4040800080BDC04600F02E4000FF2E4080B500AFFFF7B0FF044B044A1268802109060A431A60C046BD4680BD00F02E4080B584B000AF78600C4B1B6801221340FB607B68B9
:4040C000002B02D0012B03D005E0FFF793FF06E0FFF7B6FF03E00020FFF746FFC046FB681800BD4604B080BD00F02E4090B583B000AFFC1D00F0F1FC03002370074B074A5F
:404100001268C02109020A431A60FB1D1B78180000F0E7FCC046BD4603B090BD00010B4080B500AF054B1A68C0231B02134001D0012300E000231800BD4680BD00010B40C2
:4041400090B583B000AFFC1D00F0C7FC030023700D4B0D4A12680D490A408021C9010A431A60094B084A126808490A40802109020A431A60FB1D1B78180000F0B2FCC04626
:40418000BD4603B090BDC04600010B40FF3FFFFF80B582B000AF78607B68022B02D90020FFF7E2FE064B1A687B68DB000133DA401300012213401800BD4602B080BDC04627
:4041C00010020B4080B584B000AF786039607B68022B02D90020FFF7C7FE7B681800FFF7D7FF031E16D10D4B1B687A68D200032191400A00D2431340FB603B6803221A40D1
:404200007B68DB009A401300FA681343FB60034BFA681A60C046BD4604B080BD0C020B4080B584B000AF786039607B68002B02D07B68012B01D1012300E00023002B02D1D4
:404240000020FFF791FE7B681800FFF7A1FF031E16D10D4B1B687A68D2000232012191400A00D2431340FB607B68DB0002333A689A401300FA681343FB60034BFA681A60BE
:40428000C046BD4604B080BD0C020B4080B582B000AF7860144B144A11687A680A431A607B680122134005D0C0460020FFF770FF031EFAD07A6880235B00134005D0C0462C
:4042C0000120FFF765FF031EFAD07A6880235B02134005D0C0460220FFF75AFF031EFAD0C046BD4602B080BD10020B4080B584B000AF786039607B68002B02D07B68012B1F
:4043000001D1012300E00023002B02D10020FFF72BFE174B1B689B0F9B0701D1C92300E05D231800FFF752FE124B1B68FB607B681B01114A9A401300DA43FB681340FB60EA
:404340000C4B7A68120139689140FA680A431A60074B1B689B0F9B0701D1432300E01F231800FFF733FEC046BD4604B080BDC0460C020B4008020B40FFFF000080B500AF0C
:40438000034B1B68034A13401800BD4680BDC04610020B400404040090B585B000AF78600B23FC1800F099FB03002370FFF7B8FE031E04D00123FB60FFF7C2FE01E000238E
:4043C000FB607B680D4A13407B600D4B0C4A12680C4911407A680A431A60094B1B68FB68012B01D1FFF782FE0B23FB181B78180000F077FBC046BD4605B090BD0404040070
:4044000010020B40FBFBFBFF80B582B000AF786000F04EF87B68180000F00AF8032000F015F800F03BF8C046BD4602B080BDC04680B582B000AF7860034B7A685A64C046FB
:40444000BD4602B080BDC0460000002090B585B000AF0200FB1D1A700E23FB600B23FC1800F03BFB030023700A4B0A4A12680A491140FA1D1078FA68904002000A431A606C
:404480000B23FB181B78180000F02BFBC046BD4605B090BD00E400E0FF3FFFFF80B500AF024B02221A60C046BD4680BD00E100E080B500AF024B02221A60C046BD4680BD04
:4044C00080E100E080B500AF024B02221A60C046BD4680BD80E200E080B500AF064B1B78002B04D100F00AF8034B01221A7000F0EFF8C046BD4680BD7411002080B584B044
:4045000000AF03210F20FFF7DBFC574B19000F20FFF7B0FC554B01221A60554B1B68002B01DA544900E05449544B544A12680A431A60534B534A1A60534B544A1A60544B18
:4045400000221A60534B544A1A60544B524A1A60534B534A1268802149020A431A60514B00221A60504B00221A60504B01221A604F4B1B687B607B684E4A13407B607B68A1
:404580008022920513437B607B68012293437B60474B7A681A600023FB605EE08023DA00DC239B0113407B60FB689B00424A944663447A681A608023DB00012213400AD0B5
:4045C000384B384A11680120FA68904002001204120C0A431A608023DB00022213400AD0314B314A11680120FA68904002001204120C0A431A608023DA0080239B00134050
:4046000003D080235B00BB6002E080235B01BB608023DA0080235B00134005D1274BFA6852000021D15204E0244BFA6852000021D152BB68224A5343224A944663442249BC
:40464000180000F021FD03001BB219001F4BFA689200D150FB680133FB60FB68002B9DD0C046BD4604B080BD6947000020003A4080033A40700210537002005300003A406A
:4046800004003A408C00008018003A400000FF071C003A4010003A400200020014003A4000033A4028023A4038023A4018023A4030003A40FFFFFFDF80003A40E423002016
:4046C00010270000E40C0000C8190000E023002080B500AF0A4B1B68002B0EDBC046094B1B68002BFBDB064B054A1268802109060A431A600A20FFF769FCC046BD4680BD85
:4047000000003A4008023A4080B500AF044B044A1268802149020A431A60C046BD4680BD04003A4080B584B000AF78607B68002B02D00020FFF718FC7B68002B09D17B6844
:404740009B00084A944663441B681B041B0CFB6001E00023FB60FB681BB21800BD4604B080BDC04680013A4080B582B000AF054B1B687B60034B7A681A60C046BD4602B0E2
:4047800080BDC04610023A4080B500AF0A4B802292041A60094B8E2252001A60022000F069F8074B180000F049F8002000F036F8C046BD4680BDC0460001204024012040F1
:4047C000FFFF000090B583B000AFFC1D00F085F903002370074B074A126801210A431A60FB1D1B78180000F07CF9C046BD4603B090BDC0460000204080B500AF064B1B7812
:40480000002B04D1FFF7C0FF034B01221A70FFF7D9FFC046BD4680BD7511002080B582B000AF7860044B7A681204120C1A60C046BD4602B080BDC0460801204080B582B073
:4048400000AF7860044B7A681204120C1A60C046BD4602B080BDC0461401204080B500AF034B1B681B041B0C1800BD4680BDC0460C01204080B582B000AF7860034B7A687B
:404880001A60C046BD4602B080BDC0463801204080B582B000AF7860034B7A681A60C046BD4602B080BDC0463001204080B582B000AF786000F050F87B68180000F00AF8AD
:4048C000032000F015F800F03BF8C046BD4602B080BDC04680B582B000AF7860034B84217A685A50C046BD4602B080BD0000002090B585B000AF0200FB1D1A700E23FB6099
:404900000B23FC1800F0E9F8030023700A4B0A4A12680A491140FA1D1078FA68904002000A431A600B23FB181B78180000F0D9F8C046BD4605B090BD10E400E0FF3FFFFFA5
:4049400080B500AF034B802292021A60C046BD4680BDC04600E100E080B500AF034B802292021A60C046BD4680BDC04680E100E080B584B000AF0200FB1D1A700F4B1B6840
:40498000DAB20F23FB1802218A431A70FB1D1B78DB18DBB202221340D9B20F23FB180F22BA1812780A431A70044B0F22BA1812781A60C046BD4604B080BDC046000004403C
:4049C00080B582B000AF786000F04EF87B68180000F00AF8032000F015F800F03BF8C046BD4602B080BDC04680B582B000AF7860034B7A689A64C046BD4602B080BDC0464B
:404A00000000002090B585B000AF0200FB1D1A701623FB600B23FC1800F05FF8030023700A4B0A4A12680A491140FA1D1078FA68904002000A431A600B23FB181B78180089
:404A400000F04FF8C046BD4605B090BD00E400E0FFFF3FFF80B500AF024B04221A60C046BD4680BD00E100E080B500AF024B04221A60C046BD4680BD80E100E080B584B05B
:404A800000AF0200FB1D1A700E4B1B68DAB20F23FB1801218A431A70FB1D1B7801221340D9B20F23FB180F22BA1812780A431A70044B0F22BA1812781A60C046BD4604B015
:404AC00080BDC046000004400230800803D00138FDD1C046C046C0467047EFF3108072B6704780F31088704780B582B000AF7860C046064B1B681F221340082BF9D0044B18
:404B00007A681A60C046BD4602B080BD080224404002244080B582B000AF78600A00BB1C1A80BB1C1A887B681A60C046BD4602B080BDC04680B582B000AF78600A00BB1C01
:404B40001A80BB1C1A887B681A60C046BD4602B080BDC04680B584B000AF494B1B78DBB21B02484A1278D2B21343FB60464B1B78DBB21B02454A1278D2B21343BB60BB688E
:404B8000434A934207D1FB68072B04D1414BBB600423FB6009E0BA68D4231B019A4204D1FB68042B01D13B4BBB603B4BBA681A603A4BFA681A603A4B1B78DBB21B02394A8C
:404BC0001278D2B21343FB60FA6880239B019A4202D0FB68002B01D1334BFB60334BFA681A60334B1B78DBB21B02324A1278D2B21343FB60FB68304A934206D0FB682F4ABA
:404C0000934202D0FB68052B01D12D4BFB602D4BFA681A602C4B1B681B097B602B4B1B68AA2B29D17B68012B26D9214B1B78DBB20E2B21D1264B1B78DBB29BB21B0299B275
:404C4000244B1B78DBB29AB2BB1C0A431A80224BBA1C12881A60214B1B78DBB29BB21B0299B21F4B1B78DBB29AB23B000A431A801C4B3A0012881A60C046BD4604B080BD5C
:404C800059F1FF0F58F1FF0F5FF1FF0F5EF1FF0F580B0000580D00006C002E4074002E405BF1FF0F5AF1FF0F0220000078002E405DF1FF0F5CF1FF0F0F0F0000050500006C
:404CC000050F000080002E40EC0F00F0E00F00F06DF2FF0F6CF2FF0F84002E406FF2FF0F6EF2FF0F94002E4080B582B000AF0200BB1D1A80BB1D1B881800FFF767F9C046C5
:404D0000BD4602B080BDC04680B582B000AF78607B681800FFF734F9C046BD4602B080BD80B500AF00F0ECF8C046BD4680BDC04680B500AF00F0F0F8C046BD4680BDC0466B
:404D400080B500AF00F0E8F8044B180000F0A2F8022000F0ADF8C046BD4680BD654F000080B500AF034B180000F080F8C046BD4680BDC046654F000080B500AF014B1800E3
:404D8000BD4680BD0202000080B582B000AF78602B231800BD4602B080BDC04680B582B000AF78602B231800BD4602B080BDC04680B582B000AF78602B231800BD4602B00E
:404DC00080BDC04680B582B000AF78602B231800BD4602B080BDC04680B582B000AF78602B231800BD4602B080BDC04680B582B000AF78602B231800BD4602B080BDC0468C
:404E000080B582B000AF78602B231800BD4602B080BDC04680B582B000AF78602B231800BD4602B080BDC04680B500AF2B231800BD4680BD80B582B000AF0200FB1D1A7096
:404E40002B231800BD4602B080BDC04680B582B000AF786039602B231800BD4602B080BD80B500AFC046BD4680BDC04680B582B000AF786000F050F87B68180000F00AF8B2
:404E8000022000F015F800F03BF8C046BD4602B080BDC04680B582B000AF7860034B7A681A67C046BD4602B080BDC0460000002090B585B000AF0200FB1D1A700623FB60A4
:404EC0000B23FC18FFF709FE030023700B4B0B4A1268C0218A431100FA1D1078FA68904002000A431A600B23FB181B781800FFF7F8FDC046BD4605B090BDC0460CE400E0A7
:404F000080B500AF034B802252011A60C046BD4680BDC04600E100E080B500AF034B802252011A60C046BD4680BDC04680E100E090B583B000AFFC1DFFF7CFFD03002370FD
:404F4000074B074A126804218A431A6030BFFB1D1B781800FFF7C5FDC046BD4603B090BD10ED00E080B500AF14F086FAC046BD4680BDC046002243088B4274D303098B424A
:404F80005FD3030A8B4244D3030B8B4228D3030C8B420DD3FF22090212BA030C8B4202D31212090265D0030B8B4219D300E0090AC30B8B4201D3CB03C01A5241830B8B4270
:404FC00001D38B03C01A5241430B8B4201D34B03C01A5241030B8B4201D30B03C01A5241C30A8B4201D3CB02C01A5241830A8B4201D38B02C01A5241430A8B4201D34B0203
:40500000C01A5241030A8B4201D30B02C01A5241CDD2C3098B4201D3CB01C01A524183098B4201D38B01C01A524143098B4201D34B01C01A524103098B4201D30B01C01A37
:405040005241C3088B4201D3CB00C01A524183088B4201D38B00C01A524143088B4201D34B00C01A5241411A00D20146524110467047FFE701B5002000F0F0F802BDC046C4
:405080000029F7D076E7704703460B437FD4002243088B4274D303098B425FD3030A8B4244D3030B8B4228D3030C8B420DD3FF22090212BA030C8B4202D31212090265D0E6
:4050C000030B8B4219D300E0090AC30B8B4201D3CB03C01A5241830B8B4201D38B03C01A5241430B8B4201D34B03C01A5241030B8B4201D30B03C01A5241C30A8B4201D3E0
:40510000CB02C01A5241830A8B4201D38B02C01A5241430A8B4201D34B02C01A5241030A8B4201D30B02C01A5241CDD2C3098B4201D3CB01C01A524183098B4201D38B013F
:40514000C01A524143098B4201D34B01C01A524103098B4201D30B01C01A5241C3088B4201D3CB00C01A524183088B4201D38B00C01A524143088B4201D34B00C01A52418A
:40518000411A00D201465241104670475DE0CA0F00D04942031000D34042534000229C4603098B422DD3030A8B4212D3FC22890112BA030A8B420CD3890192118B4208D3D1
:4051C000890192118B4204D389013AD0921100E08909C3098B4201D3CB01C01A524183098B4201D38B01C01A524143098B4201D34B01C01A524103098B4201D30B01C01A30
:405200005241C3088B4201D3CB00C01A524183088B4201D38B00C01A5241D9D243088B4201D34B00C01A5241411A00D20146634652415B10104601D34042002B00D5494272
:40524000704763465B1000D3404201B5002000F005F802BD0029F8D016E770477047C046014B18687047C046081100200E4B70B500251E000D4CE41AA410A54204D0AB0036
:40528000F35898470135F8E714F0EAFB084B00251E00084CE41AA410A54204D0AB00F35898470135F8E770BD6C9A01006C9A01006C9A0100749A010030B50024A24208D06F
:4052C000035D651C0C5DA34201D0181B02E02C00F4E7002030BD002310B59A4203D0CC5CC4540133F9E710BD03008218934202D019700133FAE770470EB410B59DB002A9B5
:40530000029008610B48822488604861012040421FABC881084804CBA400006801938C8100F06EF80023029A13701DB010BC08BC03B01847FFFFFF7F08110020F0B58E680F
:4053400085B007000C00039201939E4243D890238A89DB001A423ED003250969236801985B1A029363695D43EB0F5D19029B6D1001331B18AB4200D91D00530510D5290048
:40538000380000F037FB061E14D0029A2169FFF7A2FFA289194B134080221343A38112E02A00380000F086FB061E0CD12169380000F0D4FA0C23402201203B60A38940428F
:4053C0001343A38117E0029B2661F61826606561019EED1AA560019BB34200D21E0032000399206800F0A5FA0020A3689B1BA36023689E19266005B0F0BDC0467FFBFFFF21
:40540000F0B59FB0029005938B890F0016001B0610D50B69002B0DD1402100F0EBFA38603861002804D10C23029A01381360D8E040237B61002306AD6B6120336B761033A7
:40544000AB7634002378002B03D1A31B049312D003E0252BF9D00134F4E7A31B320039000298FFF76BFF431C00D1B4E06A69049B944663446B612378002B00D1ABE001220F
:40548000002352426A6002A95432521801342B60EB60AB601370AB65534E21780522300000F03CFA002807D00123801B83402A68013413432B60EFE72B68DA0604D55322B0
:4054C000202102A8121811701A0704D553222B2102A81218117022782A2A03D0099B00200A210EE0059A111D12680591002A01DB099204E05242EA60022213432B600134EE
:405500000BE02278303A092A04D84B4301349B180120F6E7002800D0099323782E2B1ED163782A2B0AD1059B02341A1D1B680592002B01DA01235B42079310E000230A20B2
:405540001A0001346B6021783039092904D84243013452180123F6E7002B00D00792234E21780322300000F0D9F9002806D04023801B83402A68013413432B6021780622FF
:405580001B48661C297600F0C9F9002812D0194B002B06D10722059B073393430833059314E005AB00933A00134B2900029800E000BF07E005AB00933A000F4B29000298E7
:4055C00000F08AF80390039B013304D06B69039A9B186B6135E7BB890B985B0601D5012040421FB0F0BDC0462C9A0100329A0100369A0100000000003D530000F7B51700F9
:4056000001938A680B6900900C00934200DA130022003B6043321278002A01D001333B6023689B0602D53B6802333B60062523681D401ED0230043331B785A1E9341226813
:4056400092061CD53020E1184331087021005A1C45310978A2184332023311700FE022000123193201990098089EB047431C0ED00135E3683A689B1A9D42F0DBDAE7220008
:40568000019943320098089DA847431C02D10120404220E006232068E1683A6803400025042B03D18D1AEB43DB171D40A3682269934201DD9B1AED180027BD420AD022008A
:4056C00001231A3201990098089EB047431CDED00137F2E70020FEBDF0B58BB006920A0043320793059004920A7E0C00109B6E2A00D1ABE011D8632A22D009D8002A00D13F
:40570000B5E0582A00D0C5E045310A70814A4FE0642A1DD0692A1BD0BCE0732A00D1AAE009D86F2A29D0702A00D0B3E0202209680A43226037E0752A1FD0782A33D0A9E0A1
:405740000E001A684236111D196013683370A4E021681A68080606D4490604D5111D19600023D55E02E0111D19601568002D3BDA2D23049A6D42137036E021681A68080629
:4057800006D4490604D51568111D1960ADB202E0111D196015685F4B227E039308276F2A1DD00A271BE022007821453211705A4A19680392081D226818600D68100602D4A8
:4057C000500600D5ADB2D30702D520231A4322601027002D03D1202322689A4322602300002243331A7002E00A274A4B03936368A360002B09DB0422216891432160002D57
:4058000005D1049E002B11D07BE0002D79D0049E28003900FFF734FC039B013E5B5C280033703900FFF7A6FB051EF1D1082F09D12368DB0706D563682269934202DC302321
:40584000013E3370049B9B1B23612BE009681A68080607D4490605D5111D19601368A28A1A8004E0111D1960136862691A600023049E236116E01A68111D19601668002123
:405880006268300000F04AF8002801D0801B6060636803E0260042363270012323610023049A1370079B09AA00932100069B0598FFF7A4FE431C02D10120404227E0236947
:4058C000320006990598079DA847431CF4D0236800259B070FD4099BE068984217DA180015E022000123193206990598079EB047431CE1D00135E368099A9B1A9D42F0DB8F
:40590000E9E72600039B42361B7833708EE70BB0F0BDC0463D9A01004E9A0100C9B28218904204D003788B4202D00130F8E70020704710B5884202D98B18984201D30023E7
:4059400005E09B1A013A08D3995C8154FAE7934203D0CC5CC4540133F9E710BD70B50500002944D00C1F2368002B00DAE418280000F0D8F81E4A13681100002B02D1636048
:40598000146031E0A3420DD92268A018834203D118685B688218226063600C6024E0A24203D813005A68002AF9D11E689819A0420BD12168711858181960824214D1106891
:4059C0005268411819605A600EE0A04202D90C232B6009E021686018824203D1106852684118216062605C60280000F09CF870BD4C230020032370B5CD1C9D430835060031
:405A00000C2D01D20C2501E0002D01DBA94202D90C23336048E0300000F084F8234B1C681A002100002913D00B685B1B0DD40B2B02D90B60CC181EE08C4202D163681360B3
:405A40001AE04B6863600C0016E00C004968E9E7174C2368002B03D1300000F051F820602900300000F04CF8431C18D00323C41C9C43A0420DD12560300000F054F82000C7
:405A800007220B30231D9043C31A0ED05A42E2500BE0211A300000F033F8431CEBD10C233000336000F03FF8002070BD4C23002048230020F8B506000C001500002904D108
:405AC0001100FFF797FF040018E0002A03D1FFF745FF2C0012E000F027F885420ED929003000FFF787FF071E07D021002A00FFF7F2FB21003000FFF731FF3C002000F8BD73
:405B0000002370B5064C050008002360FBF7F4FA431C03D12368002B00D02B6070BDC046E8230020704770470B1F1A68101F002A04DA891804390B68D0180438704700003C
:405B4000134A1088810703D08107890F401A001D11791030484381B25088820703D08207920F801A001D800040180A494030098980B2CA0701D0503080B2890706D5044936
:405B80005422091F09785143081880B2704700003E0D00208411002010B501F011FF10BD10B501F013FF10BD10B500F05BFA10BD10B50749044609780220002907D12046A1
:405BC00001F054FF002802D120460CF003F910BDEA0E002070B504460120002C12D02368002B0FD0616800290CD0074D06222889208118462968FFF76EFB696860680978EC
:405C00000170002070BD000084110020FFB585B0002768460E9D07734F481C460078002802D0082009B0F0BD10990F9801900095029105A807C800F007F90028F2D1694606
:405C4000264603AB84460873002C19D0002115E08A00B75A082F09D990198078002805D0083FB7521878401C187005E0002914D00027B75290198770491CC9B2A942E7D33D
:405C800060460028CED10F98002809D0109901F047FA002804D00120C4E701208446EFE701F094FE2D480021416081600599016021888180022D07D3A1798171A17AC171C5
:405CC000A1890181218A418100211EE0481C19E082008B00A75AE65ABE46BE4211D26F463E80B4461E190296B678BE7001967646E6521719029EBB78B3706646A652019E4E
:405D0000BE70401CA842E3D3491CA942DED3134822460C3000906846037B0799069800F01BF90028B8D168460B4C007B60700B480C3001F07BFE0028AED1084907480C31BD
:405D400008F090FF0028A7D108F0AAFF0028A3D10121217066E70000380D002078110020F8B5054636480F460078002802D002242046F8BD002F60D000243249002D16D022
:405D80002A89D0070DD02868002808D003881B3BE12B04D24088FB2801D81B2801D2012409E0900707D56868002804D1F7E70020088108604860002CDAD122482E890681EB
:405DC0001F481B21801D01804180042101711C490020891C0870F00705D019480622801D2968FFF778FA1749B00703D56A68144812788270124D0E46AD1D281F0D6048608B
:405E000001F05AFE284601F049FE30890FF094FF30890FF02FF828880FF032F8308910F00BF903461033FFF78BFE1F21C018890140183880A91F88809AE7012498E7000001
:405E4000380D002084110020FFB58446384F1C460020BB883F78054602460646002F11D100290ED0029999420BD36146002908D0002C06D00A99002906D02E4B0B999942F8
:405E800002D2012004B0F0BD002144E0AB001F19BF78002F3BD0E35A002B38D07B43591889B22B0000F04AF8050410161C253100A7782388BC46FF27233BEB37BB4222D2B8
:405EC0006346032B1FD322E0A388002B1FD0302B19D31CE02389002B19D0282B13D316E0A289002A13D01346134F233BBB420AD20DE0268A002A0AD033460F4F233BBB4263
:405F000001D2964203D901200EE0002001E000280AD16D1CEDB2099B9D42B7D31C2463435B1802998B42ACD89642AAD8AAE70000380D002079020000BAFF000030B474462B
:405F4000641E2578641CAB4200D21D46635D5B00E31830BC18470000FFB583B0002469460C801F4606468C80002806D00598002803D004983043800701D0012466E0002F65
:405F8000FBD03449049809888842F6D3FEF7E8FEFEF7CEFE00F016FC002855D100F07EFD002851D12C49084601F0EEF805042D0C4AD12A480499066081800021C1800781E1
:405FC0000C98007AC00704D0684601F018FD040007D10C98007A800703D501A801F018FD0446BF1DFEB2002C20D13146059800F05DF804001AD110F02DF8040016D16A4631
:406000001088928808368518144AF1B29088D288AEB29319984207D3401B801A80B201F0A3FB050007D000E0FF25012400F062FA002D04D008E0F8B200F01CF9F6E700F034
:4060400085FA07490120087000F0CEFB204607B0F0BD00003C0D00209961000090110020440D002010B503480078012801D101F01DFA10BD440D002070B5084B0446DA88B3
:406080009E8803205518B54206D8186880182060D8884018D880002070BD000090110020014800897047000090110020F0B587B007460D4600208900009006916846FFF765
:4060C000DBFF844600285DD1304800990160002117E02E4B88001A680629115406D22C4C0419667882185670628805E0C419203CA67A8218567022891B68C018491C4280A5
:40610000C9B2A942E5D300242DE0601CC2B2059025E01E4FA30039689600581840887118039604904E88B04217D938466F46FE80B6464F786E4677710297049F4F80016815
:40614000039F5E18767879184E700168764659184E800068029F18184770521CD2B2AA42D7D30598C4B2AC42CFD36046002809D168460699FFF780FF8446002802D10549CE
:4061800000980860604607B0F0BD0000480D0020989A01004C0D00207047000010B5002809D005494A68002A05D0011F08788000105801F087FA10BD480D002010B50446ED
:4061C000FFF76EFFC0B2801DA0420CD307484068002808D0A100405801F0E6F9002801D00470001D10BD002010BD0000480D0020F8B516460D460446FFF752FFC0B2801DB7
:40620000A04203D20020C0430090F8BDB2B2E9B2684601F0EFF90099481C03D0024AA000526811500098F8BD480D0020F8B50746FFF736FF801DC6B20A49002005460C68B4
:406240000DE06178002907D06188B94202D32078FFF7B4FF002804D1241D6D1CEDB2B542EFD3F8BD480D002010B5002801D0FFF795FF10BD70B506460948002504680BE0C2
:406280006178002905D062882078121D0023FFF7AFFF241D6D1CEDB2B542F1D370BD0000480D0020FFB581B00A9F16000C4620D000F0F6F8054604281BD0002F0CD038461A
:4062C000FFF7B4FF20492A0151184860002810D03A460499FEF7FFFF1B4928010E504618778101980570200406D47D20C000444304E0FF2005B0F0BD6404640C00F0BEF824
:406300000746042807D000F053FAA0420BD800F04FFA201A03E0204600F0AEFA0020F06035720020E6E700F043FA009000F0BAFA00980121001B009000F0F0F802493A018F
:4063400051180098C860E6E79C110020F8B5042801D3FF20F8BD060116483418217A042903D0E068002802D017E00020F8BD00F01FFA054600F096FA00F0A0F804280CD01B
:4063800001010C480F18F8680021451900F0C6F80020F860284600F06FFA6068054D002801D0FFF761FF042020720020A8516081E060DAE79C110020FEB500266A463046AE
:4063C00001232549050169180D7A042D02D0C96800291BD000211154401CC0B20428F0D300246846005D002830D01B482101081841894768056802910021016041600422B4
:4064000041810272C160002E02D015E01354E3E700F054F804280ED001010F4808180190C6680021304600F079F801980021C160304600F021FA0126002D07D038460299C9
:40644000A847002F02D03846FFF70EFF641CE4B2042CC6D3FEBD00009C1100200EB5002005216A4600901181508103486946006810F087FC0EBD0000500D0020074A0020FA
:40648000010189180B7A042B02D0C968002903D0401CC0B20428F3D3704700009C1100200549002002015218127A042A03D0401CC0B20428F6D370479C11002030B50A4B59
:4064C00004200A4C00210A011219157A042D06D0D268002A03D09A4201D808461346491CC9B20429EFD330BDFFFF00009C1100207047000030B50020074C05460423020197
:4065000011190B72A5504D60401C4D81C0B2CD600428F4D330BD00009C11002030B5094C00231A011219157A042D04D0D568002906D02D18D5605B1CDBB2042BF1D330BDCB
:406540002D1AF7E79C110020002070471CB5002469460C70142001902346054A054810F015FC04480068401C00D1FF2420461CBDC9650000500D00203EB5124A0146FF20B4
:4065800000230124126800290DD0012914D0042908D104206946009308814B81104610F0F0FB80B23EBD68460093048143816946104610F0E1FBF4E7684600930481438106
:4065C0006946EBE7500D002070B545890468416800890300FFF7B2FC08280509091E22282628002007F04EF81EE0022908D0C8B22A4621460EF092FB2046FFF735FE13E0AC
:4066000002202A4621460EF089FB2946204600F00DF809E0002010F0B3F805E02046FFF7CBFE01E0FEF71CFC002070BD014B0022DB681847540D002070B5448905680089A3
:40664000022803D0032809D0FF2070BD2246094C0023A46829460120A04708E0FFF7A0FA241DA2B200232946022008F0AEF9002070BD0000540D002070470000024800211A
:406680004160018041807047540D002070B50C46002186B016460391012802D0022859D116E003A9012008F0E5F901281BD1039D324621462846FEF70EFE00952878019050
:4066C0000220694608814E816846FFF7B5FF41E0214D002B686809D0049004A9022008F0C9F901281DD0022006B070BD002812D0298840182146FEF7EEFD288800248019B7
:4067000080B228806988091D884206D12C801348FFF792FF03E00320E6E788421AD96C6018E004986860E278A378110219430B4A698000231060E356536003231381518154
:40674000A1788170E178C1706178417021780170042028800020C7E7540D0020DC1100203EB515460C46022803D004280CD000203EBD0091019002206946088107484A8173
:40678000006810F0FEFA07E00EF0C8FA044B0022DB6829462046984701203EBD500D0020540D0020014AD16090607047540D0020034801688068081A0A2148430009704778
:4067C000E811002010B5FEF7BBFA4C2204490548FEF781FD03490120C870002010BD0000B49A0100EC15002010B5FEF799FA10BD70B5134C2368002B08D0207B1149C207AA
:4068000005D04008400020738868A08070BD88680B4AA18880B29268814203D90A4D691A091802E0814202D2411A5118A160A080A0689842EAD310F0C1FA00F013F870BD17
:40684000E8110020C0102E40FFFF000010B508461946FFF7A7FF10BD704710B5FFF780FF10BD000003480021016041608160C16070470000E8110020024610B5FF20002A94
:406880000CD0FFF7EFFF064C0321207B0843207310010A21FEF7F4FB2060002010BD0000E811002000B504480A21806848430209FFF7D8FF104600BDE81100200248007B1B
:4068C0008007C00F70470000E811002010B54B490868002802DA4A4B01221A70022290430860484800694549C00B4031096A0246C907C90F0A4259D0012000F097FA3F4840
:406900000E216C30FEF716F93E4820218430FEF711F93C4814219C30FEF70CF93948FF21C131A430FEF706F93648FF212F31B030FEF700F933483449BC30FEF7FBF8314823
:406940003249AC30FEF7F6F830492E48491CB430FEF7F0F82B482E49B830FEF7EBF829482C49CC30FEF7E6F826482B490830FEF7E1F824482949A830FEF7DCF82148284928
:406980008830FEF7D7F81F4826498C30FEF7D2F81C481921C9029030FEF7CCF8FEF7DAF8FEF7EAF9C0B2022812D01FE000290BD0002101420AD0114801216030FEF7BAF818
:4069C0000120FEF7A1F997E70121F2E7FF2010BD15491648FEF7AEF814481549001DFEF7A9F8124800210830FEF7A4F854200449C043891C0870002010BD000000F02E404E
:406A0000640D002000002E40320300002F3F00003102000010520000EC160000FA12000031D000003AE300009956000080012E40F80F000070B50646581C80B245086D003D
:406A4000002408E0304600F0C1F81055000A1119A41C4870A4B2AC42F4D3D80705D0D0182038D15CC47FD454C17770BD30B50A4C002100195B1E07E0541864782502545CEA
:406A80002C430480891C89B29942F5DB994201D1515C018030BD000000102E4010B5FF2000F0C4F90F49FF2048700E481021801D41800121417001700A490020C91C487019
:406AC000FFF704FF04000AD100F010F907210648FEF720F8044807211830FEF71BF8204610BD0000640D0020CC112E4070B5002405465B1E0AE0284600F068F8010A161980
:406B000071702D1D1055A41CADB2A4B29C42F2DB9C4203D1284600F059F8105570BD000070B500210A4D5B1E0AE0541864782602545C344346193480001D891C80B289B2D9
:406B40009942F2DB994202D1515C4019018070BD00102E40F0B50599091FCFB200217E1E0BE0541864782502545C2C43164D45192C80001D891C80B289B2B142F1DBFC070D
:406B800012D01C78515C24020F4A0C4381180C809C785D78001D210280B2294384182180001D80B2D9780CE059781A7809021143054A84182180001DD9789B78090280B223
:406BC000194380180180F0BD00102E40014940180088704700102E4010B50B490020487000F084F8002000F047F9002000F034F907210648FDF78EFF044807211830FDF705
:406C000089FF002010BD0000670D0020CC112E4010B50B46062812D006DC01280CD0032801D1FFF7D9FF10BD0A28FCD00B28FAD105480078107010BDFFF730FF10BD114604
:406C4000184600F035F910BD6A0D0020F8B5244DAC6A0127A007234E002816DA307806280ED1286A384328621F480069F903084381B21D481030FDF75DFF042000F0D6F83B
:406C8000174802212830FDF745FFE00718D000F01FFF01280FD1002000F06CFF062000F0C5F81049FF20C91E48707078002802D1686B384368630A4801212830FDF72AFF92
:406CC000E0050BD53078042802D1052000F0AEF80348FF2101312830FDF71CFFF8BD000040F02E40670D002000002E4010B503212348FDF71FFF0120FDF7F6FF20483038D4
:406D0000406A204C80076178800F890001431C480C38FDF70FFF6078002808D0401E022181401820FEF796FAC000083800E0B82081B21548FDF7FEFE1348032109021438F2
:406D4000FDF7F8FE10481149B830FDF7F3FE612189010F48FDF7EEFE0D480321001FFDF7E9FE0C490C48FDF7E5FE0B480B496038FDF7E0FE084801218838FDF7DBFE10BD97
:406D800070F02E406A0D0020D8102E4090890000041E2E40FF0F000058122E40209000000848017806290BD140780749002803D1486B400840004863C86A01221043C86249
:406DC00070470000670D002040F02E400148007870470000670D002000B50300FFF7AEF8080D050D0B070507090D012000BD032000BD042000BD022000BDFF2000BD000095
:406E0000074A9168D26889B2064B92B2994204D105498A4201D1012100E000210170704780002E4033D000003FE3000010B50446FDF77EFF072C01D9FF2C01D102480470BC
:406E4000FDF76EFF10BD0000670D00200149487070470000640D002010B5064A012805D01921C9021046FDF765FE10BD1D21C902F8E7000090002E4010B50A4A141D01281B
:406E800008D009491046FDF755FE08492046FDF751FE10BD04491046891CFDF74BFE0349491DF3E788002E4031D000003AE3000070B50C460546FDF75FFFC0B202280E4918
:406EC000287804D0FF2810D04C280CD810E0FF2809D10A4AD0680004800F032801D0087807E09069000A553803E00878207070BD4F382070087070BD660D002000002E40DF
:406F0000F0B50122002834D0002932D00424420600D00524792342065B06D21800D0641C034600221EE00C2516466E43124D00277519AF72104F002ABB51696007D0661EB5
:406F4000B24209D10D4E86197606760E05E05E06760E8027BE1B00E080269B198919521C2E81D2B2A242DED303480549006B002288611046F0BD00007414002079020000B5
:406F8000700D002018B50020694608700A48006900280ED0132149014018047E684604704F21C900054800F05BF8A04201D0012018BD002018BD0000700D0020F8110020B8
:406FC000074900200C2242435218927A012A05D0401CC0B20628F5D3002070470120704774140020F8B50F000446164609D01A4D1A496868A04202D94018A04201D38E426D
:4070000001D90120F8BD39462046FEF755F9002820D0324639462046FEF75DF90E49F0B2012620318E7600210C220B4653430A4A9A1813895568EF18A74207D9641B1B1B29
:407040009672834206DAC01A1469C0B2491CC9B20629E9D30020F8BD7414002079020000034610B50020024604E09C5C2018521CC0B292B28A42F8D310BD000070B500F0B0
:407080005FF8084C064A216907480D46FEF723F905492846FFF734FFFFF774FF207070BD79020000700D0020F8110020002070470020054A002902D0012902D002E090603D
:4070C00000E0D06000207047700D002070B5084C154608460549E26889182A46FEF7FBF8E0684019E06028B270BD0000F8110020700D00203EB50A226946FFF7E7FF0446B7
:4071000006480A2200686946FEF7D6F8002802D00020C0433EBD20463EBD0000740D0020002802D0044A914201D2FF20704703494A6108610020704779020000700D0020CE
:40714000024800218160C16070470000700D002070B5074C15460548A26880182A46FFF741FFA0684019A06028B270BDF8110020700D002010B503490A220968FFF7E8FF2D
:4071800010BD0000740D002010B50F4A002313600E4A13600E4B18600E4801600E49012008600E490860000290600E490C4808600D4914300860FF381538506000F0BCF8DC
:4071C00000F0CAF9002010BDA40D00208C0D0020B80D0020BC0D0020A80D0020980D0020BC1500209C0D0020B00D0020014610B50020002910D0094B1A689C685118A1420B
:4072000009D25868196080188A0704D08A07920F891A091D196010BD002010BD8C0D0020F8B50024164E671E321F3D463168136806E01422624310328A58521C1BD0641CF6
